:020000040800F2
:10000000F822002019010008E10600081D0600087A
:10001000DD060008CB0300083D0D000800000000CD
:10002000000000000000000000000000190A0008A5
:10003000E104000800000000CD070008690A00087C
:1000400033010008330100083301000833010008C0
:1000500033010008330100083301000833010008B0
:1000600033010008330100083301000833010008A0
:100070003301000833010008330100083301000890
:100080003301000833010008330100083301000880
:100090003301000833010008330100083301000870
:1000A0003301000833010008330100083301000860
:1000B000F10A0008490B0008330100083301000869
:1000C0003301000833010008330100083301000840
:1000D00033010008BD0B000833010008ED0B0008D8
:1000E000330100083301000833010008000000005C
:1000F0000000000000000000000000000000000000
:1001000033010008DFF80CD000F02EF9004800475A
:1001100041160008F822002006488047064800479C
:10012000FEE7FEE7FEE7FEE7FEE7FEE7FEE7FEE7A7
:10013000FEE7FEE76D0A00080501000840EA01033A
:100140009B0703D009E008C9121F08C0042AFAD28D
:1001500003E011F8013B00F8013B521EF9D2704751
:10016000D2B201E000F8012B491EFBD270470022F9
:10017000F6E710B513460A4604461946FFF7F0FFA6
:10018000204610BD80EA010210B502F00043400095
:1001900022D04A001FD0010E01EB1261C0F35600BD
:1001A000C2F3560240F4000042F40002A0FB022019
:1001B00000047F39140400D0401C50EA124001D4DE
:1001C0004000491EC2B20C0604EBD010401C40088F
:1001D000802A02D003E0002010BD20F00100002999
:1001E00000DA0020184310BD30B480EA010202F0AA
:1001F000004530F0004221F0004013D090B1C30D13
:10020000D40DC2F31601C0F31600E41A41F4000144
:1002100040F400027D34914201D3641C00E04900A7
:10022000002C02DA30BC002070474FF4000000239D
:10023000914201D3891A034340084FEA4101F7D1A3
:1002400051B1914202D14FF0004105E002D24FF08E
:10025000010101E06FF0010103EBC450284430BC00
:1002600000F04AB896230022114600F04EB820F064
:100270000040C10DC0F3160040F400007F2901DAF0
:1002800000207047962903DCC1F19601C8407047F1
:100290009639884070472DE9F05F05460020924668
:1002A0009B4688460646814640241BE02846414638
:1002B0004746224600F079F853465A46C01A914103
:1002C00010D311461846224600F060F82D1A67EB4D
:1002D00001084F4622460120002100F057F817EB95
:1002E00000094E41201EA4F10104DFDC48463146DE
:1002F0002A464346BDE8F09F0029A8BF7047401C2E
:10030000490008BF20F00100704710B4B0FA80FC2B
:1003100000FA0CF050EA010404BF10BC704749B168
:10032000CCF1200421FA04F411FA0CF118BF0121D8
:1003300021430843A3EB0C01CB1D4FEA00614FEAB8
:10034000102042BF002010BC704700EBC350104487
:100350000029A4BF10BC7047401C490008BF20F012
:10036000010010BC70470000064C074D06E0E06835
:1003700040F0010394E8070098471034AC42F6D3EC
:10038000FFF7C4FE441F0008641F0008202A04DB96
:10039000203A00FA02F1002070479140C2F1200398
:1003A00020FA03F3194390407047202A04DB203AD7
:1003B00021FA02F00021704721FA02F3D040C2F185
:1003C0002002914008431946704700BFFEE710B570
:1003D00002460B460020002100BF03E0545C20448D
:1003E0004C1CA1B29942F9DB10BD000010B50446C7
:1003F00040F205310E4801F0F1FC0E480078401C37
:100400000C49087040F20531094801F0F4FC0A4833
:1004100001780078401C084A10700848445410467F
:100420000078FF2802D100201146087010BD00009E
:10043000004800402800002027000020CB010020B9
:1004400003480078002801DD012070470020FCE708
:100450002800002010B500241148007800281DDD78
:10046000104801780078401C0E4A10700E48445C19
:1004700010460078FF2802D100201146087040F293
:1004800005310A4801F0AAFC05480078401E0449DD
:10049000087040F20531054801F0ADFC204610BD62
:1004A0002800002026000020CB010020004800404A
:1004B00070B505460E46002400BF0CE0295D0748D4
:1004C00001F01BFC00BF0721044801F068FC002874
:1004D000F9D0601CC4B2B442F0DB70BD00480040EB
:1004E0007047000010B500240B48C07804EB00648E
:1004F0000948007904EB00440748407904EB0024E4
:10050000054880790444204600F052F8002108464E
:1005100000F008FA10BD00003000002010B50021E6
:10052000084600F0FFF9024800F040FA10BD000054
:100530000040000810B58AB00024282214496846FB
:10054000FFF7FCFD24216846FFF741FF04460998A8
:10055000A04205D1282269460E48FFF7EFFD15E0BD
:1005600000200C49086018210A48001DFFF7FFFD14
:100570000120084908774FF4E1300862242105483A
:10058000FFF725FF0349486200F052FC0AB010BD96
:1005900000FC0008CC02002008B504A00068009010
:1005A0000121684600F0BEF908BD0000010000000E
:1005B00010B5044600F00AFF40F2023000F06AFE77
:1005C0004FF4417000F066FE40F2053000F062FE2C
:1005D000204600F085FE40F2023000F05BFE4FF452
:1005E000417000F057FE40F2053000F053FE00F07D
:1005F00061FE10BD10B54FF480530322042105485D
:1006000000F078FF102303221946034800F072FF20
:1006100010BD000000080140000C014000BFFEE7D3
:100620001548007800F0010020B31348007820F04E
:1006300001001149087011480088401C0F490880CA
:1006400008460088B0F5967F14DB002008800C482F
:10065000007818B110200B49086003E01020094908
:10066000091D08600648007808B9012000E0002054
:1006700003490870704700001400002008000020A3
:100680000A000020100C014010B501F0CFF900F075
:100690009FF801F019F8FFF74DFF00F051FBFFF74D
:1006A000A9FF00F001FB054B05A208A10A4800F0D4
:1006B000EDFB00F057FA00F0B1F910BD1800002072
:1006C00032313A31353A3235000000004D61722046
:1006D0003238203230323400F81E000800BFFEE706
:1006E0007047000010B5044640F205310E4801F095
:1006F00075FB0E480078401C0C49087040F205312B
:10070000094801F078FB0A4801780078401C084A43
:1007100010700848445410460078FF2802D1002089
:100720001146087010BD000000380140250000206F
:1007300024000020CC00002010B50D484078062889
:1007400013D2DFE800F0120306090C0FFFF724FFB5
:100750000CE0FFF7C7FE09E000F008FB06E000F040
:1007600057F803E0FFF7DAFE00E000BF00BF10BD5E
:100770003000002010B500200A49087001204870A0
:100780000020887096210748C01CFFF7F0FC00206D
:10079000044981F89900A1F89A000349087048803B
:1007A00010BD0000300000201E0000200120024982
:1007B00008700020488070471E0000200020024979
:1007C00008704880704700001E000020704700003D
:1007D00010B54FF4C06001F07FF840F2036001F003
:1007E0007BF840F2026001F077F80121042000F06C
:1007F000DFFE40F20E6001F06FF840F2127001F07F
:100800006BF80121014800F0D3FE10BD000230005A
:100810007047000010B50446FFF7C8FF3E48007857
:10082000082872D2DFE800F0040E1A2637525C6600
:1008300000203949887081F899005A2C01D1012093
:10084000087066E03548007FA04203D1022032499B
:10085000087002E00020304908705AE0052C05DCE1
:100860002D48447003202C49087002E000202A49DA
:1008700008704EE028488470E01E29490870084638
:100880000078002803DD04202349087002E00520D9
:10089000214908703DE022480078002815DD1E48F7
:1008A00090F8991090F89900401C1B4A82F8990022
:1008B000D01C44541A480078401E19490870084654
:1008C000007810B905201146087022E0FF2C03D1F2
:1008D00006201149087002E000200F49087018E056
:1008E000FF2C03D107200C49087002E000200A49C0
:1008F00008700EE05B2C03D1FFF71EFFFFF75EFFD1
:1009000000200549087004E0FFE700200249087054
:1009100000BF00BF10BD000030000020CC0200204E
:1009200022000020F0B5A7B007460D46982101A887
:10093000FFF71DFC002400265A222146641C01A852
:1009400042541948407840F080022146641C01A8B6
:100950004254E81CC2B22146641C01A84254002D36
:100960000BDD00BF07E0BA5D2046611CCCB201A9D7
:100970000A54701CC6B2AE42F5DBFF222046611C51
:10098000CCB201A90A542046611CCCB201A90A5478
:100990005B222046611CCCB201A90A54214601A861
:1009A000FFF786FD27B0F0BD3000002070B505468A
:1009B000002600240EA000F069FA72B6002409E0B7
:1009C0004FF0FF31114840F82410114840F824102E
:1009D000601CC4B2082CF3DB6E680E480660286801
:1009E00080F3088800BF0B480068804770BD000096
:1009F0004A756D7020746F204170706C696361740A
:100A0000696F6E2E2E2E0D0A0000000080E100E0BE
:100A100080E200E004000020704700001FB540F2B3
:100A2000017000F059FF0F4801F022F86B20ADF87B
:100A300000000020ADF80200ADF804006320029031
:100A40000020ADF80C008DF80E006946054801F055
:100A500083F80121034801F0F3F80121014801F076
:100A6000EBF81FBD000400407047000010B51C48A3
:100A7000006840F001001A4908600846406820F00C
:100A80000300486008460068164908401449086099
:100A90000846406814490840114948600846006803
:100AA000104908400E4908600846006820F480207C
:100AB0000860084640680D490840094948600846F2
:100AC000006808490840064908604FF41F00886024
:100AD00000F094FF00214FF0006000F061FE10BDB7
:100AE00000100240FFFFF6FE0C00FFE8FFFF00F7DA
:100AF00010B50121880701F0A6F801281DD10121B8
:100B0000800701F09DF80D48007820F00100401C9E
:100B10000A4908700A48007801280ED10848408820
:100B2000401C0749488008464088B0F5967F04DBA2
:100B30000020488008700349087010BD1400002090
:100B40001E0000203000002010B50121044801F0F3
:100B50007AF8012803D10121014801F071F810BD94
:100B6000000400401FB54FF4E06000F0B5FE4FF008
:100B7000804000F07DFF6B20ADF800000020ADF854
:100B80000200ADF8040040F2E73002900020ADF81A
:100B90000C008DF80E0069464FF0804000F0DCFF3D
:100BA0000121880701F04CF80121880701F044F881
:100BB0004FF0804000F0CAFF1FBD000010B50024B8
:100BC0000849094801F031F950B1074801F090F89F
:100BD000C4B22046FFF786FD0249034801F018F928
:100BE00010BD0000050305000038014010B50024C9
:100BF0000849094801F019F950B1074801F078F89F
:100C0000C4B22046FFF7F2FB0249034801F000F9A5
:100C100010BD0000050305000048004010B54FF46A
:100C20008063032218211E4800F064FC4FF4006327
:100C3000032204211A4800F05DFC1A4801F062F812
:100C40004FF4E131174801F00BF80021154801F08D
:100C500028F90021134801F014F90021114801F08E
:100C600000F900210F4801F0B1F800210D4801F012
:100C7000A5F804210B4801F0FCF80821094801F00F
:100C800008F940F20531074801F0B5F8054801F0D0
:100C900081F803220121272000F022FD10BD000071
:100CA000000C01400048004010B500F003F8FFF7C9
:100CB000B5FF10BD10B54023032218211D4800F0D8
:100CC00019FC8023032204211A4800F013FC1A485F
:100CD00001F018F84FF4E131174800F0C1FF00218E
:100CE000154801F0DEF80021134801F0CAF8002190
:100CF000114801F0B6F800210F4801F067F8002113
:100D00000D4801F05BF804210B4801F0B2F808210E
:100D1000094801F0BEF840F20531074801F06BF8D0
:100D2000054801F037F803220121252000F0D8FC06
:100D300010BD0000000C01400038014000BFFEE77C
:100D400010B50020084908600846007820F0080027
:100D5000083008700846007820F010001030087045
:100D6000FFF708FD10BD0000140000202DE9F04140
:100D70000024A0460026042700252C48C07804EB58
:100D800000642A48007904EB00442848407904EBC9
:100D90000024264880790444244991F89910081FBA
:100DA000C11700EB9171C1F3870800F00FFB00BF82
:100DB00032E03846791CCFB21C49C91C085C054496
:100DC0003846791CCFB21949C91C085C05EB0025CF
:100DD0003846791CCFB21549C91C085C05EB0045A3
:100DE0003846791CCFB21149C91C085C05EB006577
:100DF00004EB8600294600F00BFB40F2053000F0C2
:100E000049FA4FF4417000F045FA40F2023000F028
:100E100041FA0025701CC6B24645CADB00F04AFA0A
:100E200000210846FFF77EFDBDE8F081300000207C
:100E30002DE9F04100260024124D00271248FFF74B
:100E4000B7FB00F0C3FA0A2600BF14E02F680E4972
:100E500001EB8400394600F0DBFA40F2053000F087
:100E600019FA4FF4417000F015FA40F2023000F028
:100E700011FA2D1D641CB442E8D300F01BFABDE842
:100E8000F0810000CC02002000FC00080FB4054BEC
:100E900010B503A9044A029800F018F810BC5DF8D8
:100EA00014FB0000D11400082C00002002E008C848
:100EB000121F08C1002AFAD170477047002001E0D4
:100EC00001C1121F002AFBD1704700002DE9FF4F1E
:100ED0008DB09B460F460446002606E025280BD021
:100EE0005A460F999047641C761C20780028F5D14B
:100EF00011B03046BDE8F08F0025A8460122984980
:100F000000E0054314F8013F203B02FA03F00842D9
:100F1000F7D120782E2817D114F8010F45F00405D9
:100F20002A280ED06FF02F022078A0F13001092975
:100F30000AD808EB880102EB410100EB0108641CB0
:100F4000F2E757F8048B641C20786C280DD004DC81
:100F50004C2812D06A2811D104E074280DD07A28C8
:100F60000CD10AE045F4001507E0617845F48015DE
:100F7000814202D1641C05F58015641C2278692A1F
:100F800045D008DC002AB3D0582A69D0632A10D093
:100F9000642A08D13BE0702A67D0732A13D0752ADF
:100FA0005CD0782A5CD010465A460F999047761C40
:100FB000D3E017F8040B8DF8000000208DF8010035
:100FC000E946012003E057F8049B4FF0FF30690722
:100FD0004FF0000501D40AE06D1C45450DDA85424D
:100FE000FADB19F805100029F6D106E06D1C8542E0
:100FF000FCDB19F805100029F8D12E4404E019F89B
:10100000010B5A460F9990476D1EF8D2A5E00A20B1
:101010000021CDE90801C5F3025002280DD001CF0F
:10102000C117031E71F100030DDA4FF0000CD0EB75
:101030000C006CEB01012D2308E0FF1D27F00707D2
:10104000F7E80201EDE72B0504D52B238DF82830B6
:1010500001233BE0EB0739D02023F7E70A2000E02B
:1010600010200021CDE9080107E01020002145F003
:101070000405CDE908014FF00808C5F30250022825
:101080000FD001CF00214FF0000A2B071FD5702A87
:101090000DD0DDE908C38CF0100C5CEA030C0CD019
:1010A00015E0FF1D27F00707F7E80201EBE74022F4
:1010B0008DF828204FF0010A0BE050EA010306D01A
:1010C00030238DF828308DF8292002239A46582A9B
:1010D00004D024A20DF120090B9209E026A2F9E721
:1010E000DDE90823FFF7D7F80B9B9B5C09F8013D6E
:1010F00050EA0102F4D1ADEB0900203008906807F6
:1011000001D44FF001080899884502DDA8EB0100E1
:1011100000E000208046002506E00AA85A46405D0F
:101120000F9990476D1C761C5545F6DB04E0302086
:101130005A460F999047761CB8F10001A8F10108B2
:10114000F5DC05E019F8010B5A460F999047761C1B
:101150000899481E08900029F4DC641CC5E60000CC
:10116000092801003031323334353637383961627D
:101170006364656600000000303132333435363741
:101180003839414243444546000000002DE9F04112
:1011900005462846FFF766F80746134801683846B3
:1011A000FEF7F0FF0646FFF762F84FF0E0214861D6
:1011B000002088610120086100BF4FF0E020046931
:1011C00004F0010018B104F480300028F5D04FF08D
:1011D000E020006920F001004FF0E02108610020CC
:1011E0008861BDE8F08100001000002000B50346D2
:1011F000012200BF00F00CF802465B1E012A01D15B
:10120000002BF7D1012A00D10422104600BD0000B6
:1012100000200A49C96801F0010109B101200CE070
:101220000649C96801F0100109B1032005E003492E
:10123000C96801F0040101B102207047002002409A
:1012400000B50346012200BF00F00CF802465B1E09
:10125000012A01D1002BF7D1012A00D10422104626
:1012600000BD000000200A49C96C01F0010109B16C
:1012700001200CE00649C96C01F0100109B10320FE
:1012800005E00349C96C01F0040101B10220704777
:1012900000200240064A02EB9011096800F01F038B
:1012A00001229A401143024B03EB901211607047E8
:1012B000002002400848006940F0800006490861AB
:1012C00006480088B0F5007F04D90846006D40F05C
:1012D000800008657047000000200240E0F7FF1F13
:1012E00030B5054636480088B0F5007F48D9354806
:1012F00085421ED24FF47020FFF778FF0446002C81
:101300005BD13148006940F002002F49086108466E
:101310004561006940F0400008614FF47020FFF71C
:1013200065FF04462848006920F00200264908614C
:1013300043E04FF47020FFF783FF0446002C3CD1BC
:101340002148006D40F002001F49086508464565C8
:10135000C06900F0020008B1084645611A48006DF6
:1013600040F04000184908654FF47020FFF768FF0F
:1013700004461548006D20F00200134908651CE082
:101380004FF47020FFF732FF0446B4B90E480069ED
:1013900040F002000C49086108464561006940F0D0
:1013A000400008614FF47020FFF720FF0446064814
:1013B000006920F0020004490861204630BD0000A9
:1013C000E0F7FF1FFFFF0708002002400C480069FC
:1013D00000F0800020B10B48094948600A48486085
:1013E0000A480088B0F5007F09D90548006D00F073
:1013F000800020B1034802494864034848647047AC
:101400000020024023016745AB89EFCDE0F7FF1FC5
:1014100070B504460D4600262A480088B0F5007FC6
:1014200035D92948844219D24FF47020FFF7DEFEE7
:101430000646002E43D12548006940F001002349AB
:10144000086125604FF47020FFF7D0FE06461F4864
:10145000006920F001001D49086130E04FF4702060
:10146000FFF7EEFE064656BB1848006D40F001003F
:101470001649086525604FF47020FFF7E1FE064627
:101480001248006D20F001001049086517E04FF484
:101490007020FFF7ABFE06468EB90C48006940F09D
:1014A00001000A49086125604FF47020FFF79EFE95
:1014B00006460648006920F00100044908613046EC
:1014C00070BD0000E0F7FF1FFFFF0708002002408B
:1014D00070B504460D46E1B2054800F00EFC00BFB1
:1014E0000721034800F05BFC0028F9D0204670BDBE
:1014F00000480040F0B5044616460025002201F0E1
:101500000F0501F0100707B1354300201EE0012749
:1015100087401F40C7B122684FEA800C0F2707FAA7
:101520000CF7BA43870005FA07F73A43282904D194
:10153000012787401F40676105E0482903D1012743
:1015400087401F4027612260471CB8B20828DED3BD
:10155000082022E0012787401F40E7B16268A0F120
:1015600008074FEA870C0F2707FA0CF7BA43A0F1D8
:101570000807BF0005FA07F73A43282904D10127D5
:1015800087401F40676105E0482903D10127874054
:101590001F4027616260471CB8B21028DAD3F0BD43
:1015A00002469068084008B1012070470020FCE71F
:1015B000F0B50A46002300240021002500F0004673
:1015C000B6F1004F02D11D4EF16901E01B4E71686A
:1015D000C0F3034583B200F44016B6F5401F08D1AE
:1015E00021F07061154E766826F07066134F7E60AC
:1015F00012E000F48016B6F5801F06D1032606FA25
:1016000005F4A14341F0706106E0460D360103FA8E
:1016100006F6B14341F0706122B1460D360103FA7E
:1016200006F6314300F00046B6F1004F02D1034EFA
:10163000F16101E0014E7160F0BD00000000014069
:101640000EB51A4C00251AA207CA8DE80700FFF74D
:101650001BF84FF47A70FFF799FD61141748FFF7F4
:101660009FFF30B12068B0F15A3F02D01448FFF715
:101670009DF94FF480511148FFF792FF064631461D
:1016800010482268FFF702FC0A216846FEF710FFA7
:101690000AE0FEF7C5FFFEF7D3FE28B1FEF7DAFE3B
:1016A00005462846FFF7B6F8F3E70000FC4F002098
:1016B00075617274206973206F6B0000000801402F
:1016C00000400008B41E000810B54FF4C06000F0E0
:1016D0005DF8012211461C2000F002F810BD000048
:1016E0002DE9F04103460D46164600240027A0468A
:1016F0002448006800F4E060B0F5A06F15D006DC67
:10170000B0F5407F18D0B0F5806F19D110E0B0F57A
:10171000C06F06D0B0F5E06F12D100274FF004087B
:1017200015E001274FF0030811E00227B8460EE04C
:1017300003274FF001080AE004274FF0000806E0F5
:101740004FF4A06000F022F80227B84600BF00BFA7
:10175000C7F1040005FA00F4C8F104010F20C840E5
:101760003040044324010848C45403F01F01012001
:1017700088405911890001F1E021C1F80001BDE85C
:10178000F08100000CED00E000E400E002490143BC
:10179000024A1160704700000000FA050CED00E0FD
:1017A000024A0A400243024B1A60704780FFFF1F43
:1017B00008ED00E02DE9F04F8BB0074600200990BE
:1017C0003EA090E8004CC068CDE905BECDF810A061
:1017D00007900FF2EC0ADAE9000ACDE9020A0FF2EB
:1017E000E00ADAE9000ACDE9000A38484068C0F3A7
:1017F00081000A900A9820B1012804D0022829D13A
:1018000003E0334928E0324926E03048406800F4DC
:101810008038B8F5803F09D12D4C2C48406800F441
:101820000039B9F5003F02D1641000E0294C274887
:101830004068C0F383422548406800F0006008B16A
:1018400042F010020F2A01D2921C00E0521C04FB4D
:1018500002F101E01E4900BF00BF1C484068C0F310
:10186000031504A8465D21FA06F318484068C0F342
:10187000022502A8465D23FA06FC14484068C0F31E
:10188000C2251DF8056023FA06F0089037B1012F34
:1018900006D0022F06D0032F0AD106E0099108E0F6
:1018A000099306E0CDF824C003E00898099000E011
:1018B00000BF00BF09980BB0BDE8F08F000000002A
:1018C000000000000102030406070809001002409E
:1018D00000127A0000093D00064A02EB90110968E7
:1018E00000F01F0301229A401143024B03EB9012B8
:1018F0001160704700100240064A02EB901109681F
:1019000000F01F0301229A409143024B03EB901217
:101910001160704700100240064A02EB90110968FE
:1019200000F01F0301229A401143024B03EB901277
:101930001160704700100240002000212C4A1268FC
:1019400042F480322A4B1A6000BF401C284A1268B9
:1019500002F4003119B94FF6FF729042F5D1244AD2
:10196000126802F400320AB900BFFEE7204A52684A
:101970001F4B5A601A4652685A601A46526842F41F
:1019800080625A601A46526822F440325A601A46FF
:10199000526842F440325A601A465268154B1A4057
:1019A000134B5A601A465268134B1A43104B5A6035
:1019B0001A46126842F080721A6000BF0C4A126820
:1019C00002F00072002AF9D0094A526822F003029C
:1019D000074B5A601A46526842F002025A6000BF32
:1019E000034A526802F00802002AF9D0704700004A
:1019F00000100240FFFFC3F70000280810B5FFF7F2
:101A00009BFF10BD042808D14FF0E021096941F087
:101A100004014FF0E022116107E04FF0E021096975
:101A200021F004014FF0E0221161704710B56FF012
:101A30000400FFF7E7FF09480068FEF713FC0446BF
:101A40000749FEF7D1FB07490860074905480068C8
:101A5000FEF798FB0549086010BD0000000000205B
:101A60000024F44A0C00002000007A4410000020FA
:101A700010B504463349601A8C4244D00CDCB4F1F2
:101A8000804F1CD03048204410B3B0F5806F28D070
:101A9000B0F5006F52D12DE0B0F5806F3CD0B0F5BD
:101AA0008E3F03D0B0F5923F48D13EE040F20B307C
:101AB000FFF732FF40F20B30FFF71EFF3FE04FF41D
:101AC0008060FFF729FF4FF48060FFF715FF36E0D5
:101AD00040F20140FFF720FF40F20140FFF70CFF0A
:101AE0002DE040F20240FFF717FF40F20240FFF7FF
:101AF00003FF24E040F20340FFF70EFF40F20340F3
:101B0000FFF7FAFE1BE040F20440FFF705FF40F24A
:101B10000440FFF7F1FE12E040F20540FFF7FCFE43
:101B200040F20540FFF7E8FE09E040F20D30FFF714
:101B3000F3FE40F20D30FFF7DFFE00E000BF00BF14
:101B400010BD00000010004000FCFFBF016841F024
:101B500001010160704700000A888262294A9042B0
:101B600020D0B0F1804F1DD0274A90421AD0274A8A
:101B7000904217D0264A904214D0264A904211D063
:101B8000254A90420ED0254A90420BD0244A9042DA
:101B900008D0244A904205D0234A904202D0234ADA
:101BA00090420FD1026822F07002026002688B78C6
:101BB00003F060031A43026002680B7903F010031C
:101BC0001A4302608A68C262194A90420CD0194ACC
:101BD000904209D0026822F44072026002688B8948
:101BE00003F440731A430260064A904202D0094A45
:101BF000904201D18A7B0263426942F00102426154
:101C000070470000002C0140000400400008004024
:101C1000000C004000340140004C014000500140E5
:101C20000054014000180040001C0040002000400B
:101C30000010004000140040C2680A43C2607047B0
:101C4000CA43026170470246D06800EA0103106986
:101C5000084010B10BB1012070470020FCE70000E4
:101C60002DE9F04704460D460027B846B946002640
:101C70001D49601A8C421CD006DC1C48204470B1FF
:101C8000B0F5806F1FD10FE0B0F5806F16D0B0F5C2
:101C90006C4F18D10320FFF78DFD074614E002209A
:101CA000FFF788FD07460FE00220FFF783FD074698
:101CB0000AE00220FFF77EFD074605E00220FFF75D
:101CC00079FD074600E000BF00BF07EB5500B0FB01
:101CD000F5F64FF6F07006EA000806F00F0948EA3C
:101CE0000900A060BDE8F087004C004000BCFFBFC9
:101CF00001464868C0F308007047C1F3080242601B
:101D00007047000010B504462049601A8C4228D064
:101D100006DC1F48204490B1B0F5806F33D117E046
:101D2000B0F5806F26D0B0F56C4F2CD140F20E305C
:101D3000FFF7F2FD40F20E30FFF7DEFD24E040F247
:101D40001140FFF7E9FD40F21140FFF7D5FD1BE020
:101D500040F21240FFF7E0FD40F21240FFF7CCFDE9
:101D600012E040F21340FFF7D7FD40F21340FFF7B7
:101D7000C3FD09E040F21440FFF7CEFD40F21440ED
:101D8000FFF7BAFD00E000BF00BF10BD004C0040EF
:101D900000BCFFBFC16841F40051C160704710B57D
:101DA000024602EB9110006801F01F040123A340DA
:101DB000184008B1012010BD0020FCE70A460021B0
:101DC000416921F400711143416170470A460021C5
:101DD000416921F4807111434161704710B5C1F32D
:101DE0008912825801F01F040123A3409A43C1F3D2
:101DF0008913C25010BD10B5C1F38912825801F089
:101E00001F040123A3401A43C1F38913C25010BD1C
:101E100010B500EB91521268C1F304440123A340B2
:101E20009A4300EB91531A6010BD70B5024600232F
:101E30000024C1F38910105801F01F060125B54098
:101E400000EA050302EB91500068C1F30446012546
:101E5000B54000EA050414B10BB1012070BD0020AB
:101E6000FCE7C26822F4C062C260C2680A43C26072
:101E700070470A460021C16821F004011143C16086
:101E80007047026922F44052026102690A4302610A
:101E900070470A460021C16821F008011143C16062
:101EA0007047C26822F48052C260C2680A43C260AE
:101EB000704700005374617920696E206C6F616413
:101EC000657220666F722070696E2076616C756530
:101ED000206F7220666C616721204D6F6465312030
:101EE00050696E3A25642C2020466C61673A307840
:101EF00025580D0A00000000426F6F746C6F61641A
:101F0000657220666F722047443332463130334366
:101F10003820446973706C617920626F6172640D5E
:101F20000A4275696C642054696D653A20257320F6
:101F300025730D0A56657273696F6E3A2025730D0D
:101F40000A000000641F00080000002030000000AC
:101F5000AC0E0008941F000830000020C8220000CA
:101F6000BC0E000800F36F06000000000000000037
:101F700000000000000000000000000056302E3974
:101F80003000000000000000000000000000000021
:041F9000000000004D
:0400000508000105E9
:00000001FF
