:020000040800F2
:1040000060300020194100087D6A000891650008B1
:10401000E9690008D94C0008B998000800000000C0
:1040200000000000000000000000000031810008D6
:10403000A55A000800000000D97400083D9300084C
:104040003341000833410008334100083341000880
:104050003341000833410008334100083341000870
:104060003341000833410008334100083341000860
:104070003341000833410008334100083341000850
:104080003341000833410008334100083341000840
:104090003341000833410008334100083341000830
:1040A0003341000833410008334100083341000820
:1040B000C593000805950008334100083341000806
:1040C0003341000833410008334100083341000800
:1040D0003341000889950008B99500080996000841
:1040E000D55A0008334100083341000800000000A1
:1040F00000000000000000000000000000000000C0
:1041000033410008DFF80CD000F0B6FC004800474F
:10411000ADAD0008603000200648804706480047E3
:10412000FEE7FEE7FEE7FEE7FEE7FEE7FEE7FEE767
:10413000FEE7FEE741930008054100080649074AEB
:104140000868504343F23902104408604008704741
:104150000149086070470000080400206D4EC64108
:1041600038B5D0E90221491E01EB410102EBC10142
:104170004268C1EB011102EB81010268C1EB011140
:1041800002EB8102D0E9043101EB410103EB810133
:104190003023A1F5527191FBF3F4174D6C4302EB00
:1041A000C41291FBF3F403FB141100921A2902DBF1
:1041B000124B1A4400920C2291FBF2F3104C634311
:1041C000009C04EBC313009391FBF2F302FB131169
:1041D0000C4A08E0491E40F2A324535C6343009C50
:1041E00004EBC31300930029F4DC0146684600F099
:1041F000A9FA009838BD00003F0C0F008051010063
:1042000067C2030082B9000840EA01039B0703D09C
:1042100009E008C9121F08C0042AFAD203E011F805
:10422000013B00F8013B521EF9D27047D2B201E0C7
:1042300000F8012B491EFBD270470022F6E710B5AB
:1042400013460A4604461946FFF7F0FF204610BD04
:1042500030B505462A460B4612F8010B13F8014B00
:1042600008B1A042F8D01CB1002802D06D1CF1E7C3
:10427000284630BD421C10F8011B0029FBD1801AD2
:104280007047F0B480EA0102D40F4200B2EB410F54
:1042900002D20246084611464A0042D0C30DDDB2A2
:1042A000C1F3C752AD1A202D35DAC1F3160141F41E
:1042B000000204B15242C5F1200602FA06F12A4179
:1042C0001044B3EBD05F23D0C4B1012DA0EBC35099
:1042D00009DCF0BC4FF0004202EAC352DBB200F549
:1042E000000000F07EBA400000F1807000EBC35087
:1042F000A0F1807040EAD170490009E0490841EA24
:10430000C071A0EBC35000F50000400800EBC350A3
:10431000F0BC00F05DBA6142012202EB4101001BDA
:10432000F6E7F0BC704781F00041AAE780F000405A
:10433000A7E780EA010210B502F00043400022D056
:104340004A001FD0010E01EB1261C0F35600C2F308
:10435000560240F4000042F40002A0FB02200004D8
:104360007F39140400D0401C50EA124001D44000B0
:10437000491EC2B20C0604EBD010401C4008802A33
:1043800002D003E0002010BD20F00100002900DA77
:104390000020184310BD30B480EA010202F000454D
:1043A00030F0004221F0004013D090B1C30DD40D85
:1043B000C2F31601C0F31600E41A41F4000140F400
:1043C00000027D34914201D3641C00E04900002CBE
:1043D00002DA30BC002070474FF400000023914205
:1043E00001D3891A034340084FEA4101F7D151B183
:1043F000914202D14FF0004105E002D24FF001019D
:1044000001E06FF0010103EBC450284430BC00F020
:10441000DFB92DE9FE4F81EA030404F0004421F0E6
:10442000004100944FF0000B23F0004350EA0104D8
:104430005ED052EA03045BD0C3F30A54C1F30A55B9
:104440002C44A4F2F3340194A0FB0254C1F31301F1
:1044500041F48011C3F3130343F4801301FB0244BE
:1044600000FB034E840A970A44EA815447EA8357C3
:10447000A4FB076802958D0A05FB07854FEA932C7C
:1044800004FB0C542705029D4FEA065847EA1637ED
:10449000B5EB08056EEB070C870E920E47EA811705
:1044A00042EA8312A7FB0201B6EB0B0164EB0004A6
:1044B0002B0D43EA0C335E1844EB1C50DA46514690
:1044C000E7FB0201C5F313044FEA0B3343EA14532D
:1044D0004FEA0432019C43EA0603A4F10C0402945F
:1044E000009CCDE900B400F0B9F903B0BDE8F08F4D
:1044F00000200146F9E72DE9F04D81EA030404F0BC
:10450000004B21F0004514464FF0000A23F0004113
:1045100050EA050220D054EA01021DD0C5F30A5723
:104520000246C5F31303C1F31300C1F30A5640F466
:10453000801543F48013A7EB0608101BD64608F23B
:10454000FD3873EB050002D308F1010801E0921871
:104550005B41B8F1000F03DA00200146BDE8F08DA1
:1045600000204FF48011064684460EE0171B73EBC3
:10457000050705D3121B63EB050306434CEA010C48
:1045800049084FEA300092185B4150EA0107EDD12B
:1045900052EA030012D082EA040083EA05010843CC
:1045A00005D0101BAB4106D20122002306E00022F9
:1045B0004FF0004302E06FF0010253101AEB0600C7
:1045C0004CEB085110EB0A0041EB0B01BDE8F04D3C
:1045D00000F035B9C10F80EAE0700844CA0796239D
:1045E000002100F0FEB896230022114600F0F9B831
:1045F00020F00040C10DC0F3160040F400007F29F8
:1046000001DA00207047962903DCC1F19601C84009
:10461000704796398840704700F0004230F0004003
:104620000AD0C10D01F56071C0F3160042EA0151D4
:10463000C208400711437047002001467047000040
:1046400030B5041E71F1000404DB4FF00044404219
:1046500064EB0101141E73F1000405DB1C464FF0EE
:104660000043524263EB0403994208BF904230BDBD
:1046700001F0004330B421F0004150EA010206D0BD
:104680000A0DA2F56072C1F31301002A02DC30BCEE
:1046900000207047440F44EAC104C100E01830BC58
:1046A00000EBC25000F094B830B50B460146002034
:1046B0002022012409E021FA02F59D4205D303FAE4
:1046C00002F5491B04FA02F52844151EA2F1010265
:1046D000F1DC30BD2DE9F05F0546002092469B4697
:1046E00088460646814640241BE028464146474608
:1046F000224600F0E2F953465A46C01A914110D3BF
:1047000011461846224600F0C9F92D1A67EB010838
:104710004F4622460120002100F0C0F917EB0009A6
:104720004E41201EA4F10104DFDC484631462A46F2
:104730004346BDE8F09F0000014900F003B80000C7
:104740003410002010B500683C22B0FBF2F302FBED
:104750001303B0FBF2F00B60B0FBF2F302FB1303A8
:10476000B0FBF2F018224B60B0FBF2F302FB130334
:10477000B0FBF2F0021D8B600723B2FBF3F403FBE6
:104780001422800040F2B55300F66C308A61B0FB11
:10479000F3F2B0FBF3F403FB1400443280084A61E7
:1047A000C8613B2802D3920700D0401C0022074C6E
:1047B00013460A61E25C824203D8801A5B1C0B61DB
:1047C000F8E7401CC860084610BD00008EB900081C
:1047D0000029A8BF7047401C490008BF20F0010015
:1047E000704710B4B0FA80FC00FA0CF050EA0104F3
:1047F00004BF10BC704749B1CCF1200421FA04F485
:1048000011FA0CF118BF012121430843A3EB0C015D
:10481000CB1D4FEA00614FEA102042BF002010BCC0
:10482000704700EBC35010440029A4BF10BC704770
:10483000401C490008BF20F0010010BC704710B5B3
:10484000141E73F1000408DA401C41F100019218B3
:104850005B411A4301D120F0010010BD2DE9F04D5C
:1048600092469B4611B1B1FA81F202E0B0FA80F2B1
:104870002032904600F012F904460F4640EA0A0042
:1048800041EA0B0153465A46084313D0114653EAF6
:10489000010019D0C8F14002504600F00EF905465B
:1048A0000E4650465946424600F0F8F8084305D0F7
:1048B000012004E020463946BDE8F08D0020054384
:1048C00046EAE0762C4337430A986305E40AA0EBF6
:1048D00008000022FD0A44EA47540A3002D50020AD
:1048E0000146E9E7010510196941DDE908450019AC
:1048F0006941BDE8F04DA2E72DE9FE4F804681EA0F
:104900000300C00F0C46009021F0004123F0004549
:10491000B8EB0200A94105D24046214690461C460C
:104920000B46024623F00040104347D0270DC7F343
:104930000A00C3F30A510290401A019040286BDA32
:10494000C3F3130040F4801B0098924620B100236B
:10495000D2EB030A63EB0B0B01985946C0F14002FE
:10496000504600F09BF806460D4650465946019ABF
:1049700000F0B3F810EB08006141002487EA1152FF
:1049800084EAE7731A4340D0009A62B3019A012A7D
:104990004FEA075215DC001B61EB02014FF00042A9
:1049A00002EA0752CDE90042001C41F5801132466F
:1049B0002B46FFF753FF03B0BDE8F08F404621467A
:1049C000F9E7001B61EB0201001C41F580130018A0
:1049D0005B412018A2F5001747EB030140EAD570B0
:1049E000B6196D4111E06D084FEA360645EAC0750B
:1049F0004FEA0752001B61EB0201001C41F58011D8
:104A000049084FEA30000019514132462B4603B0A5
:104A1000BDE8F04FFFF713BF0098012240000023CC
:104A2000D0EB020263EBE073009821464FEAE0749A
:104A3000B8EB000061EB0401E9E783F000435BE7BA
:104A400081F0004158E7C1F30A52C1F3130140F26B
:104A5000FF3341F480119A4202DA00200146704788
:104A600040F233439A42A2F2334202DC524200F057
:104A700024B800F013B80000064C074D06E0E068CB
:104A800040F0010394E8070098471034AC42F6D395
:104A9000FFF73CFB30BA000850BA0008202A04DBBC
:104AA000203A00FA02F1002070479140C2F1200341
:104AB00020FA03F3194390407047202A04DB203A80
:104AC00021FA02F00021704721FA02F3D040C2F12E
:104AD00020029140084319467047202A06DBCB1775
:104AE000203A41FA02F043EAE07306E041FA02F3A9
:104AF000D040C2F12002914008431946704730B5BA
:104B00008C1810F8012B12F00F0301D110F8013BA3
:104B1000120906D110F8012B03E010F8015B01F82F
:104B2000015B5B1EF9D101E001F8013B521EFBD194
:104B3000A142E6D3002030BD38B502F021F830B3F1
:104B40000A201C49087102F025F800909DF8001019
:104B5000194802780078401C174B18701748815488
:104B60000121684601F070FD15A11448FFF770FBA4
:104B70000446F4B115A12046FFF76AFBC8B102F064
:104B8000E3FE00F0B3F900200A49087111E009487A
:104B900000790A280DD10E480088401C0C49088075
:104BA00008460088B0F5FA7F03DB00200880014941
:104BB000087138BD440A00205C020020D80A002099
:104BC0002B4E534F4E4D493A000000000D0A000095
:104BD000C603002010B500202549097806291EDAF1
:104BE0002449C978244AD279891A01EB4102214922
:104BF000083101EB82021E49097801EB41031C498F
:104C0000091D01EB8301D2E900349268C1E9003447
:104C10008A6017490978491C154A117026E000205E
:104C200010E000EB40021249091D01EB8202411C19
:104C300001EB41030E49091D01EB83041ACC1AC292
:104C4000411CC8B20528ECDB0A49C9780A4AD27966
:104C5000891A01EB41020749083101EB820204493C
:104C6000D2E900349268C1E910348A6410BD0000B2
:104C70005C06002010040020440A002010B500202B
:104C80000F490978002919DD00BF10E000EB400250
:104C90000B49091D01EB8202411C01EB410308494C
:104CA000091D01EB83041ACC1AC2411CC8B20628A4
:104CB000ECDB03490978491E014A117010BD000060
:104CC0005C060020014601F00F000A1102EB82028F
:104CD00000EB4200C0B2704700BFFEE730B50C46A3
:104CE000CD1701EB1575C5F30712CD1701EB15753F
:104CF0002D11A1EB0515EBB2092A03DC02F13004FA
:104D0000047002E002F137040470092B03DC03F1A4
:104D10003004447002E003F13704447030BD0146B2
:104D20000A2091FBF0F291FBF0F300FB131062F309
:104D30001F10C0B27047000010B50020002100BF56
:104D40000FE0094A525C02F00F04074A4B1CD25C88
:104D500064F31F12044B14331A548A1CD1B2421C40
:104D6000D0B20A28EDD310BD640A002010B5024667
:104D70000B460020002100BF03E0545C20444C1C83
:104D8000A1B29942F9DB10BD0348407910B9002067
:104D90000149887170470000440A002000B50F489F
:104DA000B0F85600B42806DB00200C49A1F85600E4
:104DB00001F0D0FF11E00A480088401C0849088033
:104DC0000846008842F21071884206DB0020044940
:104DD000088001F005F901F025FB00BD440A002020
:104DE000C403002010B500243A4890F84C0039491B
:104DF00091F84D10884208DD364890F84C0035494E
:104E000091F84D10401AC4B207E0324890F84D00B6
:104E1000304991F84C10401AC4B22F48807EA0420D
:104E200003DC01202D49087002E000202B490870A6
:104E30002B4800782949097888421DD027480078F6
:104E400088B12448407920F0100010302149487181
:104E500000208871234908702349087001F04EFC36
:104E600004F096F930E001201E4908701E480078D1
:104E7000401C1D49087027E01848007820BB1948DD
:104E8000007808B31448807E801EA04205DB1648D7
:104E90000078401C1449087002E000201249087094
:104EA0001148007806280FDB0A48407920F01000EE
:104EB00008494871002088710A4908700A49087039
:104EC00001F01CFC04F064F90448007804490870FF
:104ED00010BD0000440A0020B40A00205302002044
:104EE00052020020540200205502002010B5FF217C
:104EF0000348FFF7A2F900200249087010BD000026
:104F0000D80A00205C02002010B5044640F20531AA
:104F10000E4806F0CBFC0E480078401C0C49087087
:104F200040F20531094806F0CEFC0A4801780078C5
:104F3000401C084A10700848445410460078FF2866
:104F400002D100201146087010BD0000004800404A
:104F5000E9030020E8030020330F00200348007815
:104F6000002801DD012070470020FCE7E903002054
:104F700010B500241148007800281DDD1048017884
:104F80000078401C0E4A10700E48445C10460078B1
:104F9000FF2802D100201146087040F205310A486E
:104FA00006F084FC05480078401E0449087040F271
:104FB0000531054806F087FC204610BDE9030020B6
:104FC000E7030020330F00200048004010B5002404
:104FD000FFF7C4FF28B1FFF7CBFF0446204602F0DD
:104FE000EDFC10BD70B505460E46002400BF0CE078
:104FF000295D074806F0E9FB00BF0721044806F0D9
:1050000036FC0028F9D0601C84B2B442F0DB70BDDD
:105010000048004000B50A484078C0F3800070B1F5
:105020000748007908280AD00548407820F0040095
:1050300003494870022081F8540003F0D3F900BD01
:10504000440A002010B588B01C2208A101A8FFF76F
:10505000DBF8FFF74BFF01A8FFF70CF9C4B22146BC
:1050600001A801F093FE08B010BD000041542B4E82
:10507000534F43523D444752414D2C31372C313030
:105080003030312C310D0A000448807820F00800BF
:10509000024988700020087170470000440A00200F
:1050A0000348807820F00800083001498870704774
:1050B000440A002010B507488078C0F3C00040B112
:1050C0000448007918B103480079042801D102F09E
:1050D000ABFD10BD440A00202DE9FC5F01200190CA
:1050E0009C480078C0F3001000287CD099480078D4
:1050F000C0F380000028F8D09748007820B101283C
:105100000BD0022870D11CE0019800F07BFC924883
:105110000078401C9049087018E190480088401CB5
:105120008E4908800846008840F2EE21884207DB5D
:1051300000208A49088088480078401C8649087009
:1051400004E1002084490870019800F01DFC0198DA
:1051500000F0B4FACC2000F037FEBE2000F034FEA0
:1051600000F020FE064600F01DFE0446072C05DD7B
:10517000E043C4B2F043C6B2002500E00125A146D9
:105180004FEA09200FFA80F909EB06000FFA80F9BF
:105190004846FFF71FFA0090FFF73EFA0746002245
:1051A0006F4BFFF736F98246FFF762FA6D490860E8
:1051B0006848007820F0100066490870F5B1694829
:1051C0000068FFF715FA6430674981F84D006148BF
:1051D0004078C0F3400000282BD0102063490860BD
:1051E0006048006801E0B2E0ACE0FFF715FA07465E
:1051F0003A460B465EA004F001FD1AE059480068EB
:10520000FFF7F6F9C0F16400574981F84D005148A5
:105210004078C0F3400060B1102054490860514804
:105220000068FFF7F9F907463A460B4658A004F024
:10523000E5FC4C480068FFF7DBF9C1B25C48407EF2
:10524000814203DB00205B49087002E001205949DC
:1052500008705848007858490978884225D0554840
:105260000078C8B95548007860B93F48407920F0C7
:105270000400001D3C4948710020887101F03EFA8D
:1052800003F086FF374800684D49086000204D490B
:1052900008704A4908704EE001204A4908704748A2
:1052A0000078401C4549087045E04248007830BB12
:1052B0002C48016842480068FFF735F88246FFF73E
:1052C000ABF907460022404BFFF7BAF90ED93C482C
:1052D000016824480068FFF726F88246FFF79CF92A
:1052E00007460022384BFFF7ABF924D81D48006869
:1052F0003349086001F002FA03F04AFF1BE031482D
:105300000078C0B12D480078401C2C490870084630
:10531000007806280FDB1448407920F00400124979
:10532000487100208871274908702449087001F0ED
:10533000E5F903F02DFF1F4800781F490870FFF7BB
:1053400051FD03E000200449087000BF00BFBDE824
:10535000FC9F00000C0000204602002048020020B4
:105360000000B03F34020020440A00201008014031
:1053700045787465726E616C2074656D70657261DC
:10538000747572653A20252E31660D0A0000000002
:1053900045787465726E616C2074656D70657261BC
:1053A000747572653A202D252E31660D0A000000B5
:1053B000B40A00204B0200204A02002051020020C3
:1053C0004C02002050020020000014402DE9FC5F38
:1053D000002001909B480078C0F3C00000287CD0DA
:1053E00098480078C0F340000028F8D0964800782C
:1053F00020B101280BD0022870D11CE0019800F0E8
:1054000001FB91480078401C8F49087016E18F48D5
:105410000088401C8D4908800846008840F2EE2133
:10542000884207DB00208949088087480078401CB3
:105430008549087002E1002083490870019800F056
:10544000A3FA019800F03AF9CC2000F0F3FABE205C
:1054500000F0F0FA00F086FA064600F083FA0446FF
:10546000072C05DDE043C4B2F043C6B2002500E0DE
:105470000125A1464FEA09200FFA80F909EB060041
:105480000FFA80F94846FFF7A5F80090FFF7C4F837
:10549000074600226E4BFEF7BCFF8246FFF7E8F896
:1054A0006C4908606748007820F00800654908707A
:1054B000F5B168480068FFF79BF86430664981F8E9
:1054C0004C0060484078C0F3400000282BD01020EA
:1054D000624908605F48006801E0B0E0AAE0FFF7B9
:1054E0009BF807463A460B465DA004F087FB1AE09E
:1054F00058480068FFF77CF8C0F16400564981F80D
:105500004C0050484078C0F3400060B1102053492F
:10551000086050480068FFF77FF807463A460B4698
:1055200057A004F06BFB4B480068FFF761F8C1B26D
:105530005B48407E814203DB00205A49087002E04C
:10554000012058490870574800785749097888421F
:1055500025D054480078C8B95448007860B93E480E
:10556000407920F0080008303B49487100208871DC
:1055700001F0C4F803F00CFE364800684C4908609E
:1055800000204C490870494908704EE00120494903
:10559000087046480078401C4449087045E041487E
:1055A000007830BB2B48016841480068FEF7BBFE1D
:1055B0008246FFF731F8074600223F4BFFF740F8DD
:1055C0000ED93B48016823480068FEF7ACFE8246CE
:1055D000FFF722F807460022374BFFF731F824D8AF
:1055E0001C4800683249086001F088F803F0D0FDDB
:1055F0001BE030480078C0B12C480078401C2B4993
:1056000008700846007806280FDB1348407920F020
:105610000800114948710020887126490870234903
:10562000087001F06BF803F0B3FD1E4800781E49C6
:10563000087003E000200449087000BF00BFBDE807
:10564000FC9F00000C000020380200203A020020DD
:105650000000B03F34020020440A0020100801403E
:10566000496E7465726E616C2074656D70657261EF
:10567000747572653A20252E31660D0A000000000F
:10568000496E7465726E616C2074656D70657261CF
:10569000747572653A202D252E31660D0A000000C2
:1056A000B40A00203D0200203C02002045020020F8
:1056B00040020020440200200000144070B505465E
:1056C0000024002D31D13448006820F07060324948
:1056D00008600846006840F00060086004E0601C54
:1056E000C4B2012004F034FF40212B4805F03EFAFB
:1056F000012801D1C82CF2DBC82C01DB012070BDD0
:10570000002404E0601CC4B2012004F021FF402109
:10571000214805F02BFA012801D0F02CF2DBF02C07
:1057200001DB0120EBE70020E9E71B48001D0068D2
:1057300020F00F001849091D08600846006840F075
:105740000800086004E0601CC4B2012004F000FFFF
:105750004FF48071104805F009FA012801D1C82CD6
:10576000F1DBC82C01DB0120C9E7002404E0601C48
:10577000C4B2012004F0ECFE4FF48071064805F03D
:10578000F5F9012801D0F02CF1DBF02C01DB012030
:10579000B5E70020B3E700000008014010B540F273
:1057A000026005F083FD402303221021324805F0FA
:1057B00087F94FF48073032210212F4805F080F9F8
:1057C00040202D491031086080000860002000F062
:1057D000DBF80020FFF772FF98B92848007820F026
:1057E0000200801C2549087008464078C0F340003C
:1057F000C8B1102020491031086021A004F0FEF942
:1058000011E01E48007820F002001C49087008468C
:105810004078C0F3400030B11020174910310860C3
:105820001EA004F0EBF9012000F0AEF80120FFF714
:1058300045FF98B91148007820F00400001D0F4979
:10584000087008464078C0F34000A0B110200A4913
:105850001031086019A004F0D1F90CE00748007875
:1058600020F0040005490870102003491031086039
:1058700019A004F0C3F910BD000801400C0000207D
:10588000496E7465726E616C204453313842323017
:105890002046494E44210D0A00000000496E7465FF
:1058A000726E616C2044533138423230206E6F7416
:1058B0002046494E44210D0A0000000045787465D9
:1058C000726E616C20445331384232302046494E6A
:1058D00044210D0A0000000045787465726E616C09
:1058E0002044533138423230206E6F742046494E86
:1058F00044210D0A0000000010B51948006820F08E
:105900007060174908600846006840F04070086001
:105910004020134914310860022004F019FE402091
:105920000F49103108600E48006820F070600C4983
:1059300008600846006840F0006008600C2004F031
:1059400007FE4021064805F011F9012801D1012484
:1059500000E00024322004F0FBFD204610BD0000D2
:105960000008014070B50026012508E0FFF7C4FFDC
:105970000446E00140EA6600C6B2681CC5B2082DC4
:10598000F4DD304670BD000010B50446D4B91C48A3
:10599000006820F070601A4908600846006840F00E
:1059A00040700860402016491431086040F2EE2033
:1059B00004F0CEFD40201249103108600F2004F0A1
:1059C000C7FD1CE00E48001D006820F00F000C49C8
:1059D000091D08600846006840F00300086088154B
:1059E00007491431086040F2EE2004F0B1FD4FF495
:1059F00080700349103108600F2004F0A9FD10BD2C
:105A00000008014010B504462046FFF7BDFF2046C0
:105A1000FFF754FE34B9CC2000F00CF8442000F01D
:105A200009F805E0CC2000F0CFF9442000F0CCF9D3
:105A300010BD000070B504461948006820F0706081
:105A4000174908600846006840F04070086001256A
:105A500022E004F00106641076B1402010491431B0
:105A60000860022004F074FD40200D4910310860E8
:105A70003C2004F06DFD0DE0402009491431086020
:105A80003C2004F065FD40200549103108600220EB
:105A900004F05EFD681CC5B2082DDADD70BD0000A3
:105AA000000801407047000010B54021084804F08C
:105AB000B7FF1F2005F034FCA02005F031FC0020CA
:105AC00005F02EFC4021024804F0ACFF10BD0000A0
:105AD000000C014010B54FF4805004F0CDFDB0B182
:105AE0004FF4805004F0C2FD2D48007878B92D485D
:105AF0000078C0F3401050B12948007820F0010030
:105B0000401C274908700020486002F0D7FF4FF47E
:105B1000004004F0B1FDB0B14FF4004004F0A6FD28
:105B20001F48007878B91F480078C0F3801050B142
:105B30001B48007820F00200801C194908700020E2
:105B4000486002F0BBFF4FF4804004F095FDC8B1FF
:105B50004FF4804004F08AFD11480078C0F38000C3
:105B600080B90F48007868B10D48007820F008002F
:105B70000B4908700846007820F00400001D0870EA
:105B800002F094FF4FF4005004F076FD38B14FF46A
:105B9000005004F06BFD0120034981F84E0010BD58
:105BA000100000200C000020440A002010B503F073
:105BB00051FF40210A4804F033FFD82005F0B0FB24
:105BC000002005F0ADFB002005F0AAFB802005F0C9
:105BD000A7FB4021024804F025FF03F0D5FE10BDCD
:105BE000000C014010B51A4C1A48C078D8B90021F1
:105BF000084601F099FF052004F07AFC72B64FF0D8
:105C00005A30206000BFBFF34F8F1348006800F484
:105C1000E06012490843001D0F490860BFF34F8F31
:105C200000BF00BFFEE700200D4908600D49088055
:105C3000FFF7BCFF002204210648001D03F038FFD7
:105C4000802003F017FF0021084601F06DFF10BD12
:105C5000FC4F00209A0900200CED00E00000FA053E
:105C60002C0200203002002010B50021084601F06F
:105C70005BFF10BD10B50021084601F055FF10BDB7
:105C800010B54FF4805303220421294804F018FF73
:105C90000C21012004F0C8FE01220021100304F0B1
:105CA00087FC4FF4805004F0E1FC4FF400430322E2
:105CB00004211F4804F004FF0F21012004F0B4FE6A
:105CC00001220021D00304F073FC4FF4004004F0E3
:105CD000CDFC4FF4804303220421154804F0F0FE6C
:105CE0000E21012004F0A0FE02220021500304F046
:105CF0005FFC4FF4804004F0B9FC4FF400530322E2
:105D000004210B4804F0DCFE0D21012004F08CFE80
:105D100001220021500304F04BFC4FF4005004F02A
:105D2000A5FC00220121282005F0C4F910BD0000C7
:105D3000000C014010B51A48006820F00F00184907
:105D400008600846006840F00300086088151449A0
:105D500010310860022004F0FBFB4FF48070104902
:105D60000C3108600E48006820F00F000C490860F4
:105D70000846006840F0080008600C2004F0E8FBCA
:105D80004FF480710648001F04F0F0FE012801D195
:105D9000012400E00024322004F0DAFB204610BD8C
:105DA0000408014070B50026012508E0FFF7C2FF96
:105DB0000446E00140EA6600C6B2681CC5B2082D80
:105DC000F4DD304670BD000070B504461B48006825
:105DD00020F00F00194908600846006840F00300F1
:105DE0000860012526E004F00106641086B14FF436
:105DF0008070124910310860022004F0A9FB4FF4B2
:105E000080700E490C3108603C2004F0A1FB0FE0CB
:105E10004FF480700949103108603C2004F098FB71
:105E20004FF4807005490C310860022004F090FBAB
:105E3000681CC5B2082DD6DD70BD00000408014005
:105E400010B5ADF51C7D00244FF41372414909A82B
:105E5000FEF7DAF94FF4127109A8FEF787FF04463E
:105E60009B98A04223D19DF82600032818D04FF418
:105E700013713948FEF7E1F945F65A203649088092
:105E8000032088700020C87008714FF412713248E6
:105E9000FEF76CFF3049C1F8480203F081FE1EE0B6
:105EA0004FF4137209A92C48FEF7AEF917E04FF42E
:105EB00013712948FEF7C1F945F65A202649088092
:105EC000032088700020C87008714FF412712248B6
:105ED000FEF74CFF2049C1F8480203F061FE1E485E
:105EE00000791E49C87124221D496846FEF78CF9C5
:105EF00020216846FEF73AFF04460898A04210D1D8
:105F0000242269461748FEF77FF9164800681349AE
:105F1000486418221349091D10485830FEF774F9D7
:105F200015E00E48406C0F49086018220B495831A3
:105F30000C48001DFEF768F901200A490877202166
:105F40000848FEF713FF0749086203F0FBFD0DF553
:105F50001C7D10BD00F8000810040020440A002039
:105F600000FC0008B40A002008B5002000900121C0
:105F7000684601F0D9FD08BD3EB507A207CA8DE805
:105F80000700FEF7B3FF6846FEF774F9C4B2214676
:105F9000684600F0FBFE3EBD41542B43474154543C
:105FA0003F0D0A000448807820F0200002498870E4
:105FB0000020087170470000440A002010B507480F
:105FC0008078C0F3401040B10448007918B103480C
:105FD0000079062801D101F06BFE10BD440A0020B3
:105FE0000348807820F020002030014988707047F5
:105FF000440A00203EB507A207CA8DE80700FEF755
:1060000075FF6846FEF736F9C4B22146684600F0CF
:10601000BDFE3EBD41542B4E434349443F0D0A0053
:106020000448807820F0040002498870002008713C
:1060300070470000440A00200348807820F00400E4
:10604000001D014988707047440A002010B50748B8
:106050008078C0F3800040B10448007918B103484B
:106060000079032801D101F05FFE10BD440A002031
:1060700010B502460B460021002000BF04E0545C2E
:106080000444E0B24C1CE1B29942F8DB10BD0000C0
:1060900010B50221094804F069FD30B10848407884
:1060A00020F002000649487006E00548407820F0DC
:1060B0000200801C0249487010BD00000008014029
:1060C0000C000020F8B54FF480514C4804F04EFD10
:1060D00004464FF40041494804F048FD05464FF49A
:1060E0008041464804F042FD07464FF400514348C2
:1060F00004F03CFD06464248007884421ED1012C43
:1061000012D140480088401C3E490880084600885B
:106110000A281EDB0A2008803B48007820F0200077
:1061200020303949087014E000203649088036488C
:10613000007820F02000344908700AE030480470EC
:106140000020304908803048007820F020002E4997
:1061500008702E48007885421ED1012D12D12C489E
:106160000088401C2A490880084600880A281EDB4F
:106170000A2008802448007820F04000403022495E
:10618000087014E00020224908801F48007820F0A1
:1061900040001D4908700AE01C48057000201C4999
:1061A00008801948007820F0400017490870194805
:1061B0000088401C174908800846008841F2883151
:1061C000884219DB0020134908800F484078C0F34B
:1061D000400088B11020104908603B462A462146FD
:1061E0000EA0009603F00AFD10200B4908604A46F5
:1061F000414617A003F002FDF8BD0000000C01406D
:10620000F0030020EC0300200C000020F10300202C
:10621000EE030020EA03002010080140457869746D
:10622000206368616E6E656C2076616C3A20543133
:106230002D3E25642C2054322D3E25642C205433D1
:106240002D3E25642C2054342D3E2564200D0A005B
:106250004D6F64652076616C3A2025642564200DBD
:106260000A0000003EB507A207CA8DE80700FEF746
:106270003DFE6846FDF7FEFFC4B22146684600F0C9
:1062800085FD3EBD41542B4347534E3D310D0A0021
:106290000448807820F002000249887000200871CC
:1062A00070470000440A00200348807820F0020074
:1062B000801C014988707047440A002010B50748C7
:1062C0008078C0F3400040B10448007918B1034819
:1062D0000079022801D101F06BFD10BD440A0020B5
:1062E0001FB507A30FCB8DE80F00FEF7FFFD684633
:1062F000FDF7C0FFC4B22146684600F047FD1FBD50
:1063000041542B434750414444523D300D0A000054
:106310000448C07820F002010248C1700020014901
:1063200008717047440A00200348C07820F002003A
:10633000801C0149C8707047440A002010B5074806
:10634000C078C0F3400040B10448007918B1034858
:1063500000790B2801D101F081FD10BD440A002015
:106360001FB507A30FCB8DE80F00FEF7BFFD6846F2
:10637000FDF780FFC4B22146684600F007FD1FBD4F
:1063800041542B4E554553544154530D0A000000BF
:106390000448807820F010000249887000200871BD
:1063A00070470000440A00200348807820F0100065
:1063B0001030014988707047440A002010B5074822
:1063C0008078C0F3001040B10448007918B1034848
:1063D0000079052801D101F085FD10BD440A002097
:1063E0003EB507A207CA8DE80700FEF77FFD6846A5
:1063F000FDF740FFC4B22146684600F0C7FC3EBD31
:1064000041542B4353510D0A00000000044880788A
:1064100020F0400002498870002008717047000099
:10642000440A00200348807820F0400040300149B1
:1064300088707047440A002010B507488078C0F380
:10644000801040B10448007918B10348007907284A
:1064500001D101F08BFD10BD440A00200EB5274884
:106460000068401C25490860084600684FF47A71AE
:10647000B0FBF1F201FB1200F0B900F03FF9204847
:10648000806C1F49496C411A1D4890F86C00C0EBA4
:1064900000108000C0EB00108000B1FBF0F200FBA8
:1064A000121048B91648806C1549496C401A03D03F
:1064B00000F024F902F06CFE1048006842F21071FE
:1064C00088421AD300200D4908600E484078C0F376
:1064D000400090B110200C4908600C48007A0B492C
:1064E000C9790A4A9279CDE9002102900748437997
:1064F0000279016806A003F081FB0EBD580200205E
:10650000440A00200C00002010080140380A002036
:106510005254432054696D652069733A2025642FD5
:1065200025642F25642025643A25643A25640D0AE4
:106530000000000010B5102303221946124804F091
:10654000BFFA4FF40043032210210F4804F0B8FAB9
:106550000223032210210D4804F0B2FA0123032282
:106560000421094804F0ACFA02230322042106485E
:1065700004F0A6FA022005491031086010200249F3
:106580001031086010BD000000080140000C0140FF
:1065900000BFFEE710B50446262004F07FFD0D483D
:1065A0000078401C0B49087003220121262004F0CA
:1065B00081FD094801780078401C074A107007489F
:1065C000445410460078FF2802D10020114608707C
:1065D00010BD0000E3030020E2030020350D002081
:1065E00003480078002801DD012070470020FCE707
:1065F000E303002010B500241048007800281BDDBC
:106600000F4801780078401C0D4A10700D48445C1A
:1066100010460078FF2802D100201146087026207D
:1066200004F03CFD05480078401E04490870032230
:106630000121262004F03EFD204610BDE30300208A
:10664000E1030020350D002070B505460E460024FC
:1066500000BF0FE0102009490860295D084805F0D7
:10666000B4F800BF0721064805F001F90028F9D069
:10667000601CC4B2B442EDDB70BD000010080140E4
:106680000044004010B54FF44073032218210B481A
:1066900004F016FA0121022004F070FA00220849E1
:1066A000084804F0BFFADE2300221146054804F032
:1066B00064FB044804F02FFB10BD0000000C0140F7
:1066C000801A06000054004010B50020002100BFD1
:1066D0000FE0094A525C02F00F04074A4B1CD25CDF
:1066E00064F31F12044B10331A548A1CD1B2421C9B
:1066F000D0B20828EDD310BD4C0A002010B5002000
:1067000000F050F80446FEF7DDFA1A49087201203D
:1067100000F048F80446FEF7D5FA1649C871022081
:1067200000F040F800F07F042046FEF7CBFA114954
:106730008871032000F036F80446FEF7C3FA0D49CD
:106740004871042000F02EF80446FEF7BBFA094910
:106750000871052000F026F80446FEF7B3FA00F5AC
:10676000FA6004490860084607C802F065FF02495C
:10677000886410BD380A0020440A002010B50720A4
:1067800000F010F8902807D09021072000F07EF844
:10679000034807C801F00CFAFFF7B0FF10BD000076
:1067A000380A002070B50446374804F0F4FA00BFF8
:1067B0004FF4A061344804F0C7FA0028F8D06FF015
:1067C0000102DE21304804F0CEFA00BF40F2015150
:1067D0002D4804F0B9FA0028F8D040F201512A48B7
:1067E00004F09EFA00BF40F20751274804F0ACFACB
:1067F0000028F8D02146244804F08AFA00BF40F26D
:106800000751214804F0A0FA0028F8D01E4804F0EF
:10681000C2FA00BF4FF4A0611B4804F095FA0028AB
:10682000F8D00122DE21184804F09DFA00BF40F2A2
:106830000151154804F088FA0028F8D040F20151BF
:10684000114804F06DFA00210F4804F0DFF900BF91
:1068500040F206510C4804F077FA0028F8D00A48B4
:1068600004F052FA0546084804F09AFA00BF0648B8
:10687000006800F400700028F9D10121024804F0FA
:10688000C5F9284670BD00000054004070B50446AC
:106890000D46244804F07FFA00BF4FF4A061214860
:1068A00004F052FA0028F8D06FF00102DE211D48F2
:1068B00004F059FA00BF40F201511A4804F044FABA
:1068C0000028F8D040F20151164804F029FA00BF20
:1068D00040F20751134804F037FA0028F8D0214657
:1068E000104804F015FA00BF40F207510D4804F0BB
:1068F0002BFA0028F8D029460A4804F009FA00BF0C
:1069000040F20751074804F01FFA0028F8D0054864
:1069100004F046FA00BF0348006800F40070002845
:10692000F9D170BD0054004010B572B64FF48041EB
:10693000480304F01FFC62B604F0DCFD00F0CEFD5D
:1069400004F09CFB02F0BAFFFFF77AFAFFF7F2FDC2
:1069500002F01EFF10200C4908600C4B0CA20FA186
:1069600011A003F04BF902F0E3FD02F0AFF8FFF7DE
:1069700087F9FFF787FEFFF701FFFEF70FFF00F033
:106980007FF803F02BF810BD10080140180000201C
:1069900031303A32383A3139000000004F63742008
:1069A00020362032303233004275696C64205469DD
:1069B0006D653A2025732025730D0A56657273693B
:1069C0006F6E3A2025730D0A4950202620506F72B1
:1069D000743A31302E332E3232362E3139342C394E
:1069E0003030340D0A00000000BFFEE710B500246F
:1069F000FFF7F6FD28B1FFF7FDFD0446204604F041
:106A000095FA10BD70B504460D4629462046FFF79D
:106A10001BFE70BD002002490870488070470000CE
:106A20001E000020012002490870002048807047A5
:106A30001E00002070B502460B464FF6FF70002185
:106A400000BF09E0C4B2555C6540054E36F81550EC
:106A500085EA10204D1CA9B29942F3DB70BD0000FD
:106A60002200002010B5FEF799F901F0D7FC01F0E3
:106A700071FBFEF7CFFA00F061F810BD704700001F
:106A800070B50024002502F027FB00F079FF0446D2
:106A900042F62440844206D110200849086008A02C
:106AA00003F0ACF805E010200449086009A003F0E9
:106AB000A5F8FEF7F9FFFFF779F870BD100801405F
:106AC000466C617368204944206973207269676865
:106AD00074210000466C617368204944206973206A
:106AE00077726F6E6721000010B5044640F20531E1
:106AF0000E4804F0DBFE0E480078401C0C4908707C
:106B000040F20531094804F0DEFE0A4801780078B9
:106B1000401C084A10700848445410460078FF286A
:106B200002D100201146087010BD0000003801405D
:106B3000E6030020E5030020340E002010B50024F9
:106B40000D48408818B10C4800790A2802D1FDF799
:106B5000F3FF0FE000240BE00120A0400649498824
:106B6000084018B1054951F824008047601CC4B2A0
:106B70000A2CF1DB10BD0000440A00206003002055
:106B800003480078002801DD012070470020FCE761
:106B9000E603002010B500241148007800281DDD10
:106BA000104801780078401C0E4A10700E48445C72
:106BB00010460078FF2802D100201146087040F2EC
:106BC00005310A4804F072FE05480078401E044969
:106BD000087040F20531054804F075FE204610BDEE
:106BE000E6030020E4030020340E002000380140BA
:106BF00070B5002500240DA10F48FDF729FB0446C0
:106C000034B10EA12046FDF723FB08B100F09CFE35
:106C10000BA10948FDF71CFB00B101250AA106489C
:106C2000FDF716FB00B10225284670BD2B4E534FD1
:106C30004E4D493A00000000D80A00200D0A00001D
:106C40004F4B0D0A000000004552524F520D0A00F2
:106C500010B534480088401C324908800846008836
:106C600001280AD1304908710846007820F0100048
:106C7000087002202D49086053E02A480088322815
:106C800004D102202949091D08604AE025480088EE
:106C9000B0F5AF7F03D102202449086041E02148CC
:106CA0000088B0F5AF7F3CDD00F000FF20A1224856
:106CB000FDF7CEFA60B300201A49088000F03EF8D4
:106CC00019480078C0F3400008B9FFF7EDFA1648FC
:106CD0000078C0F3800008B9FFF7AEF91248407899
:106CE00020F00200104948700846007820F040006B
:106CF0000870002081F841000846007820F010005C
:106D000008700846007820F008000870FEF7C8F9FF
:106D10000448008842F66E01884202DB00200149E7
:106D2000088010BDC0030020440A0020100C014060
:106D30004F4B0D0A00000000D80A0020044880785C
:106D400020F001000249887000200871704700009F
:106D5000440A00200348807820F00100401C0149CB
:106D600088707047440A002010B50748807800F00A
:106D7000010040B104480079012802D0024800799E
:106D800008B9FFF765FF10BD440A002070B505463D
:106D90000E46002400BF0CE0295D094804F015FDF3
:106DA00000BF0721064804F062FD0028F9D0601CEE
:106DB000C4B2B442F0DB31462846FFF745FC70BD53
:106DC0000038014010B50F484078072817D2DFE897
:106DD00000F01604070A0D101300FFF7C5F80FE0C6
:106DE000FEF742FF0CE002F003FE09E000F0A6FB14
:106DF00006E0FEF73FFF03E0FEF7F4FE00E000BF11
:106E000000BF10BD9A09002010B500200A49087083
:106E1000012048700020887096210748C01CFDF7AB
:106E20000CFA0020044981F89900A1F89A0003495E
:106E30000870488010BD00009A0900202802002038
:106E40000120024908700020488070472802002075
:106E50000020024908704880704700002802002086
:106E600070B50025002421480088401C1F49088077
:106E700000F01CFE1EA12048FDF7EAF908B300BF90
:106E80000FE01D48005D302809DB1B48005D3928F4
:106E900005DC1948005D194981F8420005E0601CD5
:106EA000C4B2174800788442EBDB00BF1348007877
:106EB00020F010001030114908700125FEF7E4F8A9
:106EC00008E010A10C48FDF7C3F918B100200749EC
:106ED0000880022505480088B0F57A7F03DB002092
:106EE000024908800325284670BD0000A803002041
:106EF0004F4B0D0A00000000D80A0020440A002071
:106F00005C0200204552524F520D0A0070B5002617
:106F10000025002424480088401C2349088000F0F4
:106F2000C5FDFFF765FE0546012D2BD100BF10E022
:106F30001E48005D30280ADB1C48005D312806DC55
:106F40001A48005D30381A4981F8410005E0601C9C
:106F5000C4B2184800788442EADB00BF144890F8B5
:106F6000410020B100201249A1F8560006E0104867
:106F7000B0F85600401C0E49A1F856000126FFF754
:106F800011F805E0022D03D10020074908800226F0
:106F900005480088B0F57A7F03DB002002490880AD
:106FA0000326304670BD00009E030020D80A002052
:106FB000440A00205C02002070B50025002424480B
:106FC0000088401C2249088000F070FD21A1234860
:106FD000FDF73EF940B300201D49088020480078A5
:106FE00020F00400001D1E49087000BF0AE01B4885
:106FF000005D302804DB1948005D392800DC05E01D
:10700000601CC4B2174800788442F0DB00BF13480C
:107010000119142212482030FDF7F6F8FDF78CFE16
:107020000125FEF7FDFF08E00FA10C48FDF710F960
:1070300018B1002006490880022505480088B0F5EF
:107040007A7F03DB0020024908800325284670BDB3
:10705000940300204F4B0D0A00000000D80A0020C6
:10706000440A00205C0200204552524F520D0A0093
:1070700070B50025002426480088401C244908805B
:1070800000F014FD23A12548FDF7E2F858B30020D5
:107090001F4908802248007820F00200801C204907
:1070A000087000BF0AE01D48005D302804DB1B4863
:1070B000005D392800DC05E0601CC4B21948007886
:1070C0008442F0DB00BF30201549087213480119D3
:1070D0000F2213480930FDF797F8FFF7F5FA01255D
:1070E000FFF7D6F808E010A10C48FDF7B1F818B189
:1070F000002007490880022505480088B0F57A7FFE
:1071000003DB0020024908800325284670BD0000EB
:107110008E0300204F4B0D0A00000000D80A00200B
:10712000440A00205C0200204552524F520D0A00D2
:1071300010B5002415480088401C1449088000F050
:10714000B5FC13A11448FDF783F850B113484078FB
:1071500020F008000830114948700124FFF7D8F8E2
:1071600008E00FA10C48FDF773F818B1002007499B
:107170000880022405480088B0F57A7F03DB0020F0
:10718000024908800324204610BD0000BE030020F1
:107190004F4B0D0A00000000D80A0020440A0020CE
:1071A0004552524F520D0A00F8B500260024002027
:1071B000009039480088401C3749088000F076FC70
:1071C00036A13848FDF744F8002850D036A135489C
:1071D000FDF73EF80546002D45D000BF06E0201D16
:1071E000285C0D2800D106E0601CC4B22846FDF7DB
:1071F00041F8A042F3D800BF2246291D6846FDF79A
:1072000003F8012C05D19DF8000030382849C887C3
:1072100022E0022C0CD19DF8010030389DF80010BE
:10722000303901EB810100EB41002149C88713E0AF
:10723000032C11D19DF800003038642148439DF89B
:107240000110303901EB810100EB41019DF8020092
:10725000303808441649C8871548007820F00800DF
:107260000830134908700126FFF792F808E011A1D1
:107270000C48FCF7EDFF18B10020074908800226F2
:1072800005480088B0F57A7F03DB002002490880BA
:1072900003263046F8BD00009A0300204F4B0D0A2C
:1072A00000000000D80A00205043493A00000000C6
:1072B000440A00204552524F520D0A002DE9F04178
:1072C000002700260024002537480088401C364946
:1072D000088000F0EBFBFFF78BFC0646012E51D136
:1072E00000BF06E03148005D3A2800D105E0601C8F
:1072F000C4B22F4800788442F4DB00BF601CC4B2E3
:10730000254606E02948405D2C2800D105E0681C90
:10731000C5B2274800788542F4DB00BF281B01284E
:1073200006D12248005D3038224981F840000FE044
:10733000281B02280CD11D49601C085C3038095DEF
:10734000303901EB810100EB41001A4981F840001E
:10735000184890F8410030B116480078C0F3C000DA
:1073600008B9FFF721F8134890F8410030B11148EF
:107370004078C0F3C00008B9FEF7D6FF0127FFF739
:1073800045F805E0022E03D10020074908800227B6
:1073900005480088B0F57A7F03DB002002490880A9
:1073A00003273846BDE8F081A2030020D80A002058
:1073B0005C020020440A00202DE9F041002700264D
:1073C000002400252C480088401C2B49088000F030
:1073D0006DFBFFF70DFC0646012E39D100BF11E011
:1073E0002648005D2C280BD125480078401C2449F4
:1073F000087008460078042802D10020087005E0D3
:10740000601CC4B21F4800788442E9DB00BF601CE6
:10741000C4B2254606E01948405D2C2800D105E09D
:10742000681CC5B2174800788542F4DB00BF281BF2
:1074300000EBD071C1F34701134A11700F490819CD
:107440001146097800F09CF8012700F071FA05E078
:10745000022E03D100200849088002270648008830
:1074600042F21071884203DB0020034908800327A1
:107470003846BDE8F0810000B8030020D80A00209B
:10748000BA0300205C0200205D03002070B50025D7
:10749000002410480088401C0E49088000F006FBBC
:1074A000FFF7A6FB0446012C03D1012500F08EFF57
:1074B00005E0022C03D1002006490880022505487A
:1074C0000088B0F57A7F03DB00200249088003259D
:1074D000284670BDB00300207047000010B54FF47F
:1074E000C06003F0E3FE40F2036003F0DFFE40F211
:1074F000026003F0DBFE40F20E6003F0D7FE40F2C4
:10750000117003F0D3FE40F2127003F0CFFE0121A0
:10751000022003F033FB40F2157003F0C7FE012197
:10752000054803F02BFB0121084603F027FB40F23E
:107530000C6003F0BBFE10BD00023000704700007D
:1075400000B585B0142208A16846FCF75DFE0B4823
:1075500090F842008DF80900FDF7C8FC112168463B
:10756000FFF714FC05B000BD41542B4E534F52465B
:107570003D302C3130300D0A00000000440A00205C
:107580002DE9FF4705460E4600240027A046A146E8
:107590000020DF49087036E0285D3A2803DA285DCC
:1075A0003038C7B209E0285D472803DA285D37384C
:1075B000C7B202E0285D5738C7B2601CC4B2285D6C
:1075C0003A2804DA285D303800F0FF080BE0285D27
:1075D000472804DA285D373800F0FF0803E0285D0B
:1075E000573800F0FF08601CC4B207F00F01404696
:1075F00061F31F10C749C64A12788854C4480078FE
:10760000401CC3490870C2480078B042C4DBC0487F
:107610000078401EC1B2BF48FEF72AFD8146BC4833
:107620000078401EBB49085C484532D10846807A44
:1076300081282FD1B848007820F02000B649087082
:107640000846407820F00200801C4870B148C07C99
:1076500088640846806CAF49097D00EB0120AE4983
:1076600088640846806CAB49497D00EB0140AA491B
:1076700088640846806CA749897D00EB0160A649B3
:107680008864886CA54902F0D1F8A44807C800F0C6
:107690008FFA3BE19F48807A02287DD19D48807C0B
:1076A0009D49A1F858000846B0F858009949C97C8E
:1076B00000EB01209849A1F858009648017D9648B2
:1076C000A0F85A10B0F85A009249497D00EB012009
:1076D00081B29148A0F85A108E48817D8E4880F87A
:1076E0006C108C48C17D8C48C165C06D8949097E8C
:1076F00000EB01218848C165C06D8649497E00EBD9
:1077000001418548C165C06D8249897E00EB0161F8
:107710008148C1657F48C17E7F480166006E7D4912
:10772000097F00EB01217C480166006E7949497FA1
:1077300000EB014178480166006E7649897F00EBD5
:107740000161754801667348C17F73484166406EA8
:10775000704991F8201000EB01216F484166406E9E
:107760006C4991F8211000EB01416B484166406E75
:10777000684991F8221000EB01616748416665484D
:1077800090F8231064488166806E624991F8241055
:1077900000EB0121604800E055E08166806E5D49A4
:1077A00091F8251000EB01415B488166806E5949D4
:1077B00091F8261000EB016157488166554890F812
:1077C00027006438C1B2544880F86D10514890F8D1
:1077D0002910514880F86E10504807C801F02CFF5E
:1077E0004D49B1F85A10C1EB011100EB81004A4933
:1077F00048640846407820F00400001D487001F0FD
:10780000ADFC47484078C0F3400000287ED01020EF
:1078100044490860404890F86E003F4991F86D1067
:107820003D4A126E3C4BDB6DCDE90032CDE90210D2
:10783000394890F86C30B0F85A20B0F858103A48EF
:1078400002F0DCF962E03348807A83285ED1324866
:10785000C079002812DD3048C079401E2E49C87119
:107860000846C079314908714FF412712F48FDF76D
:107870007DFA2E49C1F8480202F092F92648407973
:1078800010B10120244988712348007820F080003D
:10789000214908702248407820F00100401C20490E
:1078A000487008460078C00930B10846007820F0DA
:1078B00080000870FDF7E2F90020174981F84E00BA
:1078C00081F84F0008651348C07C88640846806CC6
:1078D0001049097D00EB01200F4988640846806C3F
:1078E0000C49497D00EB01400B4988640846806CD7
:1078F0000849897D00EB016007498864886C074965
:1079000001F094FF054807C800F052F9BDE8FF8771
:107910005D030020D70B0020440A0020380A002015
:107920000C000020100801409CB900081004002041
:107930000448C07820F001010248C17000200149CC
:1079400008717047440A00200348C07820F0010005
:10795000401C0149C8707047440A002010B5074810
:10796000C07800F0010040B10448007918B1034824
:107970000079092801D100F02FFB10BD440A002036
:1079800070B500240025002640210B4803F048F87C
:107990009F2003F0C5FCA52003F0C2FC03F0BBFC54
:1079A000054603F0B8FC06464021034803F03AF8C8
:1079B00046EA0524204670BD000C014010B504467F
:1079C000FFF73EFA37480078072865D2DFE800F075
:1079D000040E1A2B46505A0000203249887081F854
:1079E00099005A2C01D10120087059E0062C05DCC1
:1079F0002C48447002202B49087002E000202949DD
:107A000008704DE027488470E01E2749087008463A
:107A10000078002803DD03202249087002E00420DA
:107A2000204908703CE020480078002815DD1D48FA
:107A300090F8991090F89900401C1A4A82F8990021
:107A4000D01C445418480078401E17490870084656
:107A5000007810B904201146087021E0FF2C03D1F2
:107A600005201049087002E000200E49087017E058
:107A7000FF2C03D106200B49087002E000200949C1
:107A800008700DE05B2C03D1FFF79CF9FFF7E0F9DC
:107A900000200449087003E000200249087000BF7C
:107AA00000BF10BD9A0900203202002008B5FFF780
:107AB00067F880B1FFF76EF800909DF80010064857
:107AC00002780078401C044B18700448815401214E
:107AD0006846FEF7B9FD08BD5C020020D80A002008
:107AE000F0B503460C460020002165062F0E064621
:107AF000401C975500BF12E05D180A4E36F815502D
:107B00002F120546461CB0B257555D18054E16F8A3
:107B100015700546461CB0B257554D1CA9B2A1427E
:107B2000EADBF0BDAA070020F0B5A7B007460D4676
:107B3000982101A8FCF781FB002400265A22214647
:107B4000641C01A842541948407840F08002214644
:107B5000641C01A84254E81CC2B22146641C01A85E
:107B60004254002D0BDD00BF07E0BA5D2046611CCA
:107B7000CCB201A90A54701CC6B2AE42F5DBFF229A
:107B80002046611CCCB201A90A542046611CCCB22B
:107B900001A90A545B222046611CCCB201A90A54F7
:107BA000214601A8FDF71EFA27B0F0BD9A09002072
:107BB00037B59DF80800FDF7B2F8044621460020CD
:107BC000FEF764FE9DF80700FDF7A9F8044621467C
:107BD0000120FEF75BFE9DF80600FDF7A0F840F0DF
:107BE000800421460220FEF751FE9DF80500FDF7B6
:107BF00096F8044621460320FEF748FE9DF804004F
:107C0000FDF78DF8044621460420FEF73FFE00995B
:107C1000A1F5FA61C8B2FDF782F8044621460520B5
:107C2000FEF734FE3EBD000010B51E48007820B1BE
:107C300001280DD0022831D11FE0FDF703FA0420FE
:107C40001949087117480078401C1649087026E049
:107C5000FFF706F90446012C03D1002011490870F2
:107C60000AE0022C03D102200E49087004E0032C24
:107C700002D102200B49087011E00C480088401C1A
:107C80000A4908800846008841F28831884204DBAE
:107C90000020064908800349087000E000BF00BFCB
:107CA00010BD0000A4030020440A0020A603002009
:107CB00010B51B48007820B101280DD002282BD127
:107CC00029E0FEF759F90620164908711448007892
:107CD000401C1349087020E0FFF718F90446012CF6
:107CE00003D100200E49087014E0022C08D10020B6
:107CF0000B4908700B4981F84100FEF753F909E080
:107D0000032C07D1002006490870064981F841007C
:107D1000FEF748F901E000E000BF00BF10BD000021
:107D20009C030020440A002010B51E48007820B1B2
:107D300001280DD0022831D11FE0FEF75BF90320A6
:107D40001949087117480078401C1649087026E048
:107D5000FFF732F90446012C03D1002011490870C5
:107D60000AE0022C03D102200E49087004E0032C23
:107D700002D102200B49087011E00C480088401C19
:107D80000A4908800846008841F28831884204DBAD
:107D90000020064908800349087000E000BF00BFCA
:107DA00010BD000090030020440A00209203002030
:107DB00010B52648007820B101280DD0022841D105
:107DC0001FE0FEF74FFA0220214908711F48007892
:107DD000401C1E49087036E0FFF74AF90446012CA2
:107DE00003D10020194908700AE0022C03D10220B7
:107DF0001649087004E0032C02D1022013490870D0
:107E000021E014480088401C124908800846008878
:107E100041F28831884214DB00200E4908800E4868
:107E20000078401C0C49087008460078032805DBE0
:107E300000200870FEF72CFAFEF78CFF00200349A3
:107E4000087000E000BF00BF10BD000088030020E4
:107E5000440A00208A0300208C03002010B51E482D
:107E6000007820B101280DD0022831D11FE0FEF7A3
:107E700037FA0B201949087117480078401C164939
:107E8000087026E0FFF754F90446012C03D10020C6
:107E9000114908700AE0022C03D102200E49087033
:107EA00004E0032C02D102200B49087011E00C48B9
:107EB0000088401C0A4908800846008841F2883141
:107EC000884204DB0020064908800349087000E06E
:107ED00000BF00BF10BD0000BB030020440A00200B
:107EE000BC03002010B51E48007820B101280DD039
:107EF000022831D11FE0FEF733FA05201949087135
:107F000017480078401C1649087026E0FFF74CF926
:107F10000446012C03D10020114908700AE0022C0C
:107F200003D102200E49087004E0032C02D1022084
:107F30000B49087011E00C480088401C0A49088071
:107F40000846008841F28831884204DB0020064957
:107F500008800349087000E000BF00BF10BD0000AA
:107F600096030020440A00209803002010B518480A
:107F7000007820B101280DD0022825D123E0FEF79A
:107F80002FFA07201349087111480078401C104946
:107F900008701AE0FFF792F90446012C03D1002083
:107FA0000B4908700EE0022C05D10020084908702A
:107FB000FEF72CFA06E0032C04D1002004490870D7
:107FC000FEF724FA01E000E000BF00BF10BD000092
:107FD000A0030020440A002010B52648007820B1F4
:107FE00001280DD0022841D11FE0FFF7A9FA09208E
:107FF000214908711F480078401C1E49087036E06E
:10800000FFF7DAF90446012C03D100201949087062
:108010000AE0022C03D102201649087004E0032C68
:1080200002D102201349087021E014480088401C46
:10803000124908800846008841F28831884214DBE2
:1080400000200E4908800E480078401C0C4908703A
:1080500008460078032805DB00200870FFF768FC5D
:10806000FEF778FE00200349087000E000BF00BF63
:1080700010BD0000B2030020440A0020B403002019
:10808000B603002010B52648007820B101280DD095
:10809000022841D11FE000F04DF808202149087165
:1080A0001F480078401C1E49087036E0FFF7EEF9C3
:1080B0000446012C03D10020194908700AE0022C63
:1080C00003D102201649087004E0032C02D10220DB
:1080D0001349087021E014480088401C12490880A8
:1080E0000846008841F28831884214DB00200E499E
:1080F00008800E480078401C0C490870084600783B
:10810000032805DB0020087000F060F9FEF722FE6E
:1081100000200349087000E000BF00BF10BD000050
:10812000AA030020440A0020AC030020AE03002074
:108130007047000010B500F0EFFCFCF7D7FE0348D5
:1081400001780348FEF722FE10BD00005C0300200A
:108150005D02002010B5854890F84E0018B1FEF77A
:10816000CDFA01F015F88148C07900283CDD7F4840
:1081700090F84100002837D07C484078C0F3400098
:10818000002831D07948007908282DD07748007828
:10819000C00948BB76484078C0F3400028B11020A1
:1081A0007449086074A001F029FD00207749087027
:1081B0007749086075480078401C744908706B481E
:1081C000007820F080008030684908706848407866
:1081D00020F001006649487000F066FC0320634906
:1081E00081F8540000F0FEF86148407800F001008A
:1081F000002849D067480078002845DD5B48C079F1
:10820000002841D1594890F8410000283CD05748F7
:108210004078C0F34000002836D054480079082840
:1082200032D052480078C00970BB51484078C0F342
:10823000400028B110204F49086057A001F0DEFC33
:108240000020524908705249086050480078401C8C
:108250004E4908704548007820F08000803043493E
:1082600008704348407820F00100414948700320DD
:108270003E4981F854003E48007820F0800080306C
:108280003B49087000F0AEF838480078C009002873
:108290006AD03F480068401C3D49086008460068B5
:1082A0004EF6602188425FD3002039490860374884
:1082B0000078401C354908700846007803283EDDE8
:1082C0002A48407910B101202849887100202F499F
:1082D0000870264981F84F0008650846007820F0AC
:1082E00080000870002081F84E002148407820F07E
:1082F00001001F49487008460078C00908B9FCF71A
:1083000069FC1B48007820F0800019490870174864
:10831000C079002828DD1548C079401E1349C8716E
:108320000846C079234908714FF412712148FCF7BF
:108330001DFD2049C1F8480201F032FC14E00B4851
:108340000079082810D00A484078C0F3400028B1CE
:1083500010200849086018A001F050FC03200349D0
:1083600081F8540000F03EF810BD0000440A0020DF
:108370000C0000201008014053656E642064617495
:1083800061206669727374210D0A0000D403002015
:10839000D00300205C06002053656E642062616398
:1083A0006B75702064617461206669727374210D4D
:1083B0000A0000001004002053656E6420706163A1
:1083C0006B616765207274790D0A0000044880783B
:1083D00020F080000249887000200871704700007A
:1083E000440A00200348807820F080008030014952
:1083F00088707047440A002010B507488078C0098B
:1084000040B10548007918B103480079082801D126
:10841000FFF738FE10BD0000440A002000B54448B4
:1084200090F84100012834D141480078C0F3001091
:1084300078B33F480078C0F3801050BB3C480078C8
:10844000C0F3800028B33A480078C0F3400000B37E
:1084500037480078C0F3C000D8B135480079082803
:1084600017D03348007820F0400040303049087081
:108470000846007820F02000203008702D48007851
:10848000401C2C4908700120294981F85400FFF74D
:10849000A9FF2748407800F00100C0B126480068D5
:1084A000401C2549086008460068244988423ED39C
:1084B0000020214908601E48407820F001001C4936
:1084C00048700846007820F0400008702FE01848F7
:1084D0000078C0F34010F8B117480068401C1649F6
:1084E0000860084600684EF6602188421FD30020CD
:1084F000114908600F480078401C0E490870084672
:108500000078032809DD002008700948407820F031
:108510000100401C0649487009E005480079082818
:1085200005D00120024981F85400FFF75BFF00BD30
:10853000440A0020CC030020C803002080EE36004F
:108540002DE9F047F548007800F0010000286DD0D3
:108550000220F34981F84F00F2480088401CF1499D
:10856000088008460088B0F57A7F1DDBEC4840792A
:1085700020F00200801CEA49487100208871E74918
:10858000087000F093FA42F21070E549086500F0B7
:10859000FFFDE5484078C0F3400028B11020E349D2
:1085A0000860E3A001F02AFBEC48007800285BD0CB
:1085B000EB480078401CEA4908704FF48051E948C4
:1085C00002F0D4FAE849087008460078E7490978CB
:1085D000884205D1E6480078401CE549087006E06D
:1085E000E1480078E14908700020E1490870E0485E
:1085F00000780F2838DB0020D8490870DC49087063
:10860000D9480078B0B10020C449087000F04EFA93
:108610000020C349086581F84F00C3484078C0F383
:10862000400038B11020C149086000E013E0D1A03B
:1086300001F0E4FABC484078C0F3400050B110208B
:10864000BA490860C6480078C94A1278811AD3A08E
:1086500001F0D4FA08E00020B24908800120BF49A7
:1086600008700020BE490870AC480078C0F3400094
:1086700000287DD00120AA4981F84F00D048008809
:10868000401CCF49088008460088B0F57A7F1DDB82
:10869000A348407920F00100401CA1494871002006
:1086A00088719E49087000F001FA42F210709C49EE
:1086B000086500F06DFD9C484078C0F3400028B18B
:1086C00010209A490860BFA001F098FAC7480078C6
:1086D00000285BD0C6480078401CC54908704FF49C
:1086E0000041A04802F042FAC249087008460078EA
:1086F000C1490978884205D1C0480078401CBF496B
:10870000087006E0BB480078BB4908700020BB49F0
:108710000870BA4800780F2838DB0020B349087089
:10872000B6490870B3480078A0B100207B490870B2
:1087300000F0BCF900207A49086581F84F007A48BA
:108740004078C0F3400028B110207849086089A023
:1087500001F054FA74484078C0F3400060B1102032
:1087600072490860A2480078A44A1278811A00E091
:1087700003E0A3A001F042FA08E00020904908803D
:1087800001209A49087000209949087063480078D0
:10879000C0F3800000287DD0A248007800287AD05D
:1087A000A1480078401CA04908704FF480416D48F2
:1087B00002F0DCF99D490870084600789C49097868
:1087C000884205D19B480078401C9A49087006E011
:1087D0009648007896490870002096490870954898
:1087E00000780A2857DB0020924908704B4908702E
:1087F0008C4908704C484078C0F3400050B11020BC
:108800004A490860884800788A4A1278811A8AA002
:1088100001F0F4F941494868FBF7E5FE8146FBF7B2
:10882000FBFE074600228C4BFBF765FE0546FBF777
:108830001FFF04463C484078C0F3400058B1102068
:108840003A4908602046FBF7E7FE05462A460B46F4
:1088500082A001F0D3F98A492046FBF76AFD05465C
:10886000FBF7C6FE2E4908650846006D322840D940
:10887000084690F84F0002281BD10846016D814838
:10888000806881420CD92648407920F00200801C83
:10889000234901E039E03EE048710020887125E07D
:1088A0001F48407920F002001D494871002088715E
:1088B0001CE01B4890F84F00012817D11848016DA3
:1088C0007048C068814209D91548407920F00100FC
:1088D000401C134948710020887107E01048407916
:1088E00020F001000E4948710020887100F050FC12
:1088F00007E000200A49086581F84F0062A001F0F6
:108900007DF900200549486005E0012045490870CF
:10891000002045490870BDE8F087000010000020E5
:10892000440A0020020400200C000020100801402E
:108930004B6E69666520636C6F7365206E6F206691
:10894000656564206261636B206D6F726520746879
:10895000616E203173210D0A00000000FE0300202B
:10896000FB030020000C0140F2030020F303002071
:10897000F80300204C657373207468616E203135F4
:108980006D7320666F72206368616E6E656C207413
:108990007269676765722E0D0A0000004B6E69668A
:1089A0006520636C6F7365207368616B6520746903
:1089B0006D652069733A2025646D730D0A0000000F
:1089C000040400204B6E696665206F70656E206E32
:1089D0006F2066656564206261636B206D6F7265F0
:1089E000207468616E203173210D0A00FF0300209E
:1089F000FC030020F4030020F5030020F90300200D
:108A00004B6E696665206F70656E207368616B657B
:108A10002074696D652069733A2025646D730D0AB1
:108A20000000000000040020FD030020F6030020E9
:108A3000F7030020FA030020466565642062616345
:108A40006B207368616B652074696D652069733A8A
:108A50002025646D730D0A00000024404B6E69668A
:108A60006520636C6F73652F6F70656E2074696D20
:108A7000652069733A20252E31666D730000000071
:108A800000002041B40A0020496E74657266657268
:108A9000656E6365207369676E616C2C206E6F2054
:108AA00073656E64210000007047000010B5024835
:108AB00002F0B0FD10BD00000004004010B50248F7
:108AC00002F0ADFD10BD0000000400401FB540F2F3
:108AD000017002F0EBFB0F4802F02EFD6B20ADF8A9
:108AE00000000020ADF80200ADF804006320029001
:108AF0000020ADF80C008DF80E006946054802F024
:108B000093FD0121034802F003FE0121014802F018
:108B1000FBFD1FBD0004004030B599B064216846DC
:108B2000FBF78BFB00240025FE4890F84200FE492D
:108B3000487201222146641C0DF801202146641C64
:108B40000DF801200DEB0400F6498A690260C9693D
:108B500041600834F34890F854202146641C0DF815
:108B60000120641D01222146641C0DF801202046CD
:108B7000611CCCB20DF80020EA4890F84020204655
:108B8000611CCCB20DF80020601DC4B21F20E74963
:108B90000870E44890F85400012875D13420E24967
:108BA0004877352088772C21E04802780078401CEF
:108BB000DE4B1870DC48815412222046611CCCB276
:108BC0000DF8002000222046611CCCB20DF80020D8
:108BD000FDF794FDD34890F848202046611CCCB2A4
:108BE0000DF80020CF48B0F84800C0F30722204617
:108BF000611CCCB20DF80020CA48806CC0F307425B
:108C00002046611CCCB20DF80020C648806C020ED4
:108C10002046611CCCB20DF80020C24890F85A20C2
:108C20002046611CCCB20DF80020BE48B0F85A00B6
:108C300002122046611CCCB20DF80020B94890F811
:108C40003E202046611CCCB20DF80020B548C08FF4
:108C500002122046611CCCB20DF800200DEB04007E
:108C6000B0494A6B02608A6B4260898F018104F1CE
:108C70000A00C4B221466846FDF7FAF90DF804006F
:108C8000601CC4B200BF0FE011E01DF80510A64A39
:108C9000A64B1B78D018FCF721F8A4480078801C5C
:108CA000A2490870681CC5B2A542EEDBF8E19D48F8
:108CB00090F8540003287DD134209B494877302018
:108CC00088772C21994802780078401C974B1870BF
:108CD000954881540D222046611CCCB20DF800202D
:108CE00000222046611CCCB20DF80020904800788C
:108CF000C009002866D08F4802792046611CCCB29A
:108D00000DF800208B488088C0F307222046611CA4
:108D1000CCB20DF8002087484068C0F307422046D7
:108D2000611CCCB20DF8002082484068020E20463B
:108D3000611CCCB20DF800207E48027A2046611CEE
:108D4000CCB20DF800207B48427A2046611CCCB2A0
:108D50000DF8002000222046611CCCB20DF8002046
:108D60007448C27A2046611CCCB20DF800207148CC
:108D7000827A2046611CCCB20DF800206D48027B3F
:108D80002046611CCCB20DF800206A488089C0F3EF
:108D900007222046611CCCB20DF800206548C0684F
:108DA000C0F307422046611CCCB20DF80020614898
:108DB000C06800E00BE1020E2046611CCCB20DF849
:108DC0000020E8E05748C0790028FADD5A48C0780A
:108DD0005449C979401A00EB40015748083010F84F
:108DE00021202046611CCCB20DF800205248C078EA
:108DF0004C49C979401A00EB40014F48083030F81F
:108E00002100C0F307222046611CCCB20DF80020DF
:108E10004948C0784349C979401A00EB40014648A7
:108E2000083050F82100C0F307422046611CCCB244
:108E30000DF800204048C0783A49C979401A00EB43
:108E400040013D48083050F82100020E2046611CC8
:108E5000CCB20DF800203848C0783249C979401AA0
:108E600000EB40013448083000EB810002792046D5
:108E7000611CCCB20DF800202F48C0782949C9796F
:108E8000401A00EB40012C48083000EB8100427989
:108E90002046611CCCB20DF8002000222046611C47
:108EA000CCB20DF800202448C0781E49C979401A78
:108EB00000EB40012048083000EB8100C2792046D9
:108EC000611CCCB20DF800201B48C0781549C97947
:108ED000401A00EB40011848083000EB810082790D
:108EE0002046611CCCB20DF800201348C0780D4913
:108EF000C979401A00EB40010F48083000EB8100AF
:108F0000027A2046611CCCB20DF800200A48C078D5
:108F10000449C979401A00EB40010748083000EBCA
:108F200081000BE0440A00205D0200205C03002069
:108F30000C0000205C060020100400200089C0F313
:108F400007222046611CCCB20DF800205E48C07894
:108F50005E49C979401A00EB40015B48083000EBDC
:108F600081008068C0F307422046611CCCB20DF836
:108F700000205548C0785549C979401A00EB400196
:108F80005148083000EB81008068020E2046611CC9
:108F9000CCB20DF8002021466846FDF769F80DF8BF
:108FA0000400601CC4B200250EE01DF80510484AFC
:108FB000484B1B78D018FBF791FE46480078801C80
:108FC00044490870681CC5B2A542EEDB68E03F4822
:108FD00090F85400022863D1102432203C4948778D
:108FE000342088772C213B4802780078401C394B8C
:108FF000187037488154354890F8540040F080008C
:109000008DF80A0005222146641C0DF8012000227B
:109010002146641C0DF801202146641C0DF8012036
:10902000FDF76CFB294890F848202046611CCCB223
:109030000DF800202548B0F84800C0F3072220466C
:10904000611CCCB20DF800202048806CC0F30742B0
:109050002046611CCCB20DF800201C48806C020E2A
:109060002046611CCCB20DF8002021466846FCF772
:10907000FFFF0DF80400601CC4B200250EE01DF8CF
:109080000510134A134B1B78D018FBF727FE114825
:109090000078801C0F490870681CC5B2A542EEDB41
:1090A0000D210C4802780078401C0A4B18700848C3
:1090B00081540A22184601780078401C1870044830
:1090C000425419B030BD000010040020440A0020B2
:1090D0005D0200205C03002000B587B01D4802F04F
:1090E00041F92823032218211B4801F0E9FC102331
:1090F00003220421184801F0E3FC4023032210213D
:10910000154801F0DDFC802303221021124801F0F4
:10911000D7FC4021104801F085FC80210E4801F069
:1091200081FC002001904FF482700090002002909A
:1091300005904FF4007003900820069000200490E2
:109140006946044802F042F9024802F0DFF807B02D
:1091500000BD000000300140000C014010B50A487D
:10916000406C0A4908601822074958310748001D19
:10917000FBF74AF820210548FBF7F8FD0349086290
:1091800000F0E0FC10BD0000440A0020B40A0020FA
:1091900010B50024FDF7B2FA5548C079302808DA36
:1091A0005348C079401C5249C8710846C07951499A
:1091B00008715048C07830283ED101240EE0601E6E
:1091C00000EB40014B48083000EB810104EB440206
:1091D00000EB82030DCB0DC1601CC4B2302CEEDB62
:1091E000434890F84C10434880F84012404890F8AB
:1091F0004D10404880F841123D4890F84F103D48CE
:1092000080F842123A48016D3A48C0F84412384892
:10921000816C3848C0F83C12354890F84E103548FB
:1092200080F843124FF41271FBF7A0FD3149C1F8E9
:10923000480200F0B5FC53E02D4890F84C102D4842
:10924000C07800EB40022B48083000EB820001712F
:10925000274890F84D102748C07800EB4002254879
:10926000083000EB82004171214890F84F102148EE
:10927000C07800EB40021F48083000EB820081718B
:109280001B48016D1B48C07800EB400219480830AC
:1092900000EB820081601648816C1648C07800EBB4
:1092A00040021448083040F82210114890F84E103F
:1092B0001048C07800EB40020E48083000EB8200F6
:1092C000C1710C48C078401C0A49C8704FF4127133
:1092D0000848FBF74BFD0749C1F8480200F060FC65
:1092E0000020034981F84F00086581F84E0010BD49
:1092F000440A00201004002010B5044601F0B8FA1A
:1093000040F2023001F018FA4FF4417001F014FA03
:1093100040F2053001F010FA204601F033FA40F235
:10932000023001F009FA4FF4417001F005FA40F201
:10933000053001F001FA01F00FFA10BD704700008E
:1093400010B51C48006840F001001A490860084642
:10935000406820F00300486008460068164908404D
:10936000144908600846406814490840114948609B
:1093700008460068104908400E4908600846006821
:1093800020F480200860084640680D4908400949DB
:1093900048600846006808490840064908604FF4DC
:1093A0001F00886002F08EF800214FF0006001F08D
:1093B000E1FE10BD00100240FFFFF6FE0C00FFE8CA
:1093C000FFFF00F710B50121880702F0A4F901287A
:1093D0007ED10121800702F09BF940480088401CA3
:1093E0003E49088008460088B0F57A7F1CDB0020E3
:1093F00008803B480088401C394908803948B0F84B
:109400005800098888420FDC3748007820F00800AF
:109410000830354908700846007820F010001030F8
:10942000087000202E4908802E4890F8410000B3B3
:109430002C480078C00920B92A480078C0F34010B1
:1094400058B12A480088401C2849088008460088EE
:10945000C8280EDB002008800BE025480088401C4F
:109460002349088008460088B0F57A7F01DB002098
:1094700008801C48807998B11E480088401C1D490E
:10948000088008460088B0F5FA7F09DB00200880D4
:109490001948007808B9012000E00020164908703A
:1094A0001648007801280ED114484088401C134902
:1094B000488008464088B0F5967F04DB002048804D
:1094C00008700F4908700848007820F0010000E09B
:1094D00002E0401C0449087010BD0000D8030020C1
:1094E000D6030020440A00200C000020DC030020EA
:1094F000DA030020DE030020E00300202802002021
:109500009A09002010B50121074802F004F901284A
:1095100008D10121044802F0FBF804484068401CCF
:109520000249486010BD0000000400401000002007
:109530001FB54FF4E06001F0B9FE4FF0804001F03C
:10954000FBFF6B20ADF800000020ADF80200ADF885
:10955000040040F2E73002900020ADF80C008DF8D6
:109560000E0069464FF0804002F05EF80121880746
:1095700002F0CEF80121880702F0C6F84FF08040D3
:1095800002F04DF81FBD000010B50024084909483D
:1095900002F0B3F950B1074802F012F9C4B2204604
:1095A000FDF7A2FA0249034802F09AF910BD000043
:1095B000050305000038014010B500240E490F488E
:1095C00002F09BF950B10D4802F0FAF8C4B22046FF
:1095D000FCF7E0FF0849094802F082F9084907480A
:1095E00002F08BF930B110200649086004490348A5
:1095F00002F076F910BD00000503050000440040AC
:10960000060306001408014010B500240849094863
:1096100002F073F950B1074802F0D2F8C4B2204604
:10962000FBF772FC0249034802F05AF910BD000032
:10963000050305000048004017B58BB00B98A0F259
:109640006C7005909DF83000401E04909DF831002C
:1096500003909DF8320002909DF8330001909DF830
:10966000340000906846FAF77BFDA0F5E1442046FF
:109670000EB010BD10B54FF48063032218211E48B0
:1096800001F01EFA4FF40063032204211A4801F08E
:1096900017FA1A4802F09EF84FF4E131174802F029
:1096A00047F80021154802F064F90021134802F040
:1096B00050F90021114802F03CF900210F4802F056
:1096C000EDF800210D4802F0E1F804210B4802F00A
:1096D00038F90821094802F044F940F205310748F9
:1096E00002F0F1F8054802F0BDF80322012127201D
:1096F00001F0E0FC10BD0000000C014000480040FB
:1097000010B50423032218211F4801F0D9F90823BA
:10971000032204211C4801F0D3F91C4802F05AF836
:109720004FF4E131194802F003F80021174802F024
:1097300020F90021154802F00CF90021134802F02D
:10974000F8F80021114802F0A9F800210F4802F0B2
:109750009DF804210D4802F0F4F808210B4802F0AE
:1097600000F940F20631094802F0ADF840F2053147
:10977000064802F0A8F8054802F074F80322012117
:10978000262001F097FC10BD000801400044004075
:1097900010B500F005F8FFF7B3FFFFF76BFF10BD42
:1097A00010B54FF40073032218211E4801F088F908
:1097B0004FF48063032204211A4801F081F91A480A
:1097C00002F008F84FF41651174801F0B1FF0021DC
:1097D000154802F0CEF80021134802F0BAF8002133
:1097E000114802F0A6F800210F4802F057F80021B6
:1097F0000D4802F04BF804210B4802F0A2F80821B2
:10980000094802F0AEF840F20531074802F05BF873
:10981000054802F027F803220121252001F04AFC27
:1098200010BD0000000801400038014033B583B08E
:109830000C46039800F5E140039003A8FAF77CFF7B
:109840000546686900F26C702060287C401C20711D
:10985000287B6071287AA0712879E07128782072BD
:109860000A484078C0F3400070B1102008490860F1
:10987000207AE179A279CDE90021029063792279F9
:1098800004A0216800F0BAF905B030BD0C0000203A
:10989000100801405554432074696D652069733A7E
:1098A0002025642F25642F25642025643A25643AF9
:1098B00025640D0A0000000000BFFEE710B500207F
:1098C0002B4908602B494860087040F2E4702A492F
:1098D00008600B2008711420487101208871002055
:1098E000C871087270212548FAF7A7FC4C2124485A
:1098F000FAF7A3FC0120214981F854000520A1F8C2
:109900005800FAF71BFC4FF4FA7190FBF1F201FBDF
:109910001200401C81B21948A0F85A10042180F8A6
:109920006C10322180F86D10134807C8FFF784FED1
:109930001249B1F85A10C1EB011100EB81000F4937
:1099400048640B48007820F0080008300849087087
:109950000846007820F01000103008704FF40040E6
:1099600008490860FDF7F6F9FDF74EFA10BD000052
:109970000C00002010000020380A0020440A0020BB
:109980005C0600201008014010B500244021094861
:1099900001F046F80F2001F0C3FC00BF01F0BBFC52
:1099A000044604F001000028F8D14021014801F0EC
:1099B00039F810BD000C014010B507480088401C64
:1099C0000549088008460088B0F5FA6F03DB0020DF
:1099D000088001F015F810BD0604002010B505211F
:1099E0004FF4FA6000F0D8FF01F012F810BD00004B
:1099F00010B50024144890F89900001FC4B2134811
:109A0000028821461048C01D00F052F8104909682C
:109A1000812202EBD12000F02DF80C480088204470
:109A20000A49088008460088B0F5006F01DB002075
:109A3000088007480068204405490860002108465E
:109A4000FEF772F810BD00009A09002030020020D5
:109A50002C02002010B54021054800F0E1FF06204F
:109A600001F05EFC4021024800F0DCFF10BD000068
:109A7000000C014010B5044640210C4800F0D0FF16
:109A8000102001F04DFCC4F3074001F049FCC4F381
:109A9000072001F045FCE0B201F042FC4021034800
:109AA00000F0C0FFFFF770FF10BD0000000C014088
:109AB0002DE9F04106460F4614460025FFF7CAFF80
:109AC00040210D4800F0ACFF022001F029FC2012DB
:109AD00001F026FCE0B201F023FC00BF04E0705D61
