:020000040800F2
:10000000C82300201901000881060008990500088E
:100010007D060008A30300088D0D00080000000005
:10002000000000000000000000000000910900082E
:100030009D040008000000006D070008E1090008A9
:1000400033010008330100083301000833010008C0
:1000500033010008330100083301000833010008B0
:1000600033010008330100083301000833010008A0
:100070003301000833010008330100083301000890
:100080003301000833010008330100083301000880
:100090003301000833010008330100083301000870
:1000A0003301000833010008330100083301000860
:1000B000690A0008B10A000833010008330100088A
:1000C0003301000833010008330100083301000840
:1000D00033010008250B0008550B0008A50B00088C
:1000E000330100083301000833010008000000005C
:1000F0000000000000000000000000000000000000
:1001000033010008DFF80CD000F01AF9004800476E
:1001100045150008C82300200648804706480047C8
:10012000FEE7FEE7FEE7FEE7FEE7FEE7FEE7FEE7A7
:10013000FEE7FEE7E50900080501000840EA0103C3
:100140009B0703D009E008C9121F08C0042AFAD28D
:1001500003E011F8013B00F8013B521EF9D2704751
:10016000D2B201E000F8012B491EFBD270470022F9
:10017000F6E710B513460A4604461946FFF7F0FFA6
:10018000204610BD80EA010210B502F00043400095
:1001900022D04A001FD0010E01EB1261C0F35600BD
:1001A000C2F3560240F4000042F40002A0FB022019
:1001B00000047F39140400D0401C50EA124001D4DE
:1001C0004000491EC2B20C0604EBD010401C40088F
:1001D000802A02D003E0002010BD20F00100002999
:1001E00000DA0020184310BD30B480EA010202F0AA
:1001F000004530F0004221F0004013D090B1C30D13
:10020000D40DC2F31601C0F31600E41A41F4000144
:1002100040F400027D34914201D3641C00E04900A7
:10022000002C02DA30BC002070474FF4000000239D
:10023000914201D3891A034340084FEA4101F7D1A3
:1002400051B1914202D14FF0004105E002D24FF08E
:10025000010101E06FF0010103EBC450284430BC00
:1002600000F036B896230022114600F03AB82DE986
:10027000F05F0546002092469B468846064681462A
:1002800040241BE0284641464746224600F079F8C4
:1002900053465A46C01A914110D311461846224679
:1002A00000F060F82D1A67EB01084F462246012046
:1002B000002100F057F817EB00094E41201EA4F171
:1002C0000104DFDC484631462A464346BDE8F09F3C
:1002D0000029A8BF7047401C490008BF20F001005A
:1002E000704710B4B0FA80FC00FA0CF050EA010438
:1002F00004BF10BC704749B1CCF1200421FA04F4CA
:1003000011FA0CF118BF012121430843A3EB0C01A2
:10031000CB1D4FEA00614FEA102042BF002010BC05
:10032000704700EBC35010440029A4BF10BC7047B5
:10033000401C490008BF20F0010010BC70470000BD
:10034000064C074D06E0E06840F0010394E8070022
:1003500098471034AC42F6D3FFF7D8FE141E0008BD
:10036000341E0008202A04DB203A00FA02F10020A3
:1003700070479140C2F1200320FA03F319439040E3
:100380007047202A04DB203A21FA02F0002170474E
:1003900021FA02F3D040C2F12002914008431946ED
:1003A000704700BFFEE7000010B5044640F205317B
:1003B0000E4801F0A1FC0E480078401C0C49087062
:1003C00040F20531094801F0A4FC0A4801780078A0
:1003D000401C084A10700848445410460078FF2812
:1003E00002D100201146087010BD000000480040F6
:1003F0002700002026000020C602002003480078C5
:10040000002801DD012070470020FCE727000020C4
:1004100010B500241148007800281DDD104801782F
:100420000078401C0E4A10700E48445C104600785C
:10043000FF2802D100201146087040F205310A4819
:1004400001F05AFC05480078401E0449087040F24B
:100450000531054801F05DFC204610BD2700002055
:1004600025000020C60200200048004070B5054667
:100470000E46002400BF0CE0295D074801F0CBFBCD
:1004800000BF0721044801F018FC0028F9D0601CC7
:10049000C4B2B442F0DB70BD0048004070470000B9
:1004A00010B500240B48C07804EB006409480079BB
:1004B00004EB00440748407904EB002405488079A8
:1004C0000444204600F020F80021084600F0E2F93C
:1004D00010BD00002C00002010B50021084600F0DF
:1004E000D9F9024800F01AFA10BD000000400008D7
:1004F00008B504A0006800900121684600F0CAF920
:1005000008BD00000100000010B5044600F028FFFF
:1005100040F2023000F088FE4FF4417000F084FE9B
:1005200040F2053000F080FE204600F0A3FE40F2CD
:10053000023000F079FE4FF4417000F075FE40F299
:10054000053000F071FE00F07FFE10BD10B51023E5
:10055000032219460E4800F097FF022303221021C0
:100560000C4800F091FF012303220421084800F009
:100570008BFF022303220421054800F085FF02209F
:10058000044914310860102001491031086010BD81
:1005900000080140000C014000BFFEE710B5044612
:1005A000262001F01FF80D480078401C0B49087008
:1005B00003220121262001F021F809480178007862
:1005C000401C074A10700748445410460078FF2822
:1005D00002D100201146087010BD0000210000204B
:1005E00020000020C800002010B501F0ADF900F097
:1005F000BEF800F0F1FF00F0CBFBFFF7A7FF00F023
:1006000077FB102006490860064B07A209A10CA041
:1006100000F036FC00F05AFA00F0BCF910BD000002
:10062000100801401400002032303A35383A333295
:100630000000000053657020203520323032330036
:10064000426F6F746C6F6164657220666F722047D1
:100650004433324631303343380D0A4275696C6495
:100660002054696D653A2025732025730D0A56655F
:100670007273696F6E3A2025730D0A0000BFFEE7A2
:100680007047000010B5044640F205310E4801F0F5
:1006900033FB0E480078401C0C49087040F20531CD
:1006A000094801F036FB0A4801780078401C084AE6
:1006B00010700848445410460078FF2802D10020EA
:1006C0001146087010BD00000038014024000020D1
:1006D00023000020C701002010B50D4840780628EF
:1006E00013D2DFE800F0120306090C0FFFF700FF3A
:1006F0000CE0FFF7D5FE09E000F060FB06E000F03B
:1007000050F803E0FFF7E8FE00E000BF00BF10BDB7
:100710002C00002010B500200A4908700120487004
:100720000020887096210748C01CFFF720FD00209C
:10073000044981F89900A1F89A000349087048809B
:1007400010BD00002C0000201A00002001200249EA
:1007500008700020488070471A00002000200249DD
:1007600008704880704700001A000020704710B5DC
:100770004FF4C06001F03EF840F2036001F03AF837
:1007800040F2026001F036F840F20E6001F032F8FB
:1007900040F2117001F02EF840F2127001F02AF8C8
:1007A00010BD704710B50446FFF7D0FF37480078FA
:1007B000072865D2DFE800F0040E1A2B46505A00D5
:1007C00000203249887081F899005A2C01D101200B
:1007D000087059E0052C05DC2C48447002202B4998
:1007E000087002E00020294908704DE02748847015
:1007F000E01E2749087008460078002803DD032022
:100800002249087002E00420204908703CE020489A
:100810000078002815DD1D4890F8991090F899008F
:10082000401C1A4A82F89900D01C44541848007899
:10083000401E174908700846007810B90420114678
:10084000087021E0FF2C03D105201049087002E058
:1008500000200E49087017E0FF2C03D106200B4939
:10086000087002E00020094908700DE05B2C03D1FC
:10087000FFF732FFFFF772FF00200449087003E022
:1008800000200249087000BF00BF10BD2C000020EE
:100890001E000020F0B5A7B007460D46982101A81C
:1008A000FFF765FC002400265A222146641C01A89B
:1008B00042541948407840F080022146641C01A847
:1008C0004254E81CC2B22146641C01A84254002DC7
:1008D0000BDD00BF07E0BA5D2046611CCCB201A968
:1008E0000A54701CC6B2AE42F5DBFF222046611CE2
:1008F000CCB201A90A542046611CCCB201A90A5409
:100900005B222046611CCCB201A90A54214601A8F1
:10091000FFF7ACFD27B0F0BD2C00002070B50546F8
:100920000026002410200F4908600FA000F0A8FA4C
:1009300072B6002409E04FF0FF31124840F824104D
:10094000114840F82410601CC4B2082CF3DB6E6818
:100950000E480660286880F3088800BF0B480068CE
:10096000804770BD100801404A756D7020746F207B
:100970004170706C69636174696F6E2E2E2E0D0A62
:100980000000000080E100E080E200E004000020C0
:10099000704700001FB540F2017000F02BFF0F48B8
:1009A00000F0F4FF6B20ADF800000020ADF802006D
:1009B000ADF80400632002900020ADF80C008DF823
:1009C0000E006946054801F055F80121034801F081
:1009D000C5F80121014801F0BDF81FBD0004004029
:1009E0007047000010B51C48006840F001001A492B
:1009F00008600846406820F0030048600846006828
:100A000016490840144908600846406814490840DF
:100A10001149486008460068104908400E490860BE
:100A20000846006820F480200860084640680D49A8
:100A300008400949486008460068084908400649D6
:100A400008604FF41F00886000F066FF00214FF03F
:100A5000006000F033FE10BD00100240FFFFF6FE04
:100A60000C00FFE8FFFF00F710B50121880701F037
:100A700078F8012816D10121800701F06FF80A48A3
:100A8000007801280ED108484088401C064948805B
:100A900008464088B0F5967F04DB00204880087047
:100AA0000249087010BD00001A0000202C00002030
:100AB00010B50121044801F054F8012803D10121A7
:100AC000014801F04BF810BD000400401FB54FF481
:100AD000E06000F08FFE4FF0804000F057FF6B2089
:100AE000ADF800000020ADF80200ADF8040040F2BF
:100AF000E73002900020ADF80C008DF80E0069463A
:100B00004FF0804000F0B6FF0121880701F026F881
:100B10000121880701F01EF84FF0804000F0A4FF8B
:100B20001FBD000010B500240849094801F00BF969
:100B300050B1074801F06AF8C4B22046FFF7A2FDA1
:100B40000249034801F0F2F810BD0000050305005A
:100B50000038014010B500240E490F4801F0F3F8A9
:100B600050B10D4801F052F8C4B22046FFF716FD0F
:100B70000849094801F0DAF80849074801F0E3F8A4
:100B800030B11020064908600449034801F0CEF84E
:100B900010BD0000050305000044004006030600E8
:100BA0001408014010B500240849094801F0CBF8A9
:100BB00050B1074801F02AF8C4B22046FFF7F4FB11
:100BC0000249034801F0B2F810BD0000050305001A
:100BD0000048004010B54FF48063032218211E48DE
:100BE00000F052FC4FF40063032204211A4800F085
:100BF0004BFC1A4801F014F84FF4E131174800F0AB
:100C0000BDFF0021154801F0DAF80021134801F07A
:100C1000C6F80021114801F0B2F800210F4801F098
:100C200063F800210D4801F057F804210B4801F04A
:100C3000AEF80821094801F0BAF840F2053107483A
:100C400001F067F8054801F033F80322012127205D
:100C500000F0D4FC10BD0000000C01400048004032
:100C600010B50423032218211F4800F00DFC0823AF
:100C7000032204211C4800F007FC1C4800F0D0FFB0
:100C80004FF4E131194800F079FF0021174801F0D5
:100C900096F80021154801F082F80021134801F070
:100CA0006EF80021114801F01FF800210F4801F0F3
:100CB00013F804210D4801F06AF808210B4801F0EF
:100CC00076F840F20631094801F023F840F2053188
:100CD000064801F01EF8054800F0EAFF0322012152
:100CE000262000F08BFC10BD0008014000440040AD
:100CF00010B500F005F8FFF7B3FFFFF76BFF10BD6D
:100D000010B54FF40073032218211E4800F0BCFBFD
:100D10004FF48063032204211A4800F0B5FB1A48FF
:100D200000F07EFF4FF41651174800F027FF002116
:100D3000154801F044F80021134801F030F8002173
:100D4000114801F01CF800210F4800F0CDFF0021F0
:100D50000D4800F0C1FF04210B4801F018F80821EC
:100D6000094801F024F840F20531074800F0D1FFAE
:100D7000054800F09DFF03220121252000F03EFCE4
:100D800010BD0000000801400038014000BFFEE730
:100D900010B50020084908600846007820F00800D7
:100DA000083008700846007820F0100010300870F5
:100DB000FFF7B0FC10BD0000100000202DE9F0414D
:100DC0000024A0460026042700252C48C07804EB08
:100DD00000642A48007904EB00442848407904EB79
:100DE0000024264880790444244991F89910081F6A
:100DF000C11700EB9171C1F3870800F0B1FA00BF91
:100E000032E03846791CCFB21C49C91C085C054445
:100E10003846791CCFB21949C91C085C05EB00257E
:100E20003846791CCFB21549C91C085C05EB004552
:100E30003846791CCFB21149C91C085C05EB006526
:100E400004EB8600294600F0ADFA40F2053000F0D0
:100E5000EBF94FF4417000F0E7F940F2023000F096
:100E6000E3F90025701CC6B24645CADB00F0ECF978
:100E700000210846FFF70EFDBDE8F0812C000020A0
:100E80000FB4054B10B503A9044A029800F018F8F6
:100E900010BC5DF814FB0000651400082800002059
:100EA00002E008C8121F08C1002AFAD17047704733
:100EB000002001E001C1121F002AFBD17047000091
:100EC0002DE9FF4F8DB09B460F460446002606E0F5
:100ED00025280BD05A460F999047641C761C207821
:100EE0000028F5D111B03046BDE8F08F0025A846A6
:100EF0000122984900E0054314F8013F203B02FA23
:100F000003F00842F7D120782E2817D114F8010FEA
:100F100045F004052A280ED06FF02F022078A0F1AA
:100F2000300109290AD808EB880102EB410100EBE6
:100F30000108641CF2E757F8048B641C20786C28C5
:100F40000DD004DC4C2812D06A2811D104E074289A
:100F50000DD07A280CD10AE045F4001507E061783D
:100F600045F48015814202D1641C05F58015641C8E
:100F70002278692A45D008DC002AB3D0582A69D0E3
:100F8000632A10D0642A08D13BE0702A67D0732A04
:100F900013D0752A5CD0782A5CD010465A460F9937
:100FA0009047761CD3E017F8040B8DF80000002062
:100FB0008DF80100E946012003E057F8049B4FF04B
:100FC000FF3069074FF0000501D40AE06D1C45456C
:100FD0000DDA8542FADB19F805100029F6D106E092
:100FE0006D1C8542FCDB19F805100029F8D12E4450
:100FF00004E019F8010B5A460F9990476D1EF8D27C
:10100000A5E00A200021CDE90801C5F3025002281D
:101010000DD001CFC117031E71F100030DDA4FF09F
:10102000000CD0EB0C006CEB01012D2308E0FF1D40
:1010300027F00707F7E80201EDE72B0504D52B237E
:101040008DF8283001233BE0EB0739D02023F7E768
:101050000A2000E010200021CDE9080107E010205F
:10106000002145F00405CDE908014FF00808C5F35B
:10107000025002280FD001CF00214FF0000A2B07A9
:101080001FD5702A0DD0DDE908C38CF0100C5CEA86
:10109000030C0CD015E0FF1D27F00707F7E802014D
:1010A000EBE740228DF828204FF0010A0BE050EAD0
:1010B000010306D030238DF828308DF82920022333
:1010C0009A46582A04D024A20DF120090B9209E077
:1010D00026A2F9E7DDE90823FFF7C9F80B9B9B5C23
:1010E00009F8013D50EA0102F4D1ADEB09002030CE
:1010F0000890680701D44FF001080899884502DD7F
:10110000A8EB010000E000208046002506E00AA8C8
:101110005A46405D0F9990476D1C761C5545F6DB8D
:1011200004E030205A460F999047761CB8F1000130
:10113000A8F10108F5DC05E019F8010B5A460F99F2
:101140009047761C0899481E08900029F4DC641C1E
:10115000C5E6000009280100303132333435363716
:1011600038396162636465660000000030313233F3
:101170003435363738394142434445460000000093
:1011800000B50346012200BF00F00CF802465B1ECA
:10119000012A01D1002BF7D1012A00D104221046E7
:1011A00000BD000000200A49C96801F0010109B131
:1011B00001200CE00649C96801F0100109B10320C3
:1011C00005E00349C96801F0040101B1022070473C
:1011D0000020024000B50346012200BF00F00CF8D9
:1011E00002465B1E012A01D1002BF7D1012A00D152
:1011F0000422104600BD000000200A49C96C01F01D
:10120000010109B101200CE00649C96C01F010018F
:1012100009B1032005E00349C96C01F0040101B1E3
:101220000220704700200240064A02EB9011096834
:1012300000F01F0301229A401143024B03EB90126E
:1012400011607047002002400848006940F08000AB
:101250000649086106480088B0F5007F04D90846B1
:10126000006D40F0800008657047000000200240DB
:10127000E0F7FF1F30B5054636480088B0F5007F1F
:1012800048D9354885421ED24FF47020FFF778FFC9
:101290000446002C5BD13148006940F002002F4920
:1012A000086108464561006940F0400008614FF45C
:1012B0007020FFF765FF04462848006920F002000F
:1012C0002649086143E04FF47020FFF783FF04468E
:1012D000002C3CD12148006D40F002001F490865F8
:1012E00008464565C06900F0020008B1084645613E
:1012F0001A48006D40F04000184908654FF470200E
:10130000FFF768FF04461548006D20F002001349FE
:1013100008651CE04FF47020FFF732FF0446B4B9B3
:101320000E48006940F002000C490861084645611A
:10133000006940F0400008614FF47020FFF720FF83
:1013400004460648006920F002000449086120466E
:1013500030BD0000E0F7FF1FFFFF0708002002403C
:101360000C48006900F0800020B10B480949486032
:101370000A4848600A480088B0F5007F09D9054846
:10138000006D00F0800020B1034802494864034822
:10139000486470470020024023016745AB89EFCDC8
:1013A000E0F7FF1F70B504460D4600262A48008866
:1013B000B0F5007F35D92948844219D24FF4702006
:1013C000FFF7DEFE0646002E43D12548006940F0B7
:1013D00001002349086125604FF47020FFF7D0FE1B
:1013E00006461F48006920F001001D49086130E0F1
:1013F0004FF47020FFF7EEFE064656BB1848006D0E
:1014000040F001001649086525604FF47020FFF791
:10141000E1FE06461248006D20F001001049086503
:1014200017E04FF47020FFF7ABFE06468EB90C486C
:10143000006940F001000A49086125604FF47020FE
:10144000FFF79EFE06460648006920F001000449A9
:101450000861304670BD0000E0F7FF1FFFFF07087E
:101460000020024070B504460D46E1B2054800F088
:10147000D2FB00BF0721034800F01FFC0028F9D071
:10148000204670BD00440040F0B5044616460025D5
:10149000002201F00F0501F0100707B135430020CD
:1014A0001EE0012787401F40C7B122684FEA800C29
:1014B0000F2707FA0CF7BA43870005FA07F73A43F4
:1014C000282904D1012787401F40676105E048298A
:1014D00003D1012787401F4027612260471CB8B213
:1014E0000828DED3082022E0012787401F40E7B10B
:1014F0006268A0F108074FEA870C0F2707FA0CF77C
:10150000BA43A0F10807BF0005FA07F73A432829B4
:1015100004D1012787401F40676105E0482903D1B6
:10152000012787401F4027616260471CB8B210281E
:10153000DAD3F0BD02469068084008B10120704738
:101540000020FCE788B0194C00251C2218A101A836
:10155000FEF7F4FDFFF748F801211C48FFF7EAFF0A
:1015600030B12068B0F15A3F02D01948FFF7D6F9E0
:10157000102016491031086001211448FFF7DAFFE6
:101580000646314613482268FFF77AFC192101A864
:10159000FEF76CFF08E0FEF731FF28B1FEF738FFD9
:1015A00005462846FFF7FEF8F5E70000FC4F00204F
:1015B000554152543220697320666F72204657207D
:1015C00075706772616465210000000000080140C9
:1015D00000400008D01D000810B54FF4C06000F0B6
:1015E00063F810BD00F01F0201219140024A43112F
:1015F00042F823107047000080E100E02DE9F0413F
:1016000003460D46164600240027A04624480068DD
:1016100000F4E060B0F5A06F15D006DCB0F5407FB7
:1016200018D0B0F5806F19D110E0B0F5C06F06D0BA
:10163000B0F5E06F12D100274FF0040815E0012744
:101640004FF0030811E00227B8460EE003274FF0E1
:1016500001080AE004274FF0000806E04FF4A060FC
:1016600000F022F80227B84600BF00BFC7F104000F
:1016700005FA00F4C8F104010F20C84030400443CB
:1016800024010848C45403F01F0101208840591167
:10169000890001F1E021C1F80001BDE8F0810000FE
:1016A0000CED00E000E400E002490143024A116051
:1016B000704700000000FA050CED00E0024A0A4005
:1016C0000243024B1A60704780FFFF1F08ED00E0E5
:1016D0002DE9F04F8BB00746002009903EA090E81E
:1016E000004CC068CDE905BECDF810A007900FF200
:1016F000EC0ADAE9000ACDE9020A0FF2E00ADAE9B7
:10170000000ACDE9000A38484068C0F381000A9019
:101710000A9820B1012804D0022829D103E03349D6
:1017200028E0324926E03048406800F48038B8F5B7
:10173000803F09D12D4C2C48406800F40039B9F5A0
:10174000003F02D1641000E0294C27484068C0F3F4
:1017500083422548406800F0006008B142F0100262
:101760000F2A01D2921C00E0521C04FB02F101E09E
:101770001E4900BF00BF1C484068C0F3031504A801
:10178000465D21FA06F318484068C0F3022502A816
:10179000465D23FA06FC14484068C0F3C2251DF8D4
:1017A000056023FA06F0089037B1012F06D0022F0A
:1017B00006D0032F0AD106E0099108E0099306E05C
:1017C000CDF824C003E00898099000E000BF00BFF6
:1017D00009980BB0BDE8F08F000000000000000089
:1017E00001020304060708090010024000127A00F3
:1017F00000093D00064A02EB9011096800F01F0342
:1018000001229A401143024B03EB90121160704782
:1018100000100240064A02EB9011096800F01F0315
:1018200001229A409143024B03EB901211607047E2
:1018300000100240064A02EB9011096800F01F03F5
:1018400001229A401143024B03EB90121160704742
:1018500000100240002000212C4A126842F480321D
:101860002A4B1A6000BF401C284A126802F400315B
:1018700019B94FF6FF729042F5D1244A126802F46A
:1018800000320AB900BFFEE7204A52681F4B5A6077
:101890001A4652685A601A46526842F480625A6088
:1018A0001A46526822F440325A601A46526842F48C
:1018B00040325A601A465268154B1A40134B5A6010
:1018C0001A465268134B1A43104B5A601A46126854
:1018D00042F080721A6000BF0C4A126802F0007277
:1018E000002AF9D0094A526822F00302074B5A60D5
:1018F0001A46526842F002025A6000BF034A526818
:1019000002F00802002AF9D07047000000100240DF
:10191000FFFFC3F70000280810B5FFF79BFF10BDBD
:10192000042808D14FF0E021096941F004014FF08B
:10193000E022116107E04FF0E021096921F0040184
:101940004FF0E0221161704710B56FF00400FFF70F
:10195000E7FF09480068FEF785FC04460749FEF7E3
:1019600043FC07490860074905480068FEF70AFC80
:101970000549086010BD0000000000200024F44A62
:101980000800002000007A440C00002010B5044636
:101990003349601A8C4244D00CDCB4F1804F1CD027
:1019A0003048204410B3B0F5806F28D0B0F5006FF8
:1019B00052D12DE0B0F5806F3CD0B0F58E3F03D012
:1019C000B0F5923F48D13EE040F20B30FFF732FFD6
:1019D00040F20B30FFF71EFF3FE04FF48060FFF74F
:1019E00029FF4FF48060FFF715FF36E040F2014019
:1019F000FFF720FF40F20140FFF70CFF2DE040F21F
:101A00000240FFF717FF40F20240FFF703FF24E018
:101A100040F20340FFF70EFF40F20340FFF7FAFEEB
:101A20001BE040F20440FFF705FF40F20440FFF7DF
:101A3000F1FE12E040F20540FFF7FCFE40F20540E7
:101A4000FFF7E8FE09E040F20D30FFF7F3FE40F249
:101A50000D30FFF7DFFE00E000BF00BF10BD00004B
:101A60000010004000FCFFBF016841F0010101606F
:101A7000704700000A888262294A904220D0B0F163
:101A8000804F1DD0274A90421AD0274A904217D043
:101A9000264A904214D0264A904211D0254A9042BC
:101AA0000ED0254A90420BD0244A904208D0244AB6
:101AB000904205D0234A904202D0234A90420FD14F
:101AC000026822F07002026002688B7803F0600303
:101AD0001A43026002680B7903F010031A43026094
:101AE0008A68C262194A90420CD0194A904209D0C1
:101AF000026822F44072026002688B8903F440732A
:101B00001A430260064A904202D0094A904201D12B
:101B10008A7B0263426942F0010242617047000021
:101B2000002C01400004004000080040000C004070
:101B300000340140004C014000500140005401407D
:101B400000180040001C0040002000400010004031
:101B500000140040C2680A43C2607047CA43026171
:101B600070470246D06800EA01031069084010B1CE
:101B70000BB1012070470020FCE700002DE9F04781
:101B800004460D460027B846B94600261D49601A8E
:101B90008C421CD006DC1C48204470B1B0F5806F2C
:101BA0001FD10FE0B0F5806F16D0B0F56C4F18D193
:101BB0000320FFF78DFD074614E00220FFF788FDA4
:101BC00007460FE00220FFF783FD07460AE00220E8
:101BD000FFF77EFD074605E00220FFF779FD074687
:101BE00000E000BF00BF07EB5500B0FBF5F64FF675
:101BF000F07006EA000806F00F0948EA0900A06044
:101C0000BDE8F087004C004000BCFFBF01464868BB
:101C1000C0F308007047C1F308024260704700003B
:101C200010B504462049601A8C4228D006DC1F48B3
:101C3000204490B1B0F5806F33D117E0B0F5806FDC
:101C400026D0B0F56C4F2CD140F20E30FFF7F2FDEC
:101C500040F20E30FFF7DEFD24E040F21140FFF7C6
:101C6000E9FD40F21140FFF7D5FD1BE040F21240C4
:101C7000FFF7E0FD40F21240FFF7CCFD12E040F22A
:101C80001340FFF7D7FD40F21340FFF7C3FD09E013
:101C900040F21440FFF7CEFD40F21440FFF7BAFDCA
:101CA00000E000BF00BF10BD004C004000BCFFBF03
:101CB000C16841F40051C160704710B5024602EBA3
:101CC0009110006801F01F040123A340184008B1DF
:101CD000012010BD0020FCE70A460021416921F4E3
:101CE00000711143416170470A460021416921F4A6
:101CF000807111434161704710B5C1F38912825858
:101D000001F01F040123A3409A43C1F38913C25079
:101D100010BD10B5C1F38912825801F01F040123D0
:101D2000A3401A43C1F38913C25010BD10B500EB94
:101D300091521268C1F304440123A3409A4300EB7B
:101D400091531A6010BD70B5024600230024C1F300
:101D50008910105801F01F060125B54000EA05035F
:101D600002EB91500068C1F304460125B54000EA3A
:101D7000050414B10BB1012070BD0020FCE7C2685E
:101D800022F4C062C260C2680A43C26070470A4659
:101D90000021C16821F004011143C160704702694C
:101DA00022F44052026102690A43026170470A4606
:101DB0000021C16821F008011143C1607047C26869
:101DC00022F48052C260C2680A43C26070470000B9
:101DD0005374617920696E206C6F6164657220664E
:101DE0006F722070696E2076616C7565206F72204D
:101DF000666C616721204D6F6465312050696E3AD1
:101E000025642C2020466C61673A307825580D0AED
:101E100000000000341E0008000000202C0000001C
:101E2000A00E0008601E00082C0000209C2300006B
:101E3000B00E000800F36F06000000000000000074
:101E4000000000000000000056302E393000000075
:101E50000000000000000000000000000000000082
:0400000508000105E9
:00000001FF
