:020000040800F2
:10400000D836002019410008C5A10008ED9300082A
:1040100091A10008854D000889BE0008000000003D
:1040200000000000000000000000000091AA00084D
:104030009D5E00080000000039A5000855BB00087F
:104040003341000833410008334100083341000880
:104050003341000833410008334100083341000870
:104060003341000833410008334100083341000860
:104070003341000833410008334100083341000850
:104080003341000833410008334100083341000840
:104090003341000833410008334100083341000830
:1040A0003341000833410008334100083341000820
:1040B000DDBB000809BC000833410008334100089B
:1040C0003341000833410008334100083341000800
:1040D00033410008D5BC00083341000805BD000885
:1040E000C1630008334100083341000800000000AC
:1040F00000000000000000000000000000000000C0
:1041000033410008DFF80CD000F0DAFB004800472C
:10411000DDD00008D8360020064880470648004712
:10412000FEE7FEE7FEE7FEE7FEE7FEE7FEE7FEE767
:10413000FEE7FEE759BB000805410008014610B53F
:1041400009683C22B1FBF2F302FB1313B1FBF2F15D
:104150001D480360B1FBF2F302FB1313B1FBF2F154
:1041600018224360B1FBF2F302FB1313B1FBF2F12F
:1041700083600A1D0723B2FBF3F403FB1422826160
:104180008A0040F2B55102F66C32B2FBF1F34433CF
:104190004361B2FBF1F301FB13218908C1613B29A3
:1041A00003D3027D920700D0491C0022074C13461E
:1041B0000261E25C8A4203D8891A5B1C0361F8E75A
:1041C000491CC16010BD0000AC16002073E500085A
:1041D00040EA01039B0703D009E008C9121F08C089
:1041E000042AFAD203E011F8013B00F8013B521E09
:1041F000F9D27047D2B201E000F8012B491EFBD280
:1042000070470022F6E710B513460A4604461946E1
:10421000FFF7F0FF204610BD421C10F8011B0029DB
:10422000FBD1801A704780EA010210B502F000430A
:10423000400022D04A001FD0010E01EB1261C0F3F2
:104240005600C2F3560240F4000042F40002A0FB04
:10425000022000047F39140400D0401C50EA1240B0
:1042600001D44000491EC2B20C0604EBD010401C21
:104270004008802A02D003E0002010BD20F0010099
:10428000002900DA0020184310BD30B480EA010292
:1042900002F0004530F0004221F0004013D090B110
:1042A000C30DD40DC2F31601C0F31600E41A41F495
:1042B000000140F400027D34914201D3641C00E00F
:1042C0004900002C02DA30BC002070474FF4000097
:1042D0000023914201D3891A034340084FEA410168
:1042E000F7D151B1914202D14FF0004105E002D225
:1042F0004FF0010101E06FF0010103EBC4502844CD
:1043000030BC00F072B92DE9FE4F81EA030404F0DD
:10431000004421F0004100944FF0000B23F00043D3
:1043200050EA01045ED052EA03045BD0C3F30A549E
:10433000C1F30A552C44A4F2F3340194A0FB0254B7
:10434000C1F3130141F48011C3F3130343F4801349
:1043500001FB024400FB034E840A970A44EA81549D
:1043600047EA8357A4FB076802958D0A05FB07857A
:104370004FEA932C04FB0C542705029D4FEA065884
:1043800047EA1637B5EB08056EEB070C870E920E61
:1043900047EA811742EA8312A7FB0201B6EB0B0141
:1043A00064EB00042B0D43EA0C335E1844EB1C5005
:1043B000DA465146E7FB0201C5F313044FEA0B331B
:1043C00043EA14534FEA0432019C43EA0603A4F182
:1043D0000C040294009CCDE900B400F04CF903B049
:1043E000BDE8F08F00200146F9E72DE9F04D81EAA4
:1043F000030404F0004B21F0004514464FF0000A7E
:1044000023F0004150EA050220D054EA01021DD0F9
:10441000C5F30A570246C5F31303C1F31300C1F3F2
:104420000A5640F4801543F48013A7EB0608101BCE
:10443000D64608F2FD3873EB050002D308F10108F7
:1044400001E092185B41B8F1000F03DA0020014649
:10445000BDE8F08D00204FF48011064684460EE042
:10446000171B73EB050705D3121B63EB050306430C
:104470004CEA010C49084FEA300092185B4150EABF
:104480000107EDD152EA030012D082EA040083EA68
:104490000501084305D0101BAB4106D201220023C1
:1044A00006E000224FF0004302E06FF001025310DB
:1044B0001AEB06004CEB085110EB0A0041EB0B0124
:1044C000BDE8F04D00F0C8B896230022114600F078
:1044D00095B80EB5C10F80EAE0700844CA07002104
:1044E00040F233438DE80E000A460B4600F0C3F855
:1044F00003B000BD0EB540F2334102910021CDE979
:1045000000110A460B4600F0B6F803B000BD20F0DB
:104510000040C10DC0F3160040F400007F2901DA0D
:1045200000207047962903DCC1F19601C84070470E
:1045300096398840704700F0004230F000400AD0C1
:10454000C10D01F56071C0F3160042EA0151C208C5
:1045500040071143704700200146704730B50B46B5
:10456000014600202022012409E021FA02F59D42A3
:1045700005D303FA02F5491B04FA02F52844151E77
:10458000A2F10102F1DC30BD2DE9F05F054600200B
:1045900092469B4688460646814640241BE02846B4
:1045A00041464746224600F0ACF953465A46C01AE7
:1045B000914110D311461846224600F093F92D1A66
:1045C00067EB01084F4622460120002100F08AF9DE
:1045D00017EB00094E41201EA4F10104DFDC484620
:1045E00031462A464346BDE8F09F0029A8BF7047E0
:1045F000401C490008BF20F00100704710B4B0FA19
:1046000080FC00FA0CF050EA010404BF10BC7047B3
:1046100049B1CCF1200421FA04F411FA0CF118BFCD
:10462000012121430843A3EB0C01CB1D4FEA00619C
:104630004FEA102042BF002010BC704700EBC3506F
:1046400010440029A4BF10BC7047401C490008BF9B
:1046500020F0010010BC704710B5141E73F1000467
:1046600008DA401C41F1000192185B411A4301D164
:1046700020F0010010BD2DE9F04D92469B4611B18E
:10468000B1FA81F202E0B0FA80F22032904600F0F6
:1046900029F904460F4640EA0A0041EA0B01534655
:1046A0005A46084313D0114653EA010019D0C8F105
:1046B0004002504600F025F905460E465046594640
:1046C000424600F00FF9084305D0012004E02046DF
:1046D0003946BDE8F08D0020054346EAE0762C43DC
:1046E00037430A986305E40AA0EB08000022FD0A9C
:1046F00044EA47540A3002D500200146E9E70105A3
:1047000010196941DDE9084500196941BDE8F04D1E
:10471000A2E72DE9FE4F804681EA0300C00F0C4658
:10472000009021F0004123F00045B8EB0200A941C0
:1047300005D24046214690461C460B46024623F0D1
:104740000040104347D0270DC7F30A00C3F30A51B6
:104750000290401A019040286BDAC3F3130040F432
:10476000801B0098924620B10023D2EB030A63EB32
:104770000B0B01985946C0F14002504600F0B2F8C8
:1047800006460D4650465946019A00F0CAF810EB0D
:1047900008006141002487EA115284EAE7731A4352
:1047A00040D0009A62B3019A012A4FEA075215DC01
:1047B000001B61EB02014FF0004202EA0752CDE913
:1047C0000042001C41F5801132462B46FFF753FF93
:1047D00003B0BDE8F08F40462146F9E7001B61EBCE
:1047E0000201001C41F5801300185B412018A2F55E
:1047F000001747EB030140EAD570B6196D4111E08F
:104800006D084FEA360645EAC0754FEA0752001BAD
:1048100061EB0201001C41F5801149084FEA3000AC
:104820000019514132462B4603B0BDE8F04FFFF767
:1048300013BF0098012240000023D0EB020263EB7B
:10484000E073009821464FEAE074B8EB000061EB9A
:104850000401E9E783F000435BE781F0004158E79A
:10486000C1F30A52C1F3130140F2FF3341F4801146
:104870009A4202DA00200146704740F233439A42DE
:10488000A2F2334202DC524200F03BB800F02AB8F8
:1048900030B5041E71F1000404DB4FF000444042C7
:1048A00064EB0101141E73F1000405DB1C464FF09C
:1048B0000043524263EB0403994208BF904230BD6B
:1048C000064C074D06E0E06840F0010394E807005D
:1048D00098471034AC42F6D3FFF718FC80E5000887
:1048E000A0E50008202A04DB203A00FA02F10020AB
:1048F00070479140C2F1200320FA03F3194390401E
:104900007047202A04DB203A21FA02F00021704788
:1049100021FA02F3D040C2F1200291400843194627
:104920007047202A06DBCB17203A41FA02F043EA0F
:10493000E07306E041FA02F3D040C2F12002914058
:1049400008431946704730B58C1810F8012B12F047
:104950000F0301D110F8013B120906D110F8012B09
:1049600003E010F8015B01F8015B5B1EF9D101E087
:1049700001F8013B521EFBD1A142E6D3002030BD1D
:1049800010B500243A480078C0F3800058B1394887
:10499000007840B13648007820F0040034490870AF
:1049A0000020344908703348007810B101285BD1E9
:1049B0000CE0002001F0A8FE2F48007801F0DEFE98
:1049C0002C480078401C2B4908704EE003F096F804
:1049D0000446092C45D2DFE804F03F051627314094
:1049E0004142430024480078012805DD2248007830
:1049F000401E2149087002E003201F490870002072
:104A00001C4908702EE01C480078032805DA1A4873
:104A10000078401C1849087002E00120164908700F
:104A20000020144908701DE0144815490860012051
:104A30001149087000200F49087013E00E480078F3
:104A40001049087010480E49086000200949087094
:104A500001200949087005E000BF00BF00BF00BF8A
:104A600000E000BF00BF00E000BF00BF10BD0000BD
:104A70000C0000204B0000204C000020CD9C0008C2
:104A80001C000020210000208D4A00082DE9F04183
:104A9000ADF5D26D00274FF40C710DF58C60FFF76A
:104AA000B0FB4FF40C718CA8FFF7ABFB4FF40C710B
:104AB0006846FFF7A6FB002400250026A046A44870
:104AC0000078C0F3800058B1A248007840B1A048F7
:104AD000007820F004009E49087000209D4908706D
:104AE0009C48007810B101284DD14DE000209A4932
:104AF00008809A4908809A4908809A4908809A490A
:104B000008709A49087001209949087099480178FD
:104B10009948007801F0AEFF022396480278964843
:104B200001780DF58C6002F00DFD04468A4803887B
:104B3000022221460DF58C6005F062F904238D48B0
:104B400002788D4801788CA802F0FCFC0546834869
:104B50000388042229468CA805F052F906238548CB
:104B6000027885480178684602F0ECFC06467C48ED
:104B7000038806223146684605F042F975480078F8
:104B8000401C74490870DEE002F0B8FF0746092FA8
:104B900030D2DFE807F02A05121F292B2C2D2E001A
:104BA00074480078012807DD72480078401E71497A
:104BB00008700020674908701DE06E4800780A28D8
:104BC00007DA6C480078401C6A4908700020614987
:104BD000087010E069486A49086000205D49087063
:104BE00001206449087006E005E000BF00BF00BF77
:104BF00000BF00E000BF00BF5C48007800287DD007
:104C000059480078401C58490870084600781E280A
:104C100075DB0020087050480088401C4E49088011
:104C20004E480088401C4D4908804D480088401C73
:104C30004B4908804FF40C710DF58C60FFF7E1FAD9
:104C40004FF40C718CA8FFF7DCFA4FF40C71684636
:104C5000FFF7D7FA022347480278474801780DF555
:104C60008C6002F06FFC04460423424802784248FC
:104C700001788CA802F066FC054606233D480278C0
:104C80003D480178684602F05DFC0646AC4201DB17
:104C9000204600E028468046B04501DB404600E063
:104CA00030468046802C01DD404600E02046044628
:104CB000802D01DD404600E028460546802E01DDBE
:104CC000404600E03046064623480088A04202DB0A
:104CD00000202149088021480088A84202DB0020EA
:104CE0001E4908801E480088B04202DB00201C4993
:104CF0000880194803880222214601E013E021E0E0
:104D00000DF58C6005F07CF81448038804222946D0
:104D10008CA805F075F812480388062231466846CB
:104D200005F06EF80EE00F480088401C0D49088021
:104D300008460088B0F57A7F04DB00200880012057
:104D40000A49087000BF00BF0DF5D26DBDE8F081C3
:104D50000C0000203E000020400000204200002007
:104D600044000020480000204A00002046000020A7
:104D7000200000203F000020210000208149000881
:104D80001C00002000BFFEE710B54FF48053032243
:104D90000421294808F0FCF80C21012008F0ACF8A7
:104DA00001220021100307F0AFFE4FF4805007F0FE
:104DB00009FF4FF40053032204211F4808F0E8F8CC
:104DC0000D21012008F098F801220021500307F07E
:104DD0009BFE4FF4005007F0F5FE4FF48043032292
:104DE0000421154808F0D4F80E21012008F084F8B9
:104DF00001220021900307F087FE4FF4804007F066
:104E0000E1FE4FF40043032204210B4808F0C0F8F0
:104E10000F21012008F070F801220021D00307F0D3
:104E200073FE4FF4004007F0CDFE00220121282040
:104E300008F01AFA10BD0000000C014010B504F093
:104E4000F7FC04F00DFC04F097FB04F07DFC124825
:104E50000078E0B911480068401C10490860084615
:104E600000680F49884215D300200C4908600D489E
:104E700000680D4988420DD00C48007820F00400ED
:104E8000001D0A49087008480649086002E0002031
:104E90000249086010BD00003E03002058030020B6
:104EA000E09304001C0000201D9F00080C0000205F
:104EB00010B502460B460020002100BF03E0545C01
:104EC00020444C1CA1B29942F9DB10BD0448807803
:104ED00020F00100024988700020487070470000EF
:104EE000581000200348807820F00100401C014940
:104EF000887070475810002010B5002417480078BB
:104F000010B1012827D10CE005F0C3FD08F08CF9A1
:104F100001201349487011480078401C0F4908705F
:104F20001AE005F0E1FA0446012C0CD10C48007897
:104F300020F00100401C0A49087000200749087051
:104F4000FFF7C4FF06E0022C04D1002003490870DB
:104F5000FFF7BCFF00E000BF00BF10BDAE020020A5
:104F60005810002070B5002401251B48007810B1AE
:104F700001282ED10CE005F053FE08F055F906206B
:104F80001649487014480078401C1349087021E005
:104F900005F0AAFA0446012C13D11148691C415CA2
:104FA000405D01EB00200D4988800846007820F024
:104FB00008000830087000200749087005F0B6F9AD
:104FC00006E0022C04D100200349087005F0AEF978
:104FD00000E000BF00BF70BDB002002058100020EC
:104FE000540D00202DE9F041002500260124404801
:104FF00087884048007820B101280CD0022873D15E
:1050000018E000203C49087008703A480078401CBD
:105010003849087069E03948007805F06DFE08F0FD
:1050200003F902203249487032480078401C314967
:1050300008705AE005F058FA0546012D4BD12C486E
:1050400081882E480078401CB1EB401F01DD2027ED
:1050500006E02748818829480078A1EB401087B2F4
:105060000124002616E0A01CC4B22548611C415C46
:10507000005D01EB002081B21F4802780078401CDF
:105080001D4B18701A48801D20F82210A01CC4B2B5
:10509000701CC6B2BE42E6DB154880881649097806
:1050A00088420FDC1248007820F00200801C104972
:1050B000087000200F49087006F0B4FD00200F4969
:1050C00008700FE00D480078401C0C490870012062
:1050D0000849087006E0022D04D100200549087037
:1050E00006F0A0FD01E0FFE700BF00BFBDE8F081D2
:1050F00058100020AF020020A9020020A8020020C2
:10510000540D00202DE9F0410025002601244948D6
:1051100087884948007820B101280DD0022873D132
:1051200019E0002045490870454908704248007858
:10513000401C414908707AE04048007805F026FE9E
:1051400008F072F803203B4948703B480078401C47
:10515000394908706BE005F0C7F90546012D5DD1AE
:105160003448818835480078401CB1EB801F01DD50
:10517000402706E02F48818830480078A1EB801056
:1051800087B2002632E02F48611C415C005D01EBD4
:10519000002081B22748801D294A127800EB820046
:1051A00041802448801D2649097800EB8100408811
:1051B0004FF6FF71884210D01E48801D20490978A3
:1051C00000EB81004088A0F5FA7081B21948801D7B
:1051D0001B4A127800EB82004180A01CC4B2184820
:1051E0000078401C16490870701CC6B2BE42CADB6B
:1051F0001048808812490978884206DC00200E4950
:10520000087006F025FD10E010E00C480078401C06
:105210000A49087001200849087006E0022D04D1EF
:1052200000200549087006F013FD00E000BF00BF34
:10523000BDE8F08158100020B1020020AA02002031
:10524000AB020020540D002010B525480068401C1A
:105250002349086008460068224988423FD300205D
:105260001F4908602048D0F8C42090F9BD100020E4
:1052700000F0F6FE1C48D0F8C82090F9BE100120BE
:1052800000F0EEFE1848D0F8CC2090F9BF100220B4
:1052900000F0E6FE1448D0F8D02090F9C0100320AA
:1052A00000F0DEFE1048D0F8D42090F9C1100420A0
:1052B00000F0D6FE0C48D0F8D82090F9C210052096
:1052C00000F0CEFE084AD2F8681492F8660400F0A6
:1052D0009BFE054B5A689978587800F07FFF10BD07
:1052E00020030020005C2605D004002010B50446F1
:1052F00040F205310E4808F051FB0E480078401C82
:105300000C49087040F20531094808F054FB0A487E
:1053100001780078401C084A107008484454104630
:105320000078FF2802D100201146087010BD00004F
:10533000004800403A030020390300208315002074
:1053400003480078002801DD012070470020FCE7B9
:105350003A03002010B500241148007800281DDD14
:10536000104801780078401C0E4A10700E48445CCA
:1053700010460078FF2802D100201146087040F244
:1053800005310A4808F00AFB05480078401E044928
:10539000087040F20531054808F00DFB204610BDAD
:1053A0003A03002038030020831500200048004005
:1053B00070B505460E46002400BF0CE0295D074885
:1053C00008F07BFA00BF0721044808F0C8FA00285B
:1053D000F9D0601CC4B2B442F0DB70BD004800409C
:1053E00010B500241848007810B1012829D10AE02E
:1053F000002001F089F901F0C9FB13480078401C36
:10540000114908701EE002F079FB0446092C15D200
:10541000DFE804F00F0506070810111213000EE074
:105420000DE00CE009480A490860002006490870B0
:1054300005E000BF00BF00BF00BF00E000BF00BF2D
:1054400000E000BF00BF10BD8800002085B7000845
:105450001C0000202DE9F041ADF5D26D00274FF47E
:105460000C710DF58C60FEF7CCFE4FF40C718CA81E
:10547000FEF7C7FE4FF40C716846FEF7C2FE00242B
:1054800000250026A04690480078C0F3800058B15F
:105490008E48007840B18C48007820F004008A499A
:1054A00008700020894908708848007810B10128E8
:1054B0007ED13CE0002086490880864908808649E4
:1054C000088086490870864908808649087001F07E
:1054D0001BF901F0C7FB04210DF58C6002F016FBEF
:1054E00004467B480388022221460DF58C6004F0B7
:1054F00087FC05218CA802F009FB05467548038846
:10550000042229468CA804F07BFC0621684602F0A0
:10551000FDFA06467048038806223146684604F0C4
:105520006FFC6A480078401C68490870C6E002F0C9
:10553000E5FA0746092F21D2DFE807F01B050C1317
:105540001A1C1D1E1F0068486849086000205F493A
:10555000087014E066486549086000205B490870DF
:105560000DE064486149086000205849087006E071
:1055700005E000BF00BF00BF00BF00E000BF00BFEC
:105580005648007800287CD056480078401C554981
:105590000870084600781E2874DB002008704C480C
:1055A0000088401C4A4908804A480088401C00E0A6
:1055B00083E04849088048480088401C46490880E4
:1055C0004FF40C710DF58C60FEF71BFE4FF40C715F
:1055D0008CA8FEF716FE4FF40C716846FEF711FE1C
:1055E00004210DF58C6002F091FA044605218CA887
:1055F00002F08CFA05460621684602F087FA064654
:10560000AC4201DB204600E028468046B04501DB85
:10561000404600E030468046802C01DD404600E0F8
:1056200020460446802D01DD404600E02846054620
:10563000802E01DD404600E03046064624480088C2
:10564000A04202DB00202249088022480088A842AC
:1056500002DB00201F4908801F480088B04202DB9F
:1056600000201D4908801A480388022221460DF5B2
:105670008C6004F0C5FB17480388042229468CA8D7
:1056800001E00AE018E004F0BBFB1348038806229F
:105690003146684604F0B4FB0EE011480088401C17
:1056A0000F49088008460088B0F57A7F04DB0020A7
:1056B000088001200949087000E000BF00BF0DF517
:1056C000D26DBDE8F08100000C00002067000020D2
:1056D000680000206A0000206C0000206E0000209E
:1056E0007000002072000020F95600081C00002005
:1056F00005940008CD9C00082DE9F041ADF5D26D70
:1057000000274FF40C710DF58C60FEF77AFD4FF415
:105710000C718CA8FEF775FD4FF40C716846FEF70E
:1057200070FD002400250026A04690480078C0F3B4
:10573000800058B18E48007840B18C48007820F045
:1057400004008A4908700020894908708848007858
:1057500010B101287ED13CE00020864908808649AE
:1057600008808649088086490870864908808649ED
:10577000087000F0C9FF01F01FFA01210DF58C60DF
:1057800002F0C4F904467B480388022221460DF545
:105790008C6004F035FB02218CA802F0B7F90546B5
:1057A00075480388042229468CA804F029FB0321AC
:1057B000684602F0ABF90646704803880622314677
:1057C000684604F01DFB6A480078401C6849087070
:1057D000C6E002F093F90746092F21D2DFE807F06F
:1057E0001B050C131A1C1D1E1F0068486849086021
:1057F00000205F49087014E0664865490860002091
:105800005B4908700DE06448614908600020584910
:10581000087006E005E000BF00BF00BF00BF00E069
:1058200000BF00BF5648007800287CD0564800785A
:10583000401C55490870084600781E2874DB00207B
:1058400008704C480088401C4A4908804A48008833
:10585000401C00E083E04849088048480088401C1C
:10586000464908804FF40C710DF58C60FEF7C9FCB9
:105870004FF40C718CA8FEF7C4FC4FF40C71684611
:10588000FEF7BFFC01210DF58C6002F03FF90446E4
:1058900002218CA802F03AF905460321684602F07D
:1058A00035F90646AC4201DB204600E0284680463A
:1058B000B04501DB404600E030468046802C01DDEB
:1058C000404600E020460446802D01DD404600E0D1
:1058D00028460546802E01DD404600E0304606465B
:1058E00024480088A04202DB002022490880224888
:1058F0000088A84202DB00201F4908801F4800885A
:10590000B04202DB00201D4908801A4803880222A9
:1059100021460DF58C6004F073FA174803880422C1
:1059200029468CA801E00AE018E004F069FA13485F
:10593000038806223146684604F062FA0EE01148F8
:105940000088401C0F49088008460088B0F57A7F1F
:1059500004DB0020088001200949087000E000BF36
:1059600000BF0DF5D26DBDE8F08100000C000020F5
:1059700073000020740000207600002078000020D2
:105980007A0000207C0000207E0000201D9F00087F
:105990001C00002055540008CD9C000811480088C8
:1059A000401C1049088008460088B0F5FA7F18DBD3
:1059B000002008800C48007828B102200B490860BC
:1059C0000120086005E002200849091D0860012047
:1059D00008600548007808B9012000E0002002496D
:1059E000087070472A0300202C030020100C01408F
:1059F0002DE9F041ADF5D26D00274FF40C710DF596
:105A00008C60FEF7FEFB4FF40C718CA8FEF7F9FBDF
:105A10004FF40C716846FEF7F4FB002400250026C5
:105A2000A046A3480078C0F3800058B1A148007890
:105A300040B19F48007820F004009D490870002084
:105A40009C4908709B48007810B101284AD14AE06F
:105A50000020994908809949088099490880994906
:105A600008809949087099490870994801789948BF
:105A7000007801F095FC022395480278954801785A
:105A80000DF58C6002F072F904468B4803880222FF
:105A900021460DF58C6004F0B3F904238C4802789C
:105AA0008C4801788CA802F061F905468348038888
:105AB000042229468CA804F0A3F90623844802781E
:105AC00084480178684602F051F906467C4803880C
:105AD00006223146684604F093F976480078401C67
:105AE00074490870DEE002F009F80746092F30D249
:105AF000DFE807F02A05121F292B2C2D2E007448F1
:105B00000078012807DD72480078401E704908704F
:105B10000020684908701DE06D4800780A2807DAFF
:105B20006B480078401C6A49087000206149087081
:105B300010E069486949086000205E49087001204A
:105B40006349087006E005E000BF00BF00BF00BF6A
:105B500000E000BF00BF5D48007800287DD05A48B3
:105B60000078401C58490870084600781E2875DBEC
:105B70000020087050480088401C4F4908804F485A
:105B80000088401C4D4908804D480088401C4C4905
:105B900008804FF40C710DF58C60FEF732FB4FF46A
:105BA0000C718CA8FEF72DFB4FF40C716846FEF7C4
:105BB00028FB022346480278464801780DF58C60A0
:105BC00002F0D4F8044604234148027841480178A1
:105BD0008CA802F0CBF8054606233D4802783D48E4
:105BE0000178684602F0C2F80646AC4201DB204666
:105BF00000E028468046B04501DB404600E03046E4
:105C00008046802C01DD404600E020460446802D81
:105C100001DD404600E028460546802E01DD404675
:105C200000E03046064624480088A04202DB0020FF
:105C30002149088021480088A84202DB00201F4932
:105C400008801F480088B04202DB00201C49088001
:105C5000194803880222214601E013E021E00DF5F6
:105C60008C6004F0CDF815480388042229468CA8DE
:105C700004F0C6F81248038806223146684604F04C
:105C8000BFF80EE00F480088401C0E490880084607
:105C90000088B0F57A7F04DB0020088001200B49E2
:105CA000087000BF00BF0DF5D26DBDE8F0810000A7
:105CB0000C0000204D000020500000205200002069
:105CC00054000020580000205A00002056000020F8
:105CD0004E00002020000020E15C00081C00002095
:105CE00010B5002465480078C0F3800058B16448BE
:105CF000007840B16148007820F004005F490870E6
:105D000000205F4908705E48007810B101287DD1FD
:105D100028E001205B4908705B490870002000F012
:105D2000F3FC01F051F958480278564801780220F6
:105D300000F0EEFF53480078401CC1B25248027890
:105D4000042000F0E5FF4F480078801CC1B24E48A7
:105D50000278062000F0DCFF49480078401C4849E2
:105D6000087089E001F0CAFE0446092C6FD2DFE812
:105D700004F07A0534676F7B7C7D7E0042480078B2
:105D8000012829DD40480078401E3F4908703D4801
:105D900000780978884204DD3A480078401E394985
:105DA000087001F011F9384802783648017802206D
:105DB00000F0AEFF33480078401CC1B23248027890
:105DC000042000F0A5FF2F480078801CC1B22E48A7
:105DD0000278062000F09CFF4BE02B4800780A2850
:105DE0002DDA29480078401C2749087008460078B9
:105DF00024490978401A032804DB22480078401C13
:105E00002049087001F0E0F81F4800E033E0027814
:105E10001C480178022000F07BFF1A480078401CE3
:105E2000C1B219480278042000F072FF15480078CA
:105E3000801CC1B214480278062000F069FF18E007
:105E400012481349086000200D49087011E00FE066
:105E50000D4800780F4908700F480D490860002070
:105E60000749087005E000BF00BF00BF00BF00E0A9
:105E700000BF00BF00E000BF00BF10BD0C0000204D
:105E80005B0000205C0000205D000020CD9C00082D
:105E90001C00002020000020F1590008704700007D
:105EA00010B51E48007810B1012833D10AE0002057
:105EB00000F02AFC01F098F818480078401C1749B7
:105EC000087028E016480078401C154908700846FC
:105ED000007832281DDB0020087012480078401C32
:105EE000104908700846007801F040FA0D48007823
:105EF0005A2807D10C480078C0F3400010B90B486D
:105F00000B49086007480078642802DB0948084903
:105F1000086000E000BF00BF10BD00008900002045
:105F20008A0000208B0000200C000020E1530008B4
:105F30001C00002085B7000810B51348007810B188
:105F400001281DD10AE0002000F0DEFB01F0AAF8D4
:105F50000D480078401C0C49087012E00B4800887E
:105F6000401C0A49088008460088B0F5FA6F06DB35
:105F7000002008800449087005480649086000E0D0
:105F800000BF00BF10BD00008C0000208E0000206C
:105F9000A15E00081C00002010B502460020184B2E
:105FA00093F81037002B05DD154BD3F898368B424C
:105FB00000D310BD1D200FE0431E124CE45C114BBA
:105FC0001C54431E0F4C203454F823400D4B2033F7
:105FD00043F82040431ED8B20028EDDC084B83F87C
:105FE0007826C3F8981693F810371E2B06DA044B60
:105FF00093F810375B1C024C84F8103700BFD8E7C9
:10600000D0040020480B002010B5024600201D20BF
:106010000FE0431E104CE45C0F4B1C54431E0E4C0F
:10602000203454F823400C4B203343F82040431EC7
:10603000D8B20028EDDC094B83F86C24C3F88C142B
:1060400093F804351E2B06DA044B93F804355B1CD9
:10605000024C84F8043510BD3C090020D004002017
:1060600070B50B4600211D211FE0C0EB00151B4C35
:1060700004EB45054C1E2D5DC0EB0016174C04EBE0
:1060800046046554C0EB0015144CB43404EBC5054C
:106090004C1E55F82450C0EB0016104CB43404EBE1
:1060A000C60444F821504C1EE1B20029DDDCC0EBEF
:1060B00000150A4C04F81530C0EB0015B43444F850
:1060C000352004F53474245C1E2C05DA044C245C61
:1060D000641CE5B2024C255470BD0000AC050020E4
:1060E0003009002030B5034600201E4C94F87C484F
:1060F000002C05DD1B4CD4F80448944200D330BD7D
:106100001D2018E0441E184D2D5D174C2554441ECB
:10611000154D3C3D35F81450134C3C3C24F81050C0
:10612000441E114D1E3555F824500F4C1E3444F8B2
:106130002050441EE0B20028E4DC0A4C84F8E63724
:10614000A4F8AA17C4F8042894F87C481E2C06DA90
:10615000044C94F87C48641C024D85F87C4800BFD0
:10616000CDE70000D0040020B60C002030B5034677
:106170000020184C94F8A847002C05DD154CD4F8E5
:106180003047944200D330BD1D200FE0441E124D15
:106190002D5D114C2554441E0F4D1F3555F82450CC
:1061A0000D4C1F3444F82050441EE0B20028EDDCB2
:1061B000084C84F81117C4F8302794F8A8471E2C0F
:1061C00006DA044C94F8A847641C024D85F8A847E9
:1061D00000BFD8E7D0040020E10B002030B5034613
:1061E00000201D2016E0441E154D2D5D144C255435
:1061F000441E134D1E352D5D114C1E342554441E76
:106200000F4D3C3555F824500D4C3C3444F820508B
:10621000441EE0B20028E6DC094C083C237284F8F6
:106220002610626494F8BC401E2C08DA044C083C2A
:1062300094F8BC40641C024D083D85F8BC4030BD5C
:10624000D804002010B5CD210348FDF7DAFF03483C
:106250000021016010BD00002C120020C0020020AF
:1062600010B50024FEF7F0FF04F0A0FA04F010F9D6
:10627000FFF766F840B1FFF76DF80446204604F0DA
:1062800079F9204604F0CEFA03F046FB10BD2DE963
:10629000F04105460E4600270EB1FF2700E000271B
:1062A000284605F0EAF9002005F0CAF9002404E0C8
:1062B000384605F04BFF601CC4B2802CF8DB691C2B
:1062C000C8B205F0DAF9002005F0BAF9002404E0BC
:1062D000384605F03BFF601CC4B2802CF8DBBDE8FB
:1062E000F08100002DE9F04104460F4616460025D6
:1062F0000EB9BDE8F081C4EB04112E4850F831000E
:10630000B04203D242F21070874200DDF1E71D2552
:1063100021E0C4EB041127487A3800EB8101681EA4
:1063200031F81010C4EB041222487A3800EB8200D6
:1063300020F81510C4EB04111E4800EBC101681EC3
:1063400051F82010C4EB04121A4800EBC20040F8C8
:106350002510681EC5B2002DDBDCC4EB0411154806
:106360007A3820F82170C4EB04117A3040F831609B
:10637000F030005D1E2807DA0E48F030005D401C4A
:10638000C1B20C48F03001550B480C49B1F87016F9
:10639000A0F86811782207497A39FDF719FFF02231
:1063A000044905487830FDF713FF05F0C5FB00BF31
:1063B0009FE70000500A002060030020D004002066
:1063C00010B54FF4805006F003FC78B14FF48050C4
:1063D00006F0F8FB2548007800F0010030B92348AA
:1063E000007820F00100401C204908704FF4005054
:1063F00006F0EEFB78B14FF4005006F0E3FB1B48CB
:106400000078C0F3400030B91848007820F002004E
:10641000801C164908704FF4804006F0D9FB78B113
:106420004FF4804006F0CEFB10480078C0F38000A7
:1064300030B90E48007820F00400001D0B490870A8
:106440004FF4004006F0C4FB78B14FF4004006F072
:10645000B9FB06480078C0F3C00030B903480078A3
:1064600020F0080008300149087010BD3C030020EE
:1064700010B541480088401C3F4908803F480088CB
:10648000401C3E4908803E480088401C3C4908802A
:106490003C480088401C3B4908803B480088401C21
:1064A000394908803448008841F28831884209DB44
:1064B0000020314908803548007800F0010008B913
:1064C000FEF710FD2D480088B0F5FA6F0EDB0020B6
:1064D0002A4908802D480078C0F3400030B92B4885
:1064E000007800F0010008B105F0A8FB24480088FE
:1064F000B0F5FA6F0BDB00202149088023480078B3
:1065000000F0010008B103F01DFF02F071FF1D480B
:106510000088B0F57A7F14DB00201A4908801B48F8
:10652000007800F0010060B118480078C0F3400026
:1065300030B116480078C0F3C00008B105F094FBF4
:1065400000BF11480088B0F57A7F13DB00200E49A8
:1065500008800E48007800F0010058B10B48007820
:10656000C0F3400030B109480078C0F3C00008B162
:1065700005F0AEFC10BD0000B6020020B8020020FD
:10658000BA020020BC020020BE02002058100020E9
:106590000E4C0021084604F0CDF9052006F084FADF
:1065A00072B64FF05A30206000BFBFF34F8F0848DB
:1065B000006800F4E06007490843001D04490860D2
:1065C000BFF34F8F00BF00BFFEE70000FC4F00206D
:1065D0000CED00E00000FA05F0B5E7B0002600245D
:1065E000002500274FF4B87241490BA8FDF7F0FDD4
:1065F0004FF4B6710BA8FEF75BFC06466698B042F6
:106600003FD1BDF8960102283BD14FF4B8720BA9D7
:106610003848FDF7DDFD38483649B1F86811A0F873
:1066200070167822334900F20650FDF7D1FDF022B2
:10663000304978313148FDF7CBFD00BF1EE0002521
:106640000EE0C4EB04102B4901EB800030F815007C
:1066500044F62061884201DD012703E0681CC5B2D1
:106660001E2DEEDB00BF3FB14FF4B8712148FDF79E
:10667000C8FD05F061FA03E0601CC4B2022CDEDB49
:106680000AE04FF4B8711B48FDF7BBFD0220194921
:10669000A1F86A0105F050FA2822194901A8FDF76E
:1066A00097FD242101A8FEF703FC06460A98B04294
:1066B00005D1282201A91348FDF78AFD15E0002025
:1066C0001049086018210F48001DFDF79AFD0120B0
:1066D0000C4908774FF4E130086224210948FEF79D
:1066E000E7FB0849486205F0B9FC67B0F0BD00005F
:1066F00000F8000860030020D0040020500A0020A9
:1067000000FC00088416002070B50646002410E046
:10671000204604F0B2FF022004F092FF002504E0BE
:10672000304605F013FD681CC5B2802DF8DB601CF7
:10673000C4B2082CECDB70BD10B5044606F044FB77
:1067400040F2023006F0A4FA4FF4417006F0A0FACD
:1067500040F2053006F09CFA204606F0BFFA40F2FF
:10676000023006F095FA4FF4417006F091FA40F2CB
:10677000053006F08DFA06F09BFA10BD2DE9F041C8
:106780009CB00746B2A000681B90B2A000681A90A7
:10679000B1A000681990602101A8FDF732FD002525
:1067A00000240026A04600BF29E0002420E01BA80A
:1067B000405DAA49095D884218D101A800EBC600D6
:1067C000A74A02EB04110A6802604968416001A906
:1067D000701C01EBC000012101EB4401A04A02EB57
:1067E000C1010A6802604968416003E0601CC4B2EC
:1067F000302CDCD300BFB01CC6B2681CC5B2022D61
:10680000D3DB002529E0002420E01AA8405D93494D
:10681000095D884218D101A800EBC600904A02EB3E
:1068200004110A6802604968416001A9701C01EB0B
:10683000C000012101EB4401894A02EBC1010A6851
:1068400002604968416003E0601CC4B2302CDCD3B4
:1068500000BFB01CC6B2681CC5B2022DD3DB002538
:1068600029E0002420E019A8405D7C49095D8842A8
:1068700018D101A800EBC600794A02EB04110A689E
:1068800002604968416001A9701C01EBC000012150
:1068900001EB4401724A02EBC1010A6802604968D7
:1068A000416003E0601CC4B2302CDCD300BFB01CDC
:1068B000C6B2681CC5B2022DD3DB78064FEA106859
:1068C00000200423202201460090664804F01FFFA8
:1068D000B8F1020F3CD101210220FFF7D8FC0120C2
:1068E000102302221146009001A804F0D6FE0120D8
:1068F00004232022022100905B4804F008FF0021BD
:106900000420FFF7C4FC0020102304220221009081
:1069100009A804F0C2FE002004232022194600909A
:10692000524804F0F4FE00210620FFF7B0FC0020DE
:10693000102306220221009011A804F0AEFE0020D0
:106940000423202206210090494804F0E0FE7BE069
:10695000B8F1040F3CD100210220FFF798FC002081
:10696000102302221146009001A804F096FE002098
:1069700004232022022100903B4804F0C8FE01219C
:106980000420FFF784FC0120102304220221009040
:1069900009A804F082FE0120042320221946009059
:1069A000324804F0B4FE00210620FFF770FC0020FE
:1069B000102306220221009011A804F06EFE002090
:1069C0000423202206210090294804F0A0FE3BE089
:1069D00000210220FFF75BFC002010230222114659
:1069E000009001A804F059FE002004232022022177
:1069F00000901D4804F08BFE00210420FFF747FCA7
:106A00000020102304220221009009A804F045FE72
:106A100000200423202219460090144804F077FE39
:106A200001210620FFF733FC01201023062202215A
:106A3000009011A804F031FE012004232022062139
:106A400000900B4804F063FE1CB0BDE8F08100002C
:106A5000312E0000322E0000332E0000B2DC000880
:106A6000E3DC000832DC0008E3DF000813E3000881
:106A700093E300082DE9F041A0B007468846702155
:106A800004A8FDF7BEFB002400250026002002908C
:106A90000390FFF739FE424635A102A805F082FBBC
:106AA00000BF2BE0002524E002A8005D3249495DCB
:106AB00088421CD104A901EB0410304A02EB0511F5
:106AC0000A68026049684160012000EB440004A9A3
:106AD00001EBC000012101EB4501284A02EBC10195
:106AE0000A68026049684160701CC6B203E0681C15
:106AF000C5B2302DD8D300BF601CC4B202A8FDF7C8
:106B00008BFBA042CED800200346024631460090BF
:106B100004A804F0C2FDF006060E012F04D0022FD7
:106B20000ED0032F1ED114E000200423324601466C
:106B30000090134804F0EBFD06F14000C6B212E0ED
:106B4000002004233246014600900E4804F0DFFD89
:106B500009E0002004233246014600900A4804F070
:106B6000D6FD00E000BF00BF20B0BDE8F08100000E
:106B70002825642F31302900B2DC0008E3DC00084E
:106B8000E3DF000813E3000893E3000808B50020E2
:106B90000623102201210090054804F0B8FD0020D2
:106BA0000223602206210090024804F0B0FD08BDD7
:106BB00073E4000833E5000830B597B0502103A80E
:106BC000FDF71FFB22A103C9CDE901010025002427
:106BD00000BF29E0002422E001A8405D1E49095DB4
:106BE00088421AD103A901EB05101C4A02EB0411DB
:106BF0000A68026049684160012000EB450003A972
:106C000001EBC000012101EB4401144A02EBC10178
:106C10000A6802604968416003E0601CC4B2302C1D
:106C2000DAD300BF681CC5B2052DD3D300200346BC
:106C300002460521009003A804F02FFD0020042344
:106C4000282201460090064804F061FD17B030BDCF
:106C500028322F3429000000B2DC0008E3DC0008F1
:106C600013E3000830B597B0502103A8FDF7C9FA27
:106C700022A103C9CDE901010025002400BF29E0BC
:106C8000002422E001A8405D1E49095D88421AD116
:106C900003A901EB05101C4A02EB04110A6802600B
:106CA00049684160012000EB450003A901EBC000E9
:106CB000012101EB4401144A02EBC1010A680260A0
:106CC0004968416003E0601CC4B2302CDAD300BFD5
:106CD000681CC5B2052DD3D300200346024605210A
:106CE000009003A804F0D9FC0020042328220146C8
:106CF0000090064804F00BFD17B030BD28332F3448
:106D000029000000B2DC0008E3DC000813E30008FF
:106D10002DE9F04F8DB081460E469246302101A8F4
:106D2000FDF76FFA0024564501D1012000E0002054
:106D300007464FF0000800250A2E24DA4FF002081B
:106D4000002419E09848015D06F13000814211D11C
:106D5000964901EB041001680191406802900120FE
:106D600000EB4400914901EBC000016803914068C9
:106D7000049003E0601CC4B2302CE3D300BF05F1E3
:106D80000800C5B248E04FF0040800241BE00A20C8
:106D900096FBF0F030308449095D884211D1834977
:106DA00001EB04100168019140680290012000EBA2
:106DB00044007E4901EBC0000168039140680490E3
:106DC00003E0601CC4B2302CE1D300BF00241DE0FE
:106DD0000A2096FBF0F100FB116030307249095D2A
:106DE000884211D1714901EB041001680591406896
:106DF0000690012000EB44006C4901EBC0000168E3
:106E000007914068089003E0601CC4B2302CDFD3C7
:106E100000BF05F11000C5B200241FE06248005D0C
:106E20002E2819D101A800EBC800604A02EB04111A
:106E30000A6802604968416001A908F1010001EB9C
:106E4000C000012101EB4401584A02EBC1010A686C
:106E500002604968416003E0601CC4B2302CDDD39D
:106E600000BF08F1020000F0FF0805F10800C5B2FC
:106E700039464846FFF70BFAC34608EBDB70411072
:106E800000234A4601A8009704F007FC0B2E6CD2A1
:106E9000DFE806F06B06111C2728292A2B2C60003E
:106EA00002232A4649464248009704F030FC05F187
:106EB0002000C5B259E002232A4649463D480097C2
:106EC00004F025FC05F12000C5B24EE003232A465C
:106ED00049463948009704F01AFC05F14000C5B254
:106EE00043E000BF00BF00BF00BF00BF04232A462D
:106EF00049463248009704F00AFC05F14000C5B24B
:106F0000002419E006F12D002749095D884211D1BE
:106F1000264901EB041001680191406802900120AC
:106F200000EB4400214901EBC00001680391406877
:106F3000049003E0601CC4B2302CE3D300BF2B46A6
:106F40004A46012101A8009704F0A7FB05F10800BB
:106F5000C5B20AE004232A4649461948009704F0BE
:106F6000D6FB05F14000C5B200BF00BFB9F1020F6A
:106F700009D1012E14DD01236822494611480097EA
:106F800004F0C5FB0CE0B9F1060F09D10A2E07DAAF
:106F90000123682249460B482030009704F0B7FBD4
:106FA0000DB0BDE8F08F0000B2DC0008E3DC0008A3
:106FB00083E00008C3E0000883E1000813E3000851
:106FC00093E3000813E4000808B50020FFF79CFBDA
:106FD00000200423024601460090024804F097FB7B
:106FE00008BD000092DB000830B58FB0302103A847
:106FF000FDF707F926A0006802900025002400BFD5
:1070000029E0002422E002A8405D2249095D88426F
:107010001AD103A901EB05101F4A02EB04110A68FB
:10702000026049684160012000EB450003A901EBC3
:10703000C000012101EB4401174A02EBC1010A68BB
:1070400002604968416003E0601CC4B2302CDAD3AE
:1070500000BF681CC5B2032DD3D3002003231C221C
:10706000012100900D4804F052FB00204C23012226
:107070000321009003A804F010FB00200D2306223A
:1070800019460090064804F008FB0FB030BD000020
:107090002E2E2E00B2DC0008E3DC0008E3E100083D
:1070A00043E2000830B5A9B0902105A8FDF7A9F882
:1070B00039A207CA02AB07C30025002400BF29E09C
:1070C000002422E002A8405D3649095D88421AD1B9
:1070D00005A901EB0510344A02EB04110A680260AD
:1070E00049684160012000EB450005A901EBC000A3
:1070F000012101EB44012C4A02EBC1010A68026044
:107100004968416003E0601CC4B2302CDAD300BF90
:10711000681CC5B2092DD3D300201C2301220921EC
:10712000009005A804F0B9FA002529E0002422E027
:107130001E48405D1B49095D88421AD105A901EB33
:107140000510194A02EB04110A680260496841609F
:10715000012000EB450005A901EBC000012101EB76
:107160004401114A02EBC1010A68026049684160AA
:1071700003E0601CC4B2302CDAD300BF681CC5B277
:10718000052DD3DB00202C2305221146009005A8F5
:1071900004F083FA29B030BD4D564A432D323030C9
:1071A00030000000B2DC0008E3DC00081000002022
:1071B00030B597B0502103A8FDF723F822A103C9E9
:1071C000CDE901010025002400BF29E0002422E0D0
:1071D00001A8405D1E49095D88421AD103A901EB4F
:1071E00005101C4A02EB04110A68026049684160FC
:1071F000012000EB450003A901EBC000012101EBD8
:107200004401144A02EBC1010A6802604968416006
:1072100003E0601CC4B2302CDAD300BF681CC5B2D6
:10722000052DD3D30020034602460521009003A874
:1072300004F033FA00200423282201460090064877
:1072400004F065FA17B030BD28342F34290000004F
:10725000B2DC0008E3DC000893E3000838B505461B
:107260006806040E002003232822014600903B48B4
:1072700004F04DFA022C24D101210220FFF707F877
:1072800001200523182202210090354804F03FFA1E
:1072900000210420FEF7FBFF002005231822042113
:1072A0000090304804F033FA00210620FEF7EFFF8B
:1072B000002005231822062100902B4804F027FA0D
:1072C0004AE0042C24D100210220FEF7E0FF002038
:1072D0000523182202210090214804F018FA012108
:1072E0000420FEF7D4FF012005231822042100907A
:1072F0001C4804F00CFA00210620FEF7C8FF00200D
:107300000523182206210090174804F000FA23E014
:1073100000210220FEF7BBFF0020052318220221D6
:1073200000900F4804F0F3F900210420FEF7AFFFAE
:10733000002005231822042100900A4804F0E7F9F0
:1073400001210620FEF7A3FF0120052318220621B4
:107350000090054804F0DBF938BD000072DA00083F
:10736000D2DA000872DB000812DC000838B50446E7
:107370000AA0006800909DF8000023460F22062115
:1073800004F054FEC4F16401CBB204F10F01CAB29F
:107390009DF80100062104F049FE38BDF888000080
:1073A0002DE9F041A0B007468846702104A8FCF7FB
:1073B00028FF002600240025002002900390FFF7FC
:1073C000A3F9424656A102A804F0ECFE00BF2BE050
:1073D000002424E002A8805D5349095D88421CD145
:1073E00004A901EB0610514A02EB04110A6802607D
:1073F00049684160012000EB460004A901EBC00090
:10740000012101EB4401494A02EBC1010A68026013
:1074100049684160681CC5B203E0601CC4B2302CEE
:10742000D8D300BF701CC6B202A8FCF7F5FEB0426C
:10743000CED80020034602462946009004A804F056
:107440002CF9E806050E0B2F64D2DFE807F063067F
:10745000121B2425262728295A00002002232A4609
:1074600001460090324804F052F905F12000C5B2FF
:1074700051E0002002232A46014600902D4804F0E6
:1074800046F948E0002003232A46014600902A4896
:1074900004F03DF93FE000BF00BF00BF00BF00BFE8
:1074A000002004232A4601460090244804F02FF9C6
:1074B00005F14000C5B2002418E007F12D001A497B
:1074C000095D884210D1194901EB0410016804914B
:1074D00040680590012000EB4400144901EBC00016
:1074E0000168069140680790601CC4B2302CE4D358
:1074F00000202B4602460121009004A804F0CDF89C
:1075000009E0002004232A46014600900C4804F0BC
:10751000FEF800E000BF00BF20B0BDE8F081000031
:107520002825642F31302900B2DC0008E3DC000894
:1075300083E00008C3E0000883E1000813E30008CB
:1075400093E300082DE9FF4F9BB0064689469A4613
:10755000202112A8FCF755FE14210DA8FCF751FEBE
:1075600000200C900B9080460024834600270025C5
:1075700050460AEBD0714A10521E1D99491E01EB6C
:107580004101491C114401F0FF08B9F1010F7DD1FF
:107590004246F7A112A804F005FEF64890F87C08D0
:1075A000404502DA4FF0010B01E04FF0000B0027DD
:1075B00027E0002520E012A8C05DEF49495D884220
:1075C00018D13019ED4A02EB05110A6802604968CA
:1075D000416006F58C702044012101EB4501E74A2A
:1075E00002EBC1010A6802604968416004F10800C9
:1075F00084B203E0681CC5B2302DDCD300BF781C18
:10760000C7B212A8FCF708FEB842D2D8A8F1010010
:10761000DB49085C08BB30191022DA49FCF7D8FDB9
:1076200006F58C7108191022D6491031FCF7D0FDEF
:1076300004F1100084B230191022D2492031FCF735
:10764000C7FD06F58C7108191022CE493031FCF7C0
:10765000BFFD04F1100084B222E030191022CA49A3
:10766000FCF7B6FD06F58C7108191022C6491031D9
:10767000FCF7AEFD04F1100084B230191022C249AB
:107680002031FCF7A5FD06F58C7100E0AEE008198D
:107690001022BD493031FCF79BFD04F1100084B28B
:1076A00000251EE0B448405D3A2818D13019B34A8D
:1076B00002EB05110A6802604968416006F58C70AA
:1076C0002044012101EB4501AC4A02EBC1010A68EB
:1076D00002604968416004F1080084B203E0681C5C
:1076E000C5B2302DDED300BFBBF1000F13D030196F
:1076F0001022A649FCF76CFD06F58C7108191022C2
:10770000A2491031FCF764FD04F1100084B2204658
:107710001FB0BDE8F08F202112A8FCF772FDA8F180
:107720000101974A3C3A32F81100FCF7CDFE984926
:107730000790FCF7AAFD0C90A8F1010090491E31BA
:1077400051F820000B9008A90B9804F083FB0C98CB
:10775000FCF7F1FECDE906019DF828009DF8271001
:107760009DF826209DF82530CDE90232CDE90410A0
:107770009DF824100898A0F5FA60CDE9000185A1D4
:1077800012A8DDE9062304F00DFD002727E00025FF
:1077900020E012A8C05D7849495D884218D13019AF
:1077A000764A02EB05110A6802604968416006F5F5
:1077B0008C702044012101EB4501704A02EBC101AC
:1077C0000A6802604968416004F1080084B203E07D
:1077D000681CC5B2302DDCD300BF781CC7B212A81C
:1077E000FCF71AFDB842D2D8204691E7B9F1020F52
:1077F0007ED142465EA112A804F0D4FC5D4890F808
:10780000A807404502DA4FF0010B0BE04FF0000BE8
:10781000A8F101005A49D5390B56424664A112A875
:1078200004F0C0FC002727E0002520E012A8C05D7E
:107830005149495D884218D13019504A02EB05116F
:107840000A6802604968416006F58C702044012195
:1078500001EB4501494A02EBC1010A68026049682F
:10786000416004F1080084B203E0681CC5B2302D09
:10787000DCD300BF781CC7B212A8FCF7CDFCB8421D
:10788000D2D8BBF1000F11D0301910223F49FCF7BC
:107890009FFC06F58C71081910223C491031FCF749
:1078A00097FC04F1100084B2204631E73019102211
:1078B0004149FCF78DFC06F58C71081910223E49F0
:1078C0001031FCF785FC04F1100084B2A8F101012D
:1078D0002B4AB63A52F8210008A904F0BBFA9DF8E9
:1078E00028009DF827109DF826209DF8253000E0FF
:1078F0006EE0CDE90032CDE902109DF82430089801
:10790000A0F5FA622DA10DA804F04CFC002727E099
:10791000002520E00DA8C05D1749495D884218D1B7
:107920003019164A02EB05110A6802604968416085
:1079300006F58C702044012101EB45010F4A02EB52
:10794000C1010A6802604968416004F1080084B21C
:1079500003E0681CC5B2302DDCD300BF781CC7B271
:107960000DA8FCF759FCB842D2D82046D0E600005A
:1079700025642E00D0040020B2DC0008E3DC0008FF
:10798000B60C002083E00008C3E0000853E40008C0
:107990000000204125302E31666D732025642F258F
:1079A000642F25642025643A25643A25642000006C
:1079B00025642E256400000063E000082025642F64
:1079C00025642F25642025643A25643A2564200027
:1079D000B9F1030F77D13D4890F81007404508DA18
:1079E0004246AFF2740112A804F0DCFB4FF0010B29
:1079F00024E0A8F10101364A52F8210008A904F058
:107A000029FA9DF828009DF827109DF826209DF85A
:107A10002530CDE90232CDE904109DF824100898F4
:107A2000A0F5FA60CDE90001A8F10100284920394C
:107A30000B5C424627A112A804F0B4FB002727E004
:107A4000002520E012A8C05D2949495D884218D16F
:107A50003019284A02EB05110A6802604968416042
:107A600006F58C702044012101EB4501214A02EB0F
:107A7000C1010A6802604968416004F1080084B2EB
:107A800003E0681CC5B2302DDCD300BF781CC7B240
:107A900012A8FCF7C1FBB842D2D8BBF1000F0FD03F
:107AA000301910221449FCF793FB06F58C71081964
:107AB000102211491031FCF78BFB04F1100084B245
:107AC000204625E6FFE7204622E60000D0040020FD
:107AD000680B002025642E256425252025642F258C
:107AE000642F25642025643A25643A25640000004B
:107AF000B2DC0008E3DC000853E40008024908781F
:107B00000021014A117070473E0300202DE9F04129
:107B100094B00546884600240026002720210CA8A2
:107B2000FCF76FFB142107A8FCF76BFB10228349BD
:107B30002846FCF74DFB10228049103105F58C706A
:107B4000FCF746FB10227D49203105F11000FCF7BF
:107B50003FFB10227949303105F59470FCF738FB72
:107B600000BF1BE07648015D08F13000814213D16F
:107B7000744901EB041001682962406868620120C1
:107B800000EB44006F4901EBC0010A68C5F83821D9
:107B90004968C5F83C1103E0601CC4B2302CE1D345
:107BA00000BF002419E06648005D3A2813D16549FA
:107BB00001EB04100168A9624068E862012000EB53
:107BC0004400604901EBC0010A68C5F840214968DA
:107BD000C5F8441103E0601CC4B2302CE3D300BFED
:107BE000A8F10100584951F8200080B910225749E6
:107BF00005F13000FCF7ECFA10225449103105F57C
:107C0000A470FCF7E5FA402014B0BDE8F0813027FD
:107C1000A8F101004C49C91F0A564DA10CA804F057
:107C2000C1FA002427E0002620E00CA8005D4449AA
:107C3000895D884218D1E819424A02EB06110A68A8
:107C400002604968416005F58C703844012101EB00
:107C500046013C4A02EBC1010A6802604968416082
:107C600007F1080087B203E0701CC6B2302EDCD3E7
:107C700000BF601CC4B20CA8FCF7CEFAA042D2D858
:107C8000E81910223349FCF7A3FA05F58C71C819DD
:107C9000102230491031FCF79BFA07F1100087B22F
:107CA000A8F10101284A52F8210004A904F0D2F8F1
:107CB0009DF818009DF817109DF816209DF81530B6
:107CC000CDE90032CDE902109DF814300498A0F5FA
:107CD000FA6221A107A804F065FA002427E0002633
:107CE00020E007A8005D1649895D884218D1E8198F
:107CF000144A02EB06110A6802604968416005F502
:107D00008C703844012101EB46010E4A02EBC1019F
:107D10000A6802604968416007F1080087B203E021
:107D2000701CC6B2302EDCD300BF601CC4B207A8E2
:107D3000FCF772FAA042D2D8384665E753E3000850
:107D4000B2DC0008E3DC00089405002053E40008DE
:107D50002564000063E000082025642F25642F259A
:107D6000642025643A25643A256420002DE9FF4FFC
:107D70009DB0064689469B46202114A8FCF741FA8F
:107D800014210FA8FCF73DFA00200E900D908046BC
:107D9000002582460027002458460BEBD0714A107C
:107DA000521E1F99491E01EB4101491C114401F06B
:107DB000FF08B9F1020F74DCA9F10100FB49085C6E
:107DC000404507DA4246FAA114A804F0EBF94FF057
:107DD000010A43E0A9F10101C1EB0112F54901EBF0
:107DE0008202A8F1010132F81100FCF76DFBF249A3
:107DF0000990FCF74AFA0E90A9F10100C0EB0011BE
:107E0000EC487A3000EBC101A8F1010051F82000E4
:107E10000D900AA90D9804F01DF80E98FCF78BFB45
:107E2000CDE908019DF830009DF82F109DF82E2017
:107E30009DF82D30CDE90432CDE906109DF82C10C7
:107E40000A98A0F5FA60CDE90201DDE90801424691
:107E5000CDE90001D9A114A804F0A4F9002728E075
:107E6000002421E014A8C05DDC49095D884219D1D5
:107E70007019DB4A02EB04110A680260496841602C
:107E800006F58C702844012101EB4401D44A02EB31
:107E9000C1010A6802604968416005F1080085B2C5
:107EA00004E022E0601CC4B2302CDBD300BF781C9D
:107EB000C7B214A8FCF7B0F9B842D1D8BAF1000F94
:107EC0000FD070191022C749FCF782F906F58C71A2
:107ED00048191022C3491031FCF77AF905F1100056
:107EE00085B2284621B0BDE8F08FB9F1030F79D1F2
:107EF000BD4890F8BC00404507DA4246ACA114A842
:107F000004F050F94FF0010A09E0A8F10100B64968
:107F100008310B5C4246B5A114A804F043F90027D0
:107F200027E0002420E014A8C05DAC49095D884228
:107F300018D17019AA4A02EB04110A680260496854
:107F4000416006F58C702844012101EB4401A44AEC
:107F500002EBC1010A6802604968416005F108004E
:107F600085B203E0601CC4B2302CDCD300BF781CA7
:107F7000C7B214A8FCF750F9B842D2D8BAF1000F32
:107F800011D0701910229749FCF722F906F58C716F
:107F90004819102293491031FCF71AF905F1100025
:107FA00085B228469EE7701910229249FCF710F915
:107FB00006F58C71481910228E491031FCF708F92A
:107FC00005F1100085B2202114A8FCF71AF9A8F1D8
:107FD0000100854926310A5C87A114A804F0E2F863
:107FE000002728E07BE0002420E014A8C05D7B4946
:107FF000095D884218D17019794A02EB04110A68A8
:1080000002604968416006F58C702844012101EB4B
:108010004401734A02EBC1010A6802604968416089
:1080200005F1080085B203E0601CC4B2302CDCD33B
:1080300000BF781CC7B214A8FCF7EEF8B842D2D83B
:10804000A8F10101684A443252F821000AA903F05C
:1080500001FF9DF830009DF82F209DF82E109DF80F
:108060002D30CDE90031CDE902209DF82C300A9861
:10807000A0F5FA6262A10FA804F094F8002727E0A7
:10808000002420E00FA8C05D5449095D884218D142
:108090007019534A02EB04110A6802604968416092
:1080A00006F58C702844012101EB44014C4A02EB97
:1080B000C1010A6802604968416005F1080085B2A3
:1080C00003E0601CC4B2302CDCD300BF781CC7B204
:1080D0000FA8FCF7A1F8B842D2D8284602E7B9F1B8
:1080E000090F62DCA9F104003249A639085C404559
:1080F00007DA42462EA114A804F054F84FF0010A02
:108100000FE0A9F10400C0EB00113748DC3000EBB0
:108110004101A8F101000B56424634A114A804F015
:1081200041F8002727E0002420E014A8C05D2B4977
:10813000095D884218D17019294A02EB04110A68B6
:1081400002604968416006F58C702844012101EB0A
:108150004401234A02EBC1010A6802604968416098
:1081600005F1080085B203E0601CC4B2302CDCD3FA
:1081700000BF781CC7B214A8FCF74EF8B842D2D89A
:10818000BAF1000F46D0701910221649FCF720F8FA
:1081900006F58C714819102212491031FCF718F8B5
:1081A00005F1100085B228469CE698E0400B0020BF
:1081B00025642E00D60900200000204125642E25CC
:1081C000302E31666D732025642F25642F256420A1
:1081D00025643A25643A256420000000B2DC0008DA
:1081E000E3DC000853E40008D004002025642E25B9
:1081F0006400000063E000082025642525000000DD
:108200002025642F25642F25642025643A25643AAF
:1082100025642000701910226C49FBF7D9FF06F580
:108220008C714819102269491031FBF7D1FF05F113
:10823000100085B2A9F10401C1EB0112644901EB00
:10824000C202A8F1010152F821000AA903F002FEBE
:108250009DF830009DF82F109DF82E209DF82D30B0
:10826000CDE90032CDE902109DF82C300A98A0F536
:10827000FA62AFF274010FA803F094FF002727E021
:10828000002420E00FA8C05D5249095D884218D142
:108290007019514A02EB04110A6802604968416092
:1082A00006F58C702844012101EB44014A4A02EB97
:1082B000C1010A6802604968416005F1080085B2A1
:1082C00003E0601CC4B2302CDCD300BF781CC7B202
:1082D0000FA8FBF7A1FFB842D2D8284602E63F48D4
:1082E00090F80405404508DA4246AFF23C1114A864
:1082F00003F058FF4FF0010A24E0A8F10101384AC9
:1083000052F821000AA903F0A5FD9DF830009DF860
:108310002F109DF82E209DF82D30CDE90232CDE9A9
:1083200004109DF82C100A98A0F5FA60CDE9000120
:10833000A8F101002A4920390B5C424629A114A862
:1083400003F030FF002727E0002420E014A8C05DE0
:108350002049095D884218D170191F4A02EB0411A7
:108360000A6802604968416006F58C702844012162
:1083700001EB4401184A02EBC1010A680260496836
:10838000416005F1080085B203E0601CC4B2302CE6
:10839000DCD300BF781CC7B214A8FBF73DFFB8427E
:1083A000D2D8BAF1000F0FD0701910221449FBF780
:1083B0000FFF06F58C714819102211491031FBF797
:1083C00007FF05F1100085B228468BE563E0000841
:1083D00060060020B2DC0008E3DC0008D0040020C6
:1083E0005C09002025642E256425252025642F2581
:1083F000642F25642025643A25643A256400000032
:1084000053E4000830B589B0202101A8FBF7F9FE3C
:108410000024002512480078C0F3800229466D1C14
:1084200001A8425400BF12E00E4830F824000212A6
:108430002846691CCDB201A90A540A4810F8242024
:108440002846691CCDB201A90A54601CC4B20F2C85
:10845000EADB1F2201A9032002F04CF909B030BD6C
:1084600058100020C611002030B589B0202101A885
:10847000FBF7C7FE0024002500BF14E00E4800EB08
:108480008400408802122846691CCDB201A90A5412
:10849000094800EB840082782846691CCDB201A906
:1084A0000A54601CC4B20F2CE8DB1E2201A905206F
:1084B00002F020F909B030BDC61100202DE9F041CD
:1084C00090B004468846002500260027202108A8F1
:1084D000FBF797FE10224F492046FBF779FE10224A
:1084E0004C49103104F58C70FBF772FE102249499B
:1084F000203104F11000FBF76BFE102245493031AA
:1085000004F59470FBF764FE00BF19E04248405D3B
:108510003A2813D1414901EB0510016821624068F6
:108520006062012000EB45003C4901EBC0010A6894
:10853000C4F838214968C4F83C1103E0681CC5B28E
:10854000302DE3D300BF3648D0F8680480B910223C
:10855000344904F12800FBF73BFE10223149103169
:1085600004F5A070FBF734FE382010B0BDE8F081B0
:1085700028272B49D1F8680405A903F06BFC9DF866
:108580001C009DF81B109DF81A209DF81930CDE9AC
:108590000132CDE903109DF8180000900598A0F570
:1085A000FA631F4890F866241FA108A803F0FAFD9B
:1085B000002527E0002620E008A8405D1649895DD7
:1085C000884218D1E019154A02EB06110A680260C8
:1085D0004968416004F58C703844012101EB460183
:1085E0000E4A02EBC1010A6802604968416007F166
:1085F000080087B203E0701CC6B2302EDCD300BF87
:10860000681CC5B208A8FBF707FEA842D2D83846B6
:10861000ABE70000D3E30008B2DC0008E3DC0008AD
:10862000D004002053E40008256425252025642F6C
:1086300025642F25642025643A25643A25640000CA
:108640002DE9F04190B007468846202108A8FBF7A5
:10865000D8FD002600240025B8F1000F3FD1A6A1C7
:1086600008A803F09FFD0F22A5490DF12500FBF797
:10867000AFFD20208DF8340000BF27E0002420E06B
:1086800008A8805D9F49095D884218D178199E4AE3
:1086900002EB04110A6802604968416007F58C70BA
:1086A0002844012101EB4401974A02EBC1010A6809
:1086B00002604968416005F10800C5B203E0601C32
:1086C000C4B2302CDCD300BF701CC6B208A8FBF7C4
:1086D000A3FDB042D2D8284610B0BDE8F081B8F171
:1086E000020F38D1864808384368827887A108A8E5
:1086F00003F058FD002627E0002420E008A8805D54
:108700008049095D884218D178197F4A02EB04112B
:108710000A6802604968416007F58C7028440121AD
:1087200001EB4401784A02EBC1010A680260496822
:10873000416005F10800C5B203E0601CC4B2302CF2
:10874000DCD300BF701CC6B208A8FBF765FDB042C1
:10875000D2D82846C0E7B8F1040F4BD16849083990
:10876000086A05A903F076FB9DF81C009DF81B1014
:108770009DF81A209DF81930CDE90032CDE902109C
:108780009DF818300598A0F5FA6263A108A803F0D7
:1087900009FD002627E0002420E008A8805D594953
:1087A000095D884218D17819574A02EB04110A680A
:1087B00002604968416007F58C702844012101EB93
:1087C0004401514A02EBC1010A68026049684160F4
:1087D00005F10800C5B203E0601CC4B2302CDCD344
:1087E00000BF701CC6B208A8FBF716FDB042D2D875
:1087F000284671E742480F30016808918088ADF83B
:108800002400002627E0002420E008A8805D3D49E0
:10881000095D884218D178193B4A02EB04110A68B5
:1088200002604968416007F58C702844012101EB22
:108830004401354A02EBC1010A680260496841609F
:1088400005F10800C5B203E0601CC4B2302CDCD3D3
:1088500000BF701CC6B208A8FBF7DEFCB042D2D83D
:10886000202108A8FBF7CDFC3048027830A108A8E9
:1088700003F098FC002627E0002420E008A8805D93
:108880002049095D884218D178191F4A02EB04116A
:108890000A6802604968416007F58C70284401212C
:1088A00001EB4401184A02EBC1010A680260496801
:1088B000416005F10800C5B203E0601CC4B2302C71
:1088C000DCD300BF701CC6B208A8FBF7A5FCB04201
:1088D000D2D8781910221849FBF77AFC07F58C7169
:1088E0004819102214491031FBF772FC05F11000F1
:1088F000C5B22846F0E60000494D45493A0000005F
:1089000004130020B2DC0008E3DC000849443A25E7
:10891000642025640000000025642F25642F256451
:108920002025643A25643A2564200000D004002004
:10893000202020202564000063E000082DE9F04F8E
:1089400091B0044600250026A946AA46202109A880
:10895000FBF757FCAB4610226D492046FBF738FC6D
:1089600010226B49103104F58C70FBF731FC10229A
:108970006749203104F11000FBF72AFC10226449FA
:10898000303104F59470FBF723FC00BF19E0614817
:10899000405D3A2813D1604901EB0510016821625E
:1089A00040686062012000EB45005B4901EBC001BB
:1089B0000A68C4F838214968C4F83C1103E0681C0F
:1089C000C5B2302DE3D300BF544890F8700680B98B
:1089D0001022534904F12800FBF7FAFB10225049FA
:1089E000103104F5A070FBF7F3FB382011B0BDE89F
:1089F000F08F00250EE04B4830F8150042F2107160
:108A0000884204DD09F1010000F0FF0900E006E002
:108A1000681CC5B2414890F87006A842EBDC00BF64
:108A20003E4890F8700648450EDC10223C4904F19F
:108A30002800FBF7CDFB10223949103104F5A07056
:108A4000FBF7C6FB3820D1E7364931F81900FBF7B0
:108A50003BFD07463449FBF718FC834631497A3120
:108A600051F8290006A903F0F5F95846FBF763FD14
:108A7000074688469DF820009DF81F109DF81E208F
:108A80009DF81D30CDE90232CDE904109DF81C108F
:108A90000698A0F5FA603A464346CDE9000123A1C5
:108AA00009A803F07FFB4FF0280A002529E00026E3
:108AB00022E009A8405D1749895D88421AD104EB7C
:108AC0000A00154A02EB06110A6802604968416013
:108AD00004F58C705044012101EB46010E4A02EB73
:108AE000C1010A680260496841600AF108001FFA82
:108AF00080FA03E0701CC6B2302EDAD300BF681CC7
:108B0000C5B209A8FBF788FBA842D0D850466DE74C
:108B100083E00008B2DC0008E3DC0008D004002099
:108B200053E40008D60900200000204125302E31F2
:108B3000666D732025642F25642F25642025643AF3
:108B400025643A2564200000F0B595B0044600265F
:108B50000025002720210DA8FBF753FB142108A8AE
:108B6000FBF74FFB102291492046FBF731FB102207
:108B70008E49103104F58C70FBF72AFB10228C49CA
:108B800004F11000FBF724FB10228949103104F591
:108B90009470FBF71DFB10228549203104F1200061
:108BA000FBF716FB10228249303104F59C70FBF76D
:108BB0000FFB00BF19E07F48805D3A2813D17E4942
:108BC00001EB06100168216340686063012000EB3F
:108BD0004600794901EBC0010A68C4F84821496898
:108BE000C4F84C1103E0701CC6B2302EE3D300BFB2
:108BF0007248406878B91022714904F13800FBF7D7
:108C0000E7FA10226E49103104F5A870FBF7E0FA7C
:108C1000582015B0F0BD694842786AA10DA803F04C
:108C2000C1FA3827002627E0002520E00DA8805D46
:108C30006049495D884218D1E0195F4A02EB05118D
:108C40000A6802604968416004F58C70384401216B
:108C500001EB4501584A02EBC1010A68026049680C
:108C6000416007F1080087B203E0681CC5B2302DEF
:108C7000DCD300BF701CC6B20DA8FBF7CDFAB04222
:108C8000D2D8E01910225049FBF7A2FA04F58C71F2
:108C9000C81910224C491031FBF79AFA07F110005D
:108CA00087B220210DA8FBF7ACFA4448827847A18F
:108CB0000DA803F077FA002627E0002520E00DA894
:108CC000805D3C49495D884218D1E0193A4A02EB7F
:108CD00005110A6802604968416004F58C703844E7
:108CE000012101EB4501344A02EBC1010A6802602F
:108CF0004968416007F1080087B203E0681CC5B20B
:108D0000302DDCD300BF701CC6B20DA8FBF784FA6F
:108D1000B042D2D82949486805A903F09BF89DF8CC
:108D20001C009DF81B109DF81A209DF81930CDE904
:108D30000032CDE902109DF818300598A0F5FA62CE
:108D400024A108A803F02EFA002627E0002520E041
:108D500008A8805D1749495D884218D1E019164A74
:108D600002EB05110A6802604968416004F58C70E5
:108D70003844012101EB45010F4A02EBC1010A68A9
:108D800002604968416007F1080087B203E0681C8F
:108D9000C5B2302DDCD300BF701CC6B208A8FBF7EB
:108DA0003BFAB042D2D8384633E7000043E100082E
:108DB000D3E30008B2DC0008E3DC0008D0040020A4
:108DC00053E400082564000063E0000820256425C2
:108DD000250000002025642F25642F2564202564AC
:108DE0003A25643A256420002DE9F04F91B00446FD
:108DF00000250026A946AA46202109A8FBF701FA6A
:108E0000AB4610226D492046FBF7E2F910226B4970
:108E1000103104F58C70FBF7DBF910226749203123
:108E200004F11000FBF7D4F910226449303104F545
:108E30009470FBF7CDF900BF19E06148405D3A2816
:108E400013D1604901EB051001682162406860623E
:108E5000012000EB45005B4901EBC0010A68C4F842
:108E600038214968C4F83C1103E0681CC5B2302DB4
:108E7000E3D300BF544890F8710680B910225349DB
:108E800004F12800FBF7A4F910225049103104F531
:108E9000A070FBF79DF9382011B0BDE8F08F0025D8
:108EA0000EE04B4830F8150042F21071884204DDA4
:108EB00009F1010000F0FF0900E006E0681CC5B2FE
:108EC000414890F87106A842EBDC00BF3E4890F89C
:108ED000710648450EDC10223C4904F12800FBF7DE
:108EE00077F910223949103104F5A070FBF770F9B9
:108EF0003820D1E7364931F81900FBF7E5FA074683
:108F00003449FBF7C2F983463149B63151F829009B
:108F100006A902F09FFF5846FBF70DFB074688465F
:108F20009DF820009DF81F109DF81E209DF81D3013
:108F3000CDE90232CDE904109DF81C100698A0F589
:108F4000FA603A464346CDE9000123A109A803F09F
:108F500029F94FF0280A002529E0002622E009A877
:108F6000405D1749895D88421AD104EB0A00154A11
:108F700002EB06110A6802604968416004F58C70D2
:108F80005044012101EB46010E4A02EBC1010A687F
:108F90000260496841600AF108001FFA80FA03E0A4
:108FA000701CC6B2302EDAD300BF681CC5B209A847
:108FB000FBF732F9A842D0D850466DE7C3E000086D
:108FC000B2DC0008E3DC0008D004002053E4000811
:108FD000120A00200000204125302E31666D7320DA
:108FE00025642F25642F25642025643A25643A25BD
:108FF0006420000070B5044600253C48016A2160E9
:10900000406A606039498A6AC4F81821C96AC4F89C
:109010001C1137480169A1604069E06034498A69E0
:10902000C4F82021C969C4F8241130488038016D82
:109030002161406D60612D4980398A6DC4F8282115
:10904000C96DC4F82C112A48016CA161406CE06123
:1090500027498A6CC4F83021C96CC4F834112348FC
:10906000016B2162406B606220498A6BC4F8382131
:10907000C96BC4F83C11282510221E4904F12800B0
:10908000FBF7A6F810221B49103104F5A070FBF77E
:109090009FF810221749203104F13800FBF798F8A7
:1090A00010221449303104F5A870FBF791F8102212
:1090B0001049403104F14800FBF78AF810220D49AD
:1090C000503104F5B070FBF783F810220949603184
:1090D00004F15800FBF77CF810220649703104F5C2
:1090E000B870FBF775F86825284670BDE3DD000809
:1090F000E3DC0008E3DF000830B5AFB0B82101A819
:10910000FBF77FF80024002513480078C0F34002E5
:1091100029466D1C01A8425400BF14E00E48801D72
:1091200030F8240002122846691CCDB201A90A5465
:109130000948801D10F824202846691CCDB201A9D9
:109140000A54601CC4B25A2CE8DBB52201A90220E3
:1091500001F0D0FA2FB030BD5810002030B5ADB0BE
:10916000B4216846FBF74DF80024002500BF14E049
:109170000E4800EB8400408802122846691CCDB2DC
:109180000DF80020094800EB840082782846691C0D
:10919000CDB20DF80020601CC4B25A2CE8DBB4221A
:1091A0006946042001F0A6FA2DB030BD5E10002003
:1091B0002DE9F04F95B00646894600250024A246C9
:1091C000A34600201390342106A8FBF71AF81423B5
:1091D0004A465AA106A802F0E5FF00BF2AE0002493
:1091E00021E006A810F80A005649095D884218D106
:1091F0007019554A02EB04110A680260496841601F
:1092000006F58C702844012101EB44014E4A02EB23
:10921000C1010A6802604968416005F1080085B231
:1092200003E0601CC4B2302CDBD300BF0AF10100A4
:1092300000F0FF0A06A8FAF7EFFF5045CFD8342117
:1092400006A8FAF7DEFF414800EB890040884FF698
:10925000FF71884204D03D4800EB8900408880B906
:10926000701910223A49FAF7B3FF06F58C714819C4
:10927000102237491031FAF7ABFF05F1100085B223
:1092800057E0344931F81900FBF734F9074600225A
:10929000314BFBF7AAF8CDE904012C4901EB890118
:1092A0004988A1F5FA70FBF714F907462B4A2C4BB5
:1092B000FBF729F8CDE90201DDE90401CDE9000160
:1092C00028A106A8DDE9022302F06CFF4FF0000A96
:1092D0002AE0002421E006A810F80A001949095DD7
:1092E000884218D17019184A02EB04110A6802600A
:1092F0004968416006F58C702844012101EB440166
:10930000114A02EBC1010A6802604968416005F137
:10931000080085B203E0601CC4B2302CDBD300BF70
:109320000AF1010000F0FF0A06A8FAF775FF5045A0
:10933000CFD8284615B0BDE8F08F000025642F2552
:10934000643A0000B2DC0008E3DC00085E10002094
:1093500053E400080212002000408F409A99999926
:109360009999B93F25302E31662025302E3366007D
:1093700010B5FDF77DF801F033FB10BD08B50020F6
:1093800000900548007800F0010000900122694635
:10939000104601F0AFF908BD5810002010B50823A1
:1093A00003221021104803F0F3FD10230322194675
:1093B0000D4803F0EDFD0223032210210A4803F0BB
:1093C000E7FD012303221021074803F0E1FD0820F7
:1093D0000549143108601020091F08600220086048
:1093E0000120091D086010BD000C014000BFFEE710
:1093F0000348807820F008000830014988707047E1
:109400005810002030B5ADF50D7D00254FF40C71DE
:1094100001A8FAF7F6FE00244D480078C0F380005A
:1094200058B14C48007840B14948007820F0040019
:10943000474908700020474908704648007810B135
:1094400001286FD11EE0002043490880434908707D
:109450004349088043490870FDF756F9FDF7A8FE17
:10946000282101A8FFF72AF804463B480388022276
:10947000214601A800F0C4FC36480078401C35495C
:10948000087061E0FEF73AFB0546092D21D2DFE8BE
:1094900005F01B050C131A1C1D1E1F003248334912
:1094A000086000202B49087014E031482F490860FB
:1094B0000020284908700DE02E482C490860002043
:1094C0002449087006E005E000BF00BF00BF00BFF0
:1094D00000E000BF00BF2148007820B32148007899
:1094E000401C20490870084600781E282ADB00200E
:1094F000087019480088401C17490880282101A8D5
:10950000FEF7DCFF044614480088A04202DB00207E
:1095100011490880104803880222214601A800F062
:109520006FFC0FE00FE00E480088401C0C490880DB
:1095300008460088B0F57A7F04DB0020088001200F
:109540000649087000E000BF00BF0DF50D7D30BD7D
:109550000C0000205E00002060000020620000205F
:109560006400002066000020555400081C00002004
:109570001D9F0008CD9C000810B532480078C0F34C
:10958000800000285DD030480078E0B94FF4804179
:109590002E4803F053FD18B100202D49088004E047
:1095A0002B480088401C2A490880294800880A283E
:1095B00047DB0020264908800A2026490880012030
:1095C000214908703DE024480078F0B9214800881E
:1095D000401C204908804FF480411C4803F02EFDB8
:1095E00028B11B480088401C1949088002E000206F
:1095F00017490880164800880A2822DB00201449F1
:1096000008800120144908701BE01248008840F2CD
:10961000DC51884203DB07201049087002E0032078
:109620000E4908700748007820F0040005490870CA
:109630000020084908800649088003490870064947
:10964000087010BD3C0300204C030020000C0140BA
:109650004E030020500300204D0300203E03002055
:1096600010B532480078C0F3400000285DD0304883
:109670000078E0B94FF400512E4803F0DFFC18B138
:1096800000202D49088004E02B480088401C2A490E
:109690000880294800880A2847DB002026490880DE
:1096A0000A20264908800120214908703DE024480D
:1096B0000078F0B921480088401C204908804FF408
:1096C00000511C4803F0BAFC28B11B480088401C1C
:1096D0001949088002E000201749088016480088D0
:1096E0000A2822DB00201449088001201449087050
:1096F0001BE01248008840F2DC51884203DB062060
:109700001049087002E002200E49087007480078EE
:1097100020F0020005490870002008490880064929
:109720000880034908700649087010BD3C030020FA
:1097300046030020000C0140480300204A0300209B
:10974000470300203E03002010B532480078C0F3E4
:10975000C00000285DD030480078E0B94FF40041E7
:109760002E4803F06BFC18B100202D49088004E05E
:109770002B480088401C2A490880294800880A286C
:1097800047DB0020264908800A202649088001205E
:10979000214908703DE024480078F0B9214800884C
:1097A000401C204908804FF400411C4803F046FC4F
:1097B00028B11B480088401C1949088002E000209D
:1097C00017490880164800880A2822DB002014491F
:1097D00008800120144908701BE01248008840F2FC
:1097E000DC51884203DB08201049087002E00420A5
:1097F0000E4908700748007820F0080005490870F5
:109800000020084908800649088003490870064975
:10981000087010BD3C03002052030020000C0140E2
:109820005403002056030020530300203E03002071
:1098300010B53248007800F0010000285DD03048B3
:109840000078E0B94FF480512E4803F0F7FB18B1CF
:1098500000202D49088004E02B480088401C2A493C
:109860000880294800880A2847DB0020264908800C
:109870000A20264908800120214908703DE024483B
:109880000078F0B921480088401C204908804FF436
:1098900080511C4803F0D2FB28B11B480088401CB3
:1098A0001949088002E000201749088016480088FE
:1098B0000A2822DB0020144908800120144908707E
:1098C0001BE01248008840F2DC51884203DB05208F
:1098D0001049087002E001200E490870074800781E
:1098E00020F0010005490870002008490880064959
:1098F0000880034908700649087010BD3C03002029
:109900003F030020000C01404203002044030020DC
:10991000400300203E03002010B51048007818B91D
:1099200008200F49086001E000F0C8FC0B484078AF
:1099300038B902200A49091F08600120091D086082
:109940000BE006484078022805D10549086001204F
:10995000091F086001E0FCF721F810BDFC1200208F
:10996000140C014010B572B64FF48041480303F067
:10997000DBFC62B603F03AFE00F030FF03F068FC57
:10998000FCF72AFE02F082FAFFF708FD02F018FA4F
:10999000074B08A20AA10DA002F0F4FB02F06EF939
:1099A00002F076F8FBF7F0F900F0F8FC10BD0000CB
:1099B0001000002032313A32393A353300000000CD
:1099C0004175672032362032303236004469737078
:1099D0006C617920626F617264206170700D0A425F
:1099E00075696C642054696D653A20257320257370
:1099F0000D0A56657273696F6E3A2025730D0A0061
:109A00002DE9F043ADF6C40D00264FF40C710DF2B4
:109A10009460FAF7F6FB4FF40C710DF26440FAF71C
:109A2000F0FB4FF40C718DA8FAF7EBFB4FF40C71BF
:109A300001A8FAF7E6FB002400270025A046A1466E
:109A400097480078C0F3800058B19648007840B13C
:109A50009348007820F00400914908700020914953
:109A600008709048007810B101287DD148E00020AE
:109A70008D4908808D4908808D4908808D4908707E
:109A80008D4908808D490870FCF73EFE00210DF2DB
:109A90009460FEF7D5FD04468348038800222146E2
:109AA0000DF2946000F0ACF902210DF26440FEF773
:109AB000C7FD07467D480388022239460DF26440FF
:109AC00000F09EF904218DA8FEF7BAFD05467848FE
:109AD0000388042229468DA800F092F9062101A8E6
